:060000000A128A11122809
:10000800FE00030E83160313C4000408C5000A0883
:10001800C6007F08C7000A128A11A22B0A128A1189
:1000280015288317BA30FD001230FE003230FF0069
:10003800AE3084000A168A1151220A128A118313DB
:10004800F030FD000830FE000230FF00E830840088
:100058000A168A1151220A128A1183160317BA0145
:10006800BB01D8308400E8300A168A112A220A1205
:100078008A1183010A168A11852B831203134108FA
:100088008039C6004608CB004108C6004607C700AD
:100098004708D100C01F512852285328511451082D
:1000A8000319572858286728510A031D5C285D281A
:1000B80065280030C1000030C0000030BF000030AB
:1000C800BE00C0176F280030C1000030C0000030EB
:1000D800BF000030BE0045088039C6004608CB0680
:1000E8004508C6004607C7004708D000C41F7D283A
:1000F8007E287F28501450080319832884289328C1
:10010800500A031D8828892891280030C50000302E
:10011800C4000030C3000030C200C4179B28003060
:10012800C5000030C4000030C3000030C2005008D1
:1001380003199F28A028A5285108031DA428A5282D
:10014800AE280030C1000030C0000030BF000030D1
:10015800BE00A12B3E08C6004608F00044080A1657
:100168008A11A6220A128A11710883120313D70072
:100178007008D6005608C600C701C801C901490859
:10018800CF004808CE004708CD004608CC005708E5
:10019800C600C701C801C9014908D5004808D400EC
:1001A8004708D3004608D2003F08C6004608F000BA
:1001B80043080A168A11A6220A128A1171088312A4
:1001C8000313D7007008D6005608C600C701C80137
:1001D800C9014608CC07470803110318013E031953
:1001E800F628CD07480803110318013E0319FD2816
:1001F800CE07490803110318013E03190429CF0744
:100208005708C600C701C801C9014608D2074708F0
:1002180003110318013E03191229D30748080311D3
:100228000318013E03191929D407490803110318B3
:10023800013E03192029D5074008C6004608F000EA
:1002480042080A168A11A6220A128A117108831214
:100258000313D7007008D6005608C600C701C801A6
:10026800C9014608CC07470803110318013E0319C2
:100278003E29CD07480803110318013E03194529F3
:10028800CE07490803110318013E03194C29CF076B
:100298005708C600C701C801C9014608D207470860
:1002A80003110318013E03195A29D30748080311FB
:1002B8000318013E03196129D407490803110318DB
:1002C800013E03196829D5070830C6000310CC0D74
:1002D800CD0DCE0DCF0DC60B6A293F08C6004608C6
:1002E800F00042080A168A11A6220A128A11710819
:1002F80083120313D7007008D6005608C6005708A3
:10030800C700C801C9014608CC07470803110318EC
:10031800013E03199029CD07480803110318013E2F
:1003280003199729CE07490803110318013E031939
:100338009E29CF073E08C6004608F00043080A1663
:100348008A11A6220A128A11710883120313D70090
:100358007008D6005608C6005708C700C801C9016A
:100368004608CC07470803110318013E0319BD29A5
:10037800CD07480803110318013E0319C429CE0705
:10038800490803110318013E0319CB29CF07083088
:10039800C6000310CC0DCD0DCE0DCF0DC60BCD294B
:1003A8003E08C6004608F00042080A168A11A6222E
:1003B8000A128A11710883120313D7007008D60035
:1003C8005608C6005708C700C801C9014608CC0727
:1003D800470803110318013E0319F329CD074808FC
:1003E80003110318013E0319FA29CE07490803111E
:1003F8000318013E0319012ACF073F08C600460823
:10040800F00044080A168A11A6220A128A117108F5
:1004180083120313D7007008D6005608C600570881
:10042800C700C801C9014608D207470803110318C5
:10043800013E0319202AD307480803110318013E77
:100448000319272AD407490803110318013E031981
:100458002E2AD5074008C6004608F00043080A16A9
:100468008A11A6220A128A11710883120313D7006F
:100478007008D6005608C6005708C700C801C90149
:100488004608D207470803110318013E03194D2AED
:10049800D307480803110318013E0319542AD40747
:1004A800490803110318013E03195B2AD5074008C0
:1004B800C6004608F00044080A168A11A6220A1245
:1004C8008A11710883120313D7007008D6005608E2
:1004D800C6005708C700C801C90108300310C60D77
:1004E800C70DC80DC90DFF3E031D722A4608D20765
:1004F800470803110318013E0319832AD307480844
:1005080003110318013E03198A2AD4074908031165
:100518000318013E0319912AD5074C08C6004D0857
:10052800C7004E08C8004F08C90018300310C90C8E
:10053800C80CC70CC60CFF3E031D9A2A4608D207F2
:10054800470803110318013E0319AB2AD3074808CB
:1005580003110318013E0319B22AD40749080311ED
:100568000318013E0319B92AD5070830C60003103D
:10057800CC0DCD0DCE0DCF0DC60BBB2A51085007A3
:10058800C600C701C70D4608823ED60047080318B3
:10059800013EFF3ED700ED2A0130C6000310D20D00
:1005A800D30DD40DD50DC60BD22ACF1FDC2ADD2AD8
:1005B800DE2A52140130C6000310CC0DCD0DCE0D2D
:1005C800CF0DC60BE02AFF30D6070318D70AFF3035
:1005D800D707D41FF02AF12AD02AD001CF1FF52A35
:1005E800F62A122BFF304C05C600FF304D05C70018
:1005F800FF304E05C8007F304F05C9004908480440
:10060800470446040319092B0A2B0D2BD001D00AE5
:10061800122B521C102B112B122B0A2B50080319CA
:10062800162B172B482B0130D20700300318013046
:10063800D307003003180130D40700300318013005
:10064800D507551C282B292B482B5208C6005308C0
:10065800C7005408C8005508C9000130CA00490D30
:10066800C90CC80CC70CC60CCA0B332B4908D500DB
:100678004808D4004708D3004608D2000130D607FE
:100688000318D70A0030D7075708803AFF00803090
:100698007F02031D512BFF305602031C542B552B90
:1006A800602B7F3083120313D5008030D4000030D4
:1006B800D3000030D200952B831203135708803AD9
:1006C800FF0080307F02031D6B2B01305602031898
:1006D8006E2B6F2B7B2B003083120313D500003059
:1006E800D4000030D3000030D200CB01952B831208
:1006F80003135608C6004608D100FF30D205FF3064
:10070800D3057F30D4050030D505511C8C2B8D2B9B
:100718008E2BD4175108C6000310460CC700470893
:10072800D5004B08C6004608D5045508C100540832
:10073800C0005308BF005208BE0008000B1CA52BC0
:10074800A62BB82B831203138618AB2BAC2BB32B19
:10075800013083160317BA000030BB00B72B83168D
:100768000317BA01BB010B10831203130C1FBD2B17
:10077800BE2BAB2E1F0C83160313C000400C0F3981
:10078800003A031DC82BC92BA92E0A128A11F52776
:100798000A128A11710883160313B7007008B6008D
:1007A8000030B800B9008A30BA000230BB00C93046
:1007B800BC00FF30BD007D30BE000030BF000A1213
:1007C8008A1563210A128A11831603133708E70072
:1007D8003608E6006F0883120313C100831603135B
:1007E8006E0883120313C000831603136D08831267
:1007F8000313BF00831603136C0883120313BE0090
:10080800BF30AD008030AC000030AB000030AA0033
:10081800FF30F2000330F300831603136708F1007A
:100828006608F0000A168A11C7230A128A1170088E
:1008380083160313C0007108C100C201C301430835
:10084800FC004208FB004108FA004008F9000030AB
:100858000A128A151C220A128A117C0883120313B1
:10086800B1007B08B0007A08AF007908AE000A1220
:100878008A15D8220A128A11831203132D08C5007B
:100888002C08C4002B08C3002A08C2000A128A11C7
:1008980041200A128A118312031341088316031395
:1008A800DF0083120313400883160313DE0083124C
:1008B80003133F0883160313DD00831203133E0856
:1008C80083160313DC005F0883120313EB008316FF
:1008D80003135E0883120313EA00831603135D08EB
:1008E80083120313E900831603135C0883120313AE
:1008F800E8000A128A11B8260A128A118312031311
:100908006B0883160313E300831203136A08831624
:100918000313E20083120313690883160313E1002B
:1009280083120313680883160313E0008316031762
:10093800310883120313C500831603173008831286
:100948000313C400831603172F0883120313C3006D
:10095800831603172E0883120313C200831603138A
:10096800630883120313C1008316031362088312FA
:100978000313C00083160313610883120313BF0017
:1009880083160313600883120313BE000A128A1128
:1009980041200A128A118312031341088316031394
:1009A800CB0083120313400883160313CA00831273
:1009B80003133F0883160313C900831203133E0869
:1009C80083160313C8004B0883120313C50083164C
:1009D80003134A0883120313C40083160313490838
:1009E80083120313C30083160313480883120313E7
:1009F800C20083160313630883120313C10083160E
:100A08000313620883120313C000831603136108DB
:100A180083120313BF0083160313600883120313A2
:100A2800BE000A128A1141200A128A118312031386
:100A3800410883160313CF0083120313400883165B
:100A48000313CE00831203133F0883160313CD004C
:100A5800831203133E0883160313CC00831603176F
:100A6800390883120313C500831603173808831245
:100A78000313C40083160317370883120313C30034
:100A880083160317360883120313C2008316031351
:100A9800630883120313C1008316031362088312C9
:100AA8000313C00083160313610883120313BF00E6
:100AB80083160313600883120313BE000A128A11F7
:100AC80041200A128A11831203134108B100400819
:100AD800B0003F08AF003E08AE00831603136B0852
:100AE80083120313AD00831603136A0883120313DA
:100AF800AC0083160313690883120313AB00831633
:100B08000313680883120313AA000A128A15D8224D
:100B18000A128A11831203132D0883160313D300B4
:100B2800831203132C0883160313D20083120313B2
:100B38002B0883160313D100831203132A08831684
:100B48000313D0003F3083120313DF008030DE0030
:100B58000030DD000030DC008316031353088312D5
:100B68000313B10083160313520883120313B00052
:100B780083160313510883120313AF00831603135C
:100B8800500883120313AE00831603134F08831211
:100B98000313C500831603134E0883120313C400FE
:100BA800831603134D0883120313C300831603131C
:100BB8004C0883120313C2008316031363088312BD
:100BC8000313C10083160313620883120313C000C2
:100BD80083160313610883120313BF0083160313DC
:100BE800600883120313BE000A128A1141200A12F8
:100BF8008A11831203134108AD004008AC003F0876
:100C0800AB003E08AA000A128A15D8220A128A11D5
:100C1800831203132D08DB002C08DA002B08D900F7
:100C28002A08D8000A128A1560250A128A11831226
:100C380003135B0883160313D700831203135A08A0
:100C480083160313D600831203135908831603135C
:100C5800D50083120313580883160313D4004330B6
:100C680083120313EC008830EB009330EA00333032
:100C7800E90083160313570883120313E800831649
:100C88000313560883120313E7008316031355084A
:100C980083120313E6008316031354088312031305
:100CA800E5000A168A1182220A128A118312031396
:100CB800680883160313B0008312031367088316AA
:100CC8000313AF0083120313660883160313AE00E1
:100CD80083120313650883160313AD000A168A11DD
:100CE800D0260A128A11831603132D08C000C101E9
:100CF800C201C3014308FC004208FB004108FA0096
:100D08004008F90000300A128A151C220A128A11BA
:100D18007C0883160313DB007B08DA007A08D90005
:100D28007908D8005B08B0005A08AF005908AE002F
:100D38005808AD000A168A11D0260A128A1183169D
:100D480003132D0883120313880083120C138316D0
:100D580003134708FF0046088A0045088400440E2C
:100D68008300FE0E7E0E0900831203136B08F30046
:100D78006A08F2006908F1006808F0000030F7001E
:100D88000030F6000030F5000030F4000A128A1531
:100D98000A200A128A110318D22ED32EE42E2130EB
:100DA80083160313E4000030E500003083120313B8
:100DB800EB000030EA000030E9000030E800C72FFF
:100DC800831203136B08F3006A08F2006908F10044
:100DD8006808F0000030F7000030F6000030F50039
:100DE8000030F4000A168A1155240A128A11031CCD
:100DF800FE2EFF2E102F223083160313E40000303E
:100E0800E500003083120313EB000030EA000030E5
:100E1800E9000030E800C72FBF3083120313AD008C
:100E28008030AC000030AB000030AA004030C10078
:100E38000030C0000030BF000030BE006D30EC0054
:100E48006C08A4006B08A3006A08A2006908A10046
:100E58006808A0000A168A11A3240A128A118312AC
:100E680003132308C5002208C4002108C300200872
:100E7800C2000A128A1141200A128A11831203132E
:100E88004108B1004008B0003F08AF003E08AE007E
:100E98000A128A15D8220A128A11831203132D08FE
:100EA800EB002C08EA002B08E9002A08E800FF30CC
:100EB800ED070318EE0AFF30EE076B08DB006A083F
:100EC800DA006908D9006808D8000130EC006C081D
:100ED800DC000830DD000030DE000A168A116227C7
:100EE8000A128A11831203135B08EB005A08EA00FE
:100EF8005908E9005808E8006B08AD006A08AC001A
:100F08006908AB006808AA003F30C1003130C00052
:100F18007230BF001830BE006D08F9006E08FA0084
:100F28000030FA1BFF30FB00FC0001300A128A1562
:100F38001C220A128A117C0883120313C5007B083D
:100F4800C4007A08C3007908C2000A128A11412035
:100F58000A128A11831203134108B1004008B00035
:100F68003F08AF003E08AE000A128A15D8220A12BE
:100F78008A11831203132D08EB002C08EA002B08B2
:100F8800E9002A08E8000800831603171C08803ABD
:100F9800FF0080307F02031DD32F16301B02031C75
:100FA800D62FD72FDB2F831203130614DE2F8312BD
:100FB800031306108316031733081C06031DE62FB8
:100FC80032081B060319E92FEA2FF42F1C08B30077
:100FD8001B08B2001B080A168A113E220A128A113F
:100FE8000800831203130C131E08F1008316031361
:060FF8001E08F0000800D5
:10100400EB34FF3493343A34003440341C344634E3
:1010140000307005F80000307105F9008030720569
:10102400FA007F307305FB007B087A0479047804A6
:10103400031D1D281E2826280030F3000030F2006E
:101044000030F1000030F00000307405F80000308A
:101054007505F90080307605FA007F307705FB00CE
:101064007B087A0479047804031D39283A28422835
:101074000030F7000030F6000030F5000030F400D6
:10108400F31F452846286A280030F8000030F9008C
:101094000030FA008030FB007008F8027108031C6D
:1010A400710F55285628F9027208031C720F5B2829
:1010B4005C28FA027308031C730F61286228FB0280
:1010C4007B08F3007A08F2007908F1007808F00050
:1010D400F71F6D286E2892280030F8000030F900C0
:1010E4000030FA008030FB007408F8027508031C15
:1010F400750F7D287E28F9027608031C760F832855
:101104008428FA027708031C770F89288A28FB02AF
:101114007B08F7007A08F6007908F5007808F400EF
:101124008030F3068030F70677087302031DA42885
:1011340076087202031DA42875087102031DA428F1
:10114400740870020318A728A828AA280310AB283B
:10115400031408008316031792004F298312031304
:101164009F18B528B6286229C3309F05023083161C
:1011740003179000900BBC280000831203139F14E4
:101184006229831203139F18C828C92862291F0CD7
:10119400831603179000100C0F39003A031DD3284F
:1011A400D428E228831203131F08C33904389F008C
:1011B4000230831603179000900BDE280000F428F9
:1011C400831203131F0C831603179000100C0F399E
:1011D400013A031DEE28EF28F428C33083120313C9
:1011E4009F05DA280230831603179000900BF82825
:1011F4000000831203139F146229831203139F18A0
:101204000429052962291F0C831603179000100C6A
:101214000F39003A031D0F2910291E2983120313C5
:101224001F08C33904389F00023083160317900047
:10123400900B1A2900004429831203131F0C8316F0
:1012440003179000100C0F39013A031D2A292B298A
:101254003229831203131F08C33908389F00162943
:10126400831203131F0C831603179000100C0F39FD
:10127400023A031D3E293F294429C3308312031334
:101284009F0516290230831603179000900B4829F6
:101294000000831203139F14622912089000910125
:1012A4001108003A0319572962291008013A031951
:1012B400B028033A0319C328013A0319FF28622905
:1012C4000800831603133C08F9003D08FA000030B7
:1012D400FA1BFF30FB00FC0001300A128A151C22A5
:1012E4000A128A157C0883120313B1007B08B0002C
:1012F4007A08AF007908AE00831603133C083E0257
:10130400F9003D08031C3D0A3F02FA00FB01FA1BE9
:10131400FB037B08FC0001300A128A151C220A1206
:101324008A157C0883120313DF007B08DE007A0829
:10133400DD007908DC008316031338083A02F9004B
:101344003908031C390A3B02FA00FB01FC01003096
:101354000A128A151C220A128A157C0883120313A6
:10136400DB007B08DA007A08D9007908D8000A1271
:101374008A1560250A128A15831203135B08C500B7
:101384005A08C4005908C3005808C200831603133E
:1013940038083602F9003908031C390A3702FA0002
:1013A400FB01FC0100300A128A151C220A128A155C
:1013B4007C0883120313C1007B08C0007A08BF00B5
:1013C4007908BE000A128A1141200A128A15831272
:1013D40003134108AD004008AC003F08AB003E08D1
:1013E400AA000A128A15D8220A128A158312031334
:1013F4002D0883160313B000831203132C088316DD
:101404000313AF00831203132B0883160313AE00D8
:10141400831203132A0883160313AD000A168A11D4
:10142400D0260A128A15831603132E08B7002D0836
:10143400B600080083120313A40024080319232A06
:10144400242A382AFC1F272A282A382A7909A600A0
:101454007A09A7007B09A8007C09A900A60A031938
:10146400A70A0319A80A0319A90A402A7C08A90093
:101474007B08A8007A08A7007908A6007C087B04EA
:101484007A047904031D472A482A512A0030FC00B3
:101494000030FB000030FA000030F900D72A963003
:1014A400A0002008A500632A0130A0002008A50799
:1014B40001300310A90CA80CA70CA60CFF3E031DB9
:1014C4005B2AFE302905031D682A692A562A852AC3
:1014D4000130A0002008A5070130A607003003183A
:1014E4000130A707003003180130A80700300318A3
:1014F4000130A90701300310A90CA80CA70CA60CF5
:10150400FF3E031D7D2AFF302905031D8A2A8B2AED
:101514006A2A972A0130A5020130A0000310A60D03
:10152400A70DA80DA90DA00B902AA81B9A2A9B2AE7
:10153400A12A023025020318A02AA12A8C2A2518E0
:10154400A42AA52AAD2AFF30A605FF30A7057F30BF
:10155400A805FF30A9050310A50C2508A000A101CA
:10156400A201A30118300310A00DA10DA20DA30D1B
:10157400FF3E031DB52A2008A6042108A70422085B
:10158400A8042308A90424080319C92ACA2ACF2AAB
:10159400FC1FCD2ACE2ACF2AA9172908FC00280827
:1015A400FB002708FA002608F90008008312031339
:1015B4002D088039B2003208BA002D08B200320773
:1015C400B3003308BC00AC1FE82AE92AEA2A3C1419
:1015D4003C080319EE2AEF2AFF2A3C0A031DF32ACA
:1015E400F42AFC2A0030AD000030AC000030AB001F
:1015F4000030AA00AC17AD01072B0030AD0000305D
:10160400AC000030AB000030AA0031088039B200D1
:101614003208BB003B083A060319112B122B132B7B
:101624003A173108B2003207B3003308BB00B01FC9
:101634001C2B1D2B1E2B3B143B080319222B232B85
:10164400332B3B0A031D272B282B302B0030B100F2
:101654000030B0000030AF000030AE00B017B10170
:101664003B2B0030B1000030B0000030AF00003040
:10167400AE003C083B020318402B412B852B3A1F3C
:10168400442B452B492B8030B2003208BA063C0863
:10169400B2003208BD003B08B2003208BC003D086D
:1016A400B2003208BB002A08B2003208BD002E087E
:1016B400B2003208AA003D08B2003208AE002B087E
:1016C400B2003208BD002F08B2003208AB003D085A
:1016D400B2003208AF002C08B2003208BD00300856
:1016E400B2003208AC003D08B2003208B0002D0848
:1016F400B2003208BD003108B2003208AD003D0826
:10170400B2003208B100BD013B08B200B301330896
:10171400B5003C083202B400031CB5033508803A16
:10172400FF0080307F02031D992B1A303402031C02
:101734009C2B9D2BDA2B831203132D082C042B04D2
:101744002A04031DA62BA82B0130A92B0030B200BC
:101754003208BD000030AD000030AC000030AB00FA
:101764000030AA003B08B2003208BC00E22B3D1C4A
:10177400BC2BBD2BC62B3D08B2000310320C013824
:10178400B3003308BD00C82B0310BD0C2A1CCB2B9F
:10179400CC2BCD2BBD170130B2002D0DAD0CAC0CF4
:1017A400AB0CAA0CB20BCF2B0130B2003208BC0731
:1017B400831203133B083C02031CE12BE22BB92BDD
:1017C4003A1BE52BE62B312C3C08031DEA2BEB2BB3
:1017D400F42B0030AD000030AC000030AB00003022
:1017E400AA005F2D2E08AA072F0803110318013E33
:1017F4000319FD2BAB07300803110318013E03192D
:10180400042CAC07310803110318013E03190B2CF7
:10181400AD072D1C0E2C0F2CE52C3D1C122C132C6B
:101824001C2C3D08B2000310320C0138B3003308FD
:10183400BD001E2C0310BD0C2A1C212C222C232C91
:10184400BD170130B2002D0DAD0CAC0CAB0CAA0CC5
:10185400B20B252C0130B2003208BC07E52C2D0850
:10186400803AFF003108803A7F02031D432C300880
:101874002C02031D432C2F082B02031D432C2E087E
:101884002A020318462C472C9F2CFF30B200FF304D
:10189400B300FF30B400FF30B5002E08B6002F08A7
:1018A400B7003008B8003108B9002A08B6022B087E
:1018B400031C2B0F5E2C5F2CB7022C08031C2C0F6F
:1018C400642C652CB8022D08031C2D0F6A2C6B2C7C
:1018D400B9023608B20737080318370F722C732C75
:1018E400B30738080318380F782C792CB407390853
:1018F4000318390AB5073508AD003408AC003308BD
:10190400AB003208AA008030B2003208BA06BD0922
:10191400BD0A3D08031D8F2C902CAD2C0130AA0765
:10192400003003180130AB07003003180130AC0756
:10193400003003180130AD07AD2C2E08AA022F0881
:10194400031C2F0FAB023008031C300FAC0231080C
:10195400031C310FAD022D082C042B042A04031D93
:10196400B42CB52CE12C3D08031DB92CBA2CE12C68
:101974000030AD000030AC000030AB000030AA00F5
:101984005F2D0130B2000310AA0DAB0DAC0DAD0DEF
:10199400B20BC52CBD1FCF2CD02CD12C2A143D1C2E
:1019A400D42CD52CD82C0314BD0DDA2C0310BD0D6A
:1019B4003C080319DE2CDF2CE12C0130BC02AC1FE7
:1019C400E42CE52CC32CBB01BD1FE92CEA2CF82C1C
:1019D4003D087F390319EF2CF02CF32CBB01BB0A13
:1019E400F82C2A1CF62CF72CF82CF02C3B080319A5
:1019F400FC2CFD2C312D0130AA07003003180130D6
:101A0400AB07003003180130AC0700300318013075
:101A1400AD072D1C0E2D0F2D312D2A08B2002B08D9
:101A2400B3002C08B4002D08B5000130B600350D04
:101A3400B50CB40CB30CB20CB60B192D3508AD00B3
:101A44003408AC003308AB003208AA003C0A03197E
:101A54002C2D2D2D312D0130B2003208BC073C0A4B
:101A64000319352D362D3B2D3C08031D3A2D3B2DF6
:101A7400492D0030AD000030AC000030AB00003028
:101A8400AA003C08031D472D482D492DBA013C1CD2
:101A94004C2D4D2D4F2DAC17532D7F30B2003208F5
:101AA400AC053C08B2000310320CB3003308AD009F
:101AB400BA1F5D2D5E2D5F2DAD1708008312031331
:101AC4005F088039E000600883160313A4008312C2
:101AD40003135F08E0006007E10061088316031345
:101AE400AB0083120313DE1F782D792D7C2D831612
:101AF40003132B14831603132B080319822D832D30
:101B0400962D2B0A031D872D882D922D00308312CC
:101B14000313DF000030DE000030DD000030DC00A5
:101B24008312DE17DF01A02D003083120313DF00C0
:101B34000030DE000030DD000030DC005B0880395E
:101B4400E000600883160313A406831203135B08E2
:101B5400E0006007E100610883160313AC00831200
:101B64000313DA1FB62DB72DBA2D831603132C14C5
:101B7400831603132C080319C02DC12DD42D2C0A50
:101B8400031DC52DC62DD02D003083120313DB0099
:101B94000030DA000030D9000030D8008312DA17A0
:101BA400DB01DE2D003083120313DB000030DA008A
:101BB4000030D9000030D8005B085A045904580496
:101BC400031DE52DE62D032E0030DF000030DE007E
:101BD4000030DD000030DC008030DE047F30DF04C4
:101BE40083160313240883120313E0006008DF0440
:101BF4005F08DB005E08DA005D08D9005C08D800E5
:101C0400FF2F831603132B08031D092E0A2E152EEE
:101C1400003083120313DB000030DA000030D900F7
:101C24000030D800FF2F2B0883120313E000E101DA
:101C34006108E300831603132C0883120313600264
:101C4400E200031CE30362087F3E83160313A5002E
:101C54008312031363080318013E003E8316031323
:101C6400A600831203135F0883160313A3008312D1
:101C740003135E0883160313A200831203135D0883
:101C840083160313A100831203135C088316031342
:101C9400A000003083120313DF000030DE000030A8
:101CA400DD000030DC00003083160313AA0000308E
:101CB400A9000030A8000030A700AC01E72E2C08D2
:101CC4000319652E662E952E013083120313E0004E
:101CD400031083160313A00DA10DA20DA30D8312EF
:101CE4000313E00B6A2E0130E0000310DC0DDD0D60
:101CF400DE0DDF0DE00B772E83160313AA1F832E50
:101D0400842E872E831203135C1401308312E000A7
:101D1400031083160313A70DA80DA90DAA0D831292
:101D24000313E00B8A2E83125B088316031323022A
:101D3400031DB22E831203135A08831603132202BF
:101D4400031DB22E831203135908831603132102B1
:101D5400031DB22E831203135808831603132002A3
:101D6400031CB52EB62EDF2E2A1783120313580830
:101D740083160313A002831203135908031C590F7B
:101D8400C42EC72E83160313A102831203135A0809
:101D9400031C5A0FCE2ED12E83160313A2028312D4
:101DA40003135B08031C5B0FD82EDB2E831603136F
:101DB400A302831203138316031301308312031344
:101DC400E000600883160313AC071A302C02031CCE
:101DD400EC2EED2E612E2308220421042004031985
:101DE400F42EF52E1F2F27141F2F0130E0000310AF
:101DF400DC0DDD0DDE0DDF0DE00BF92E8316031374
:101E0400AA1F052F062F092F831203135C14013018
:101E14008312E000031083160313A70DA80DA90D68
:101E2400AA0D83120313E00B0C2FFF308316031348
:101E3400A5070318A60AFF30A60783120313DE1FA3
:101E4400242F252FF72E83160313AC01AA1F2B2F43
:101E54002C2F582FFF30270583120313E000FF3087
:101E640083160313280583120313E100FF3083163E
:101E74000313290583120313E2007F30831603132F
:101E84002A0583120313E3006308620461046004F7
:101E940003194D2F4E2F532F83160313AC01AC0A95
:101EA400582F5C1C562F572F582F4E2F8316031371
:101EB4002C0803195E2F5F2F942F01308312031314
:101EC400DC07003003180130DD070030031801304F
:101ED400DE07003003180130DF075F1C722F732FF9
:101EE400942F5C08E0005D08E1005E08E2005F08F2
:101EF400E3000130E400630DE30CE20CE10CE00CC0
:101F0400E40B7D2F6308DF006208DE006108DD005A
:101F14006008DC00013083160313A5070318A60A22
:101F24000030A607831603132608803AFF0080308A
:101F34007F02031D9F2FFF302502031CA22FA32F16
:101F4400B32FFF3083160313A5000030A600003022
:101F540083120313DF000030DE000030DD000030A8
:101F6400DC00831603132608803AFF0080307F02CA
:101F7400031DBE2F013025020318C12FC22FD32FFA
:101F840083160313A501A601003083120313DF0097
:101F94000030DE000030DD000030DC008316031367
:101FA400A40183160313250883120313E0006008B9
:101FB40083160313AB002B1CE02FE12FE52F8312B4
:101FC4000313DE17EB2F7F3083120313E000600846
:101FD400DE05831603132B0883120313E00003109A
:101FE400600CE1006108DF008316031324088312E8
:101FF4000313E0006008DF04FA2D080010308A00A3
:102004000408840A820700340034003400340034A5
:10201400C434FF347F343F348034EF34FF34BE346F
:102024009034E134A9343E34EC3482347634BE3412
:102034008234AD342B343E340E343C34C334BD349A
:102044008734D13413343D3441347834D334BB34FD
:1024540064008001840A04060319003404062B2A4C
:1024640059344734BC34333496340034053400349E
:1024740073347F347534393483160317900003138F
:10248400981C452A462A412A8316031710088312EA
:102494000313990008007E088A007F0882000A1648
:1024A4008A114D220A168A118000840A04087D06C6
:1024B40003190034FF0A0319FE0A512A831603176D
:1024C40011089300100892000310930C920C03104F
:1024D400930C920C120883120313950083160317AE
:1024E400100803399200920E8312031317088316FF
:1024F40003171206CF39120683120313970008003C
:10250400803083120313E8066C08AD006B08AC003E
:102514006A08AB006908AA006808B1006708B0003F
:102524006608AF006508AE000A128A15D8220A169A
:102534008A11831203132D08E8002C08E7002B08E6
:10254400E6002A08E5000800F800F401F501700827
:10255400F200F3017208F6007308F700781CB32A3E
:10256400B42ABA2A7608F4070318F50A7708F50797
:1025740001300310F60DF70DFF3E031DBB2A0310B7
:10258400F80C7808031DC72AC82AB02A7508F10078
:102594007408F00008008316031714031504031DC0
:1025A400D42AD52ADF2A5E309000003091000A1622
:1025B4008A1160220A168A11E82A1F30900000301E
:1025C40091000A168A1160220A168A1183160317CB
:1025D40035081506031DF02A340814060319F32AD6
:1025E400F42A062B1508B5001408B40014081504C1
:1025F4000319FD2AFF2A0130002B00309A3E0A16E7
:102604008A113E220A168A110800831603179200C3
:102614002C2B831603130F088F3940388F00422B5D
:10262400831603130F088F3950388F00422B8316FB
:1026340003130F088F3960388F00422B70308316D4
:1026440003138F04422B831603130F088F3960384A
:102654008F00422B1208900091011108003A0319CF
:10266400342B252B1008013A03190B2B033A0319B9
:10267400122B063A0319192B0C3A0319202B252B7C
:102684000F140800831603179200602B831603139C
:1026940007158312031397013F3097051708F03984
:1026A4000C389700702B83160313871483120313BB
:1026B4009D011D08F0390C389D00702B1208900004
:1026C40091011108003A0319682B702B1008013A84
:1026D4000319482B033A0319552B702B033083122B
:1026E40003139204FF30831603139200831203131F
:1026F4008C1012158C1C7F2B802B7C2B8C1083163A
:102704000313071108000A168A110B240A168A11EA
:1027140001300A128A15AC200A168A118316031393
:102724005B08831603179300831603135A08831652
:102734000317920083160313590883160317910095
:102744008316031358088316031790000A168A1178
:10275400D4250A168A118316031711089C00100841
:102764009B000A128A11C8270A168A1183160317B6
:102774003B0895003A0894000A168A11CD220A16DD
:102784008A118A2B0A128A111228F501F60170089F
:1027940071040319CE2BCF2B062CF701F70ADD2B7E
:1027A40001300310F00DF10DFF3E031DD32B01305A
:1027B400F4007408F707F11FE02BE12BD22B013052
:1027C4000310F50DF60DFF3E031DE22B7108730295
:1027D400031DEE2B70087202031CF12BF22BF92B54
:1027E4007008F2027108031CF303F302751401303C
:1027F4000310F10CF00CFF3E031DFA2B0130F7021D
:10280400031D052C062CE12B7608F1007508F00059
:10281400080001300A168A1107230A168A110130AA
:102824008316031788008901831603130514061001
:1028340083120313061083160313861483120313DF
:1028440086108316031381130230950001300A1693
:102854008A1144230A168A11003083160317A10033
:102864000030A00025309F0080309E000A168A1197
:1028740067250A168A118316031790019101003007
:102884000A168A1150260A168A1183160313880120
:102894008312031388018B170B178B1583160313ED
:1028A40096140B10080000307005F8000030710514
:1028B400F90080307205FA007F307305FB007B0855
:1028C4007A0479047804031D682C692C712C003077
:1028D400F3000030F2000030F1000030F00000306E
:1028E4007405F80000307505F90080307605FA00AB
:1028F4007F307705FB007B087A0479047804031D94
:10290400842C852C8D2C0030F7000030F60000302C
:10291400F5000030F40077087306031D9B2C76083D
:102924007206031D9B2C75087106031D9B2C7408ED
:10293400700603199E2C9F2CA12C0310A22C0314A7
:102944000800831203132308F3002208F20021086D
:10295400F1002008F0000030F7000030F6000030ED
:10296400F5000030F4000A168A1155240A168A115B
:10297400031CBD2CBE2CCF2C83120313240884000B
:1029840083138001840A80010030A3000030A20078
:102994000030A1000030A000FE2C83120313230892
:1029A4007F39FC00FD010310FC0DFD0D240884009B
:1029B4007C0883138000840A7D088000220D220D88
:1029C4000139FC00FD01240884007C088004840A89
:1029D4007D0880042408840082308007840F000866
:1029E4000318000AFF00FF307F07800084032308D8
:1029F40080393F38A300A213080000308316031760
:102A04009C0000309B0000309A00003099001308AD
:102A14001204110410040319102D112D5E2D9D01B3
:102A24009D0A212D013098000310900D910D920DF7
:102A3400930D980B162D0130980018089D07931FCD
:102A4400242D252D142D013098000310990D9A0D75
:102A54009B0D9C0D980B272D13081702031D3C2D6D
:102A640012081602031D3C2D11081502031D3C2DEE
:102A740010081402031C3F2D402D4F2D1008940202
:102A84001108031C110F95021208031C120F960261
:102A94001308031C130F9702191401300310930C2D
:102AA400920C910C900CFF3E031D502D01309D02A1
:102AB400031D5D2D5E2D252D1C0893001B0892001F
:102AC4001A089100190890000800831603131815BA
:102AD400831603178715831603139A0183160317A6
:102AE4001E08A2001F08A3002008A4002108A500B6
:102AF40002300310A20DA30DA40DA50DFF3E031D6E
:102B04007B2D2508930024089200230891002208B5
:102B140090001E08A6001F08A7002008A80021088E
:102B2400A90002300310A60DA70DA80DA90DFF3EA4
:102B3400031D942D4030AA004230AB000F30AC008E
:102B44000030AD002608AA022708031C270FAB2D6E
:102B5400AC2DAB022808031C280FB12DB22DAC02FA
:102B64002908031C290FB72DB82DAD022D08970095
:102B74002C0896002B0895002A0894000A168A113E
:102B8400FF240A168A1183160317100883160313E9
:102B9400990018128312031398178316031318133A
:102BA40098160800031083160317120D130D9400D2
:102BB40014089A001A08031DE02DE12DEA2D0030B7
:102BC40093000030920000309100003090004F2EAE
:102BD4001008940011089500120896001308970035
:102BE4001F300310970C960C950C940CFF3E031D9C
:102BF400F32D14089800180899009217FF309005D7
:102C0400FF309105FF3092050030930596309A020B
:102C14009A1F0D2E0E2E282E1A08803A973E03185E
:102C2400142E152E162EE12D01300310930C920C48
:102C3400910C900CFF3E031D172E013094001408D4
:102C44009A07031D262E272E162E3F2E20301A02F9
:102C5400031C2D2E2E2E3A2EE12D0130940003104C
:102C6400900D910D920D930D940B312E01309A021B
:102C74001A08031D3E2E3F2E2F2E19080319432E2A
:102C8400442E4F2E9009910992099309900A031931
:102C9400910A0319920A0319930A08008316031769
:102CA4009400732E3F30831203139F05952E8312D5
:102CB40003131F083F3940389F00952E83120313D6
:102CC4001F083F3980389F00952EC03083120313AC
:102CD4009F04952E831203131F083F3940389F0029
:102CE400952E1408920093011308003A03197B2EC1
:102CF4006C2E1208003A0319542E013A0319592E66
:102D0400033A0319602E013A0319672E6C2E8316B9
:102D140003131F12B32E831603131F16B32E831629
:102D240003131F12B32E8316031710089200930186
:102D34001308003A03199F2E912E1208003A031922
:102D4400892E013A03198D2E912E831603139F1297
:102D5400C52E831603139F16C52E831603139F12C5
:102D6400C52E831603171108920093011308003A25
:102D74000319BD2EAF2E1208003A0319A72E013AEB
:102D84000319AB2EAF2E9F17831203131F14831640
:102D940003130C17831203130C1308000310831678
:102DA40003132F0D300DB100310883120313EE000D
:102DB4006E08031DDE2EDF2EEA2E00308316031369
:102DC400B0000030AF000030AE000030AD00612F25
:102DD400831603132D08B1002E08B2002F08B30088
:102DE4003008B4001F300310B40CB30CB20CB10C97
:102DF400FF3E031DF52E3108B50035088312031379
:102E0400ED0083160313AF17FF30AD05FF30AE0599
:102E1400FF30AF050030B005963083120313EE0285
:102E2400EE1F152F162F342F6E08803A973E031885
:102E34001C2F1D2F1E2FDF2E0130031083160313AA
:102E4400B00CAF0CAE0CAD0CFF3E031D1F2F0130B8
:102E5400B100310883120313EE07031D322F332F01
:102E64001E2F4F2F20306E02031C392F3A2F4A2F6A
:102E7400DF2E013083160313B1000310AD0DAE0D28
:102E8400AF0DB00DB10B3F2F013083120313EE02CF
:102E94006E08031D4E2F4F2F3B2F6D080319532F20
:102EA400542F612F83160313AD09AE09AF09B0097E
:102EB400AD0A0319AE0A0319AF0A0319B00A0800D0
:102EC400831203135D08DF0001300310DF0DFF3EA2
:102ED400031D672F03105F0D5C0784000A168A1117
:102EE40000200A168A11E0000A168A1100200A1628
:102EF4008A11E1000A168A1100200A168A11E200DA
:102F04000A168A1100200A168A11E3006308E700F2
:102F14006208E6006108E5006008E400F12FFF3074
:102F2400DD070318DE0AFF30DE075D08DF0001302D
:102F34000310DF0DFF3E031D9A2F03105F0D5C0786
:102F440084000A168A1100200A168A11E0000A1663
:102F54008A1100200A168A11E1000A168A1100203B
:102F64000A168A11E2000A168A1100200A168A112A
:102F7400E3006308AD006208AC006108AB006008C0
:102F8400AA006708C1006608C0006508BF0064089D
:102F9400BE005B08C5005A08C4005908C30058089D
:102FA400C2000A128A1141200A168A1183120313DD
:102FB4004108B1004008B0003F08AF003E08AE0031
:102FC4000A128A15D8220A168A11831203132D08AD
:102FD400E7002C08E6002B08E5002A08E4005D0859
:102FE4005E04031DF62FF72F912F6708DB00660898
:0C2FF400DA006508D9006408D800080065
:08400000FF3FFF3FFF3FFF3FC0
:04400E00D420FF3E7D
:00000001FF
