:060000000A128A11122809
:10000800FE00030E83160313C4000408C5000A0883
:10001800C6007F08C7000A128A11AF2B0A128A117C
:1000280015288317BE30FD001F30FE006430FF0026
:10003800B23084000A168A159C270A128A11831383
:10004800F030FD001F30FE007030FF00E430840007
:100058000A168A159C270A128A1183160317BE01ED
:10006800BF01C001C101C201C301C401C501C6016C
:1000780083160313D801D901DA01DB01DC01DD01A4
:10008800DE01DF01E001E101E201E30183010A167B
:100098008A11DA2A8312031341088039C6004608F8
:1000A800CB004108C6004607C7004708D100C01F5B
:1000B8005E285F28602851145108031964286528B0
:1000C8007428510A031D69286A2872280030C10063
:1000D8000030C0000030BF000030BE00C0177C28D0
:1000E8000030C1000030C0000030BF000030BE004A
:1000F80045088039C6004608CB064508C6004607AD
:10010800C7004708D000C41F8A288B288C285014A1
:100118005008031990289128A028500A031D9528F3
:1001280096289E280030C5000030C4000030C30067
:100138000030C200C417A8280030C5000030C40031
:100148000030C3000030C20050080319AC28AD28A5
:10015800B2285108031DB128B228BB280030C100BD
:100168000030C0000030BF000030BE00AE2B3E089B
:10017800C6004608F00044080A168A1170200A12C0
:100188008A11710883120313D7007008D600560825
:10019800C600C701C801C9014908CF004808CE00F8
:1001A8004708CD004608CC005708C600C701C8015B
:1001B800C9014908D5004808D4004708D3004608B3
:1001C800D2003F08C6004608F00043080A168A1104
:1001D80070200A128A11710883120313D70070085D
:1001E800D6005608C600C701C801C9014608CC0791
:1001F800470803110318013E03190329CD074808CE
:1002080003110318013E03190A29CE0749080311EF
:100218000318013E03191129CF075708C600C70163
:10022800C801C9014608D207470803110318013E4F
:1002380003191F29D307480803110318013E03199E
:100248002629D407490803110318013E03192D294B
:10025800D5074008C6004608F00042080A168A1169
:1002680070200A128A11710883120313D7007008CC
:10027800D6005608C600C701C801C9014608CC0700
:10028800470803110318013E03194B29CD074808F5
:1002980003110318013E03195229CE074908031117
:1002A8000318013E03195929CF075708C600C7018B
:1002B800C801C9014608D207470803110318013EBF
:1002C80003196729D307480803110318013E0319C6
:1002D8006E29D407490803110318013E031975292B
:1002E800D5070830C6000310CC0DCD0DCE0DCF0DAF
:1002F800C60B77293F08C6004608F00042080A16D0
:100308008A1170200A128A11710883120313D70008
:100318007008D6005608C6005708C700C801C901AA
:100328004608CC07470803110318013E03199D2905
:10033800CD07480803110318013E0319A429CE0765
:10034800490803110318013E0319AB29CF073E08DA
:10035800C6004608F00043080A168A1170200A12DF
:100368008A11710883120313D7007008D600560843
:10037800C6005708C700C801C9014608CC07470886
:1003880003110318013E0319CA29CD0748080311B0
:100398000318013E0319D129CE0749080311031890
:1003A800013E0319D829CF070830C6000310CC0D29
:1003B800CD0DCE0DCF0DC60BDA293E08C600460876
:1003C800F00042080A168A1170200A128A11710870
:1003D80083120313D7007008D6005608C6005708C2
:1003E800C700C801C9014608CC074708031103180C
:1003F800013E0319002ACD07480803110318013EDE
:100408000319072ACE07490803110318013E0319E7
:100418000E2ACF073F08C6004608F00044080A160F
:100428008A1170200A128A11710883120313D700E7
:100438007008D6005608C6005708C700C801C90189
:100448004608D207470803110318013E03192D2A4D
:10045800D307480803110318013E0319342AD407A7
:10046800490803110318013E03193B2AD507400820
:10047800C6004608F00043080A168A1170200A12BE
:100488008A11710883120313D7007008D600560822
:10049800C6005708C700C801C9014608D20747085F
:1004A80003110318013E03195A2AD30748080311F8
:1004B8000318013E0319612AD407490803110318D8
:1004C800013E0319682AD5074008C6004608F0000F
:1004D80044080A168A1170200A128A1171088312B8
:1004E8000313D7007008D6005608C6005708C7007F
:1004F800C801C90108300310C60DC70DC80DC90DC4
:10050800FF3E031D7F2A4608D20747080311031838
:10051800013E0319902AD307480803110318013E26
:100528000319972AD407490803110318013E031930
:100538009E2AD5074C08C6004D08C7004E08C800BB
:100548004F08C90018300310C90CC80CC70CC60CDA
:10055800FF3E031DA72A4608D207470803110318C0
:10056800013E0319B82AD307480803110318013EAE
:100578000319BF2AD407490803110318013E0319B8
:10058800C62AD5070830C6000310CC0DCD0DCE0DF8
:10059800CF0DC60BC82A51085007C600C701C70DA2
:1005A8004608823ED60047080318013EFF3ED700A2
:1005B800FA2A0130C6000310D20DD30DD40DD50D83
:1005C800C60BDF2ACF1FE92AEA2AEB2A5214013088
:1005D800C6000310CC0DCD0DCE0DCF0DC60BED2AE8
:1005E800FF30D6070318D70AFF30D707D41FFD2AD4
:1005F800FE2ADD2AD001CF1F022B032B1F2BFF3031
:100608004C05C600FF304D05C700FF304E05C80039
:100618007F304F05C90049084804470446040319B8
:10062800162B172B1A2BD001D00A1F2B521C1D2B4F
:100638001E2B1F2B172B50080319232B242B552B4C
:100648000130D207003003180130D30700300318F7
:100658000130D407003003180130D507551C352B5D
:10066800362B552B5208C6005308C7005408C8003B
:100678005508C9000130CA00490DC90CC80CC70C7F
:10068800C60CCA0B402B4908D5004808D4004708B7
:10069800D3004608D2000130D6070318D70A003025
:1006A800D7075708803AFF0080307F02031D5E2B72
:1006B800FF305602031C612B622B6D2B7F30831297
:1006C8000313D5008030D4000030D3000030D200AE
:1006D800A22B831203135708803AFF0080307F0251
:1006E800031D782B0130560203187B2B7C2B882B9B
:1006F800003083120313D5000030D4000030D3003B
:100708000030D200CB01A22B831203135608C60077
:100718004608D100FF30D205FF30D3057F30D4051D
:100728000030D505511C992B9A2B9B2BD4175108B7
:10073800C6000310460CC7004708D5004B08C60082
:100748004608D5045508C1005408C0005308BF0026
:100758005208BE0008000B1DB22BB32BC32B03108D
:1007680083120313881C0314003003180130831606
:100778000317BB000A168A1531270A128A110B1CA7
:10078800C62BC72B042C831203138618CC2BCD2B16
:10079800D42B013083160317C2000030C300DC2BB2
:1007A800861CD72BD82BDC2B83160317C201C30159
:1007B800831203130619E12BE22BE92B8316031787
:1007C800BA01BA0A831203130815861BEC2BED2B0A
:1007D800F32B83160317BA018312031308110B10A6
:1007E800061DF72BF82B042C861FFB2BFC2B042C47
:1007F800053083160313C000400883160317BA0098
:10080800831203130C1F092C0A2CE32E1F0C8316CA
:100818000313C000400C0F39003A031D142C152C8B
:10082800E02E0A128A1500200A128A11710883160E
:100838000313B7007008B6000030B800B9008A305A
:10084800BA000230BB00C930BC00FF30BD007D30AB
:10085800BE000030BF000A128A159C200A128A11B5
:10086800831603133708E3003608E2006B08831287
:100878000313C100831603136A0883120313C0000D
:1008880083160313690883120313BF008316031327
:10089800680883120313BE00BF30AD008030AC007F
:1008A8000030AB000030AA00FF30F2000330F30044
:1008B800831603136308F1006208F0000A168A1110
:1008C800EC210A128A11700883160313C0007108FC
:1008D800C100C201C3014308FC004208FB004108F3
:1008E800FA004008F90000300A128A1555210A1248
:1008F8008A117C0883120313B1007B08B0007A08C0
:10090800AF007908AE000A128A15D8220A128A1195
:10091800831203132D08C5002C08C4002B08C3003C
:100928002A08C2000A128A114E200A128A1183125A
:100938000313410883160313DB00831203134008D3
:1009480083160313DA00831203133F088316031375
:10095800D900831203133E0883160313D8005B08DB
:1009680083120313EB00831603135A08831203132D
:10097800EA0083160313590883120313E900831648
:100988000313580883120313E8000A128A11F02689
:100998000A128A11831203136B0883160313DF00EC
:1009A800831203136A0883160313DE0083120313EA
:1009B800690883160313DD0083120313680883167E
:1009C8000313DC0083160317350883120313C500CD
:1009D80083160317340883120313C40083160317FE
:1009E800330883120313C3008316031732088312D4
:1009F8000313C200831603135F0883120313C10095
:100A0800831603135E0883120313C00083160313AF
:100A18005D0883120313BF00831603135C08831257
:100A28000313BE000A128A114E200A128A11831279
:100A38000313410883160313CB00831203134008E2
:100A480083160313CA00831203133F088316031384
:100A5800C900831203133E0883160313C8004B080A
:100A680083120313C500831603134A088312031362
:100A7800C40083160313490883120313C3008316A3
:100A88000313480883120313C200831603135F0875
:100A980083120313C100831603135E088312031322
:100AA800C000831603135D0883120313BF00831667
:100AB80003135C0883120313BE000A128A114E2026
:100AC8000A128A1183120313410883160313CF00F5
:100AD80083120313400883160313CE0083120313F3
:100AE8003F0883160313CD00831203133E088316B1
:100AF8000313CC006F0883120313C5008316031376
:100B08006E0883120313C400831603136D0883123F
:100B18000313C300831603136C0883120313C20064
:100B2800831603135F0883120313C100831603138C
:100B38005E0883120313C000831603135D08831233
:100B48000313BF00831603135C0883120313BE004C
:100B58000A128A114E200A128A11831203134108BD
:100B6800B1004008B0003F08AF003E08AE00831651
:100B78000313670883120313AD0083160313660873
:100B880083120313AC00831603136508831203133F
:100B9800AB0083160313640883120313AA000A1216
:100BA8008A15D8220A128A11831203132D08831674
:100BB8000313D300831203132C0883160313D200E4
:100BC800831203132B0883160313D1008312031314
:100BD8002A0883160313D0003F3083120313DF0063
:100BE8008030DE000030DD000030DC0083160313A7
:100BF800530883120313B100831603135208831298
:100C08000313B00083160313510883120313AF00B4
:100C180083160313500883120313AE0083160313BD
:100C28004F0883120313C500831603134E0883125B
:100C38000313C400831603134D0883120313C30060
:100C4800831603134C0883120313C200831603137D
:100C58005F0883120313C100831603135E0883120F
:100C68000313C000831603135D0883120313BF0028
:100C7800831603135C0883120313BE000A128A1139
:100C88004E200A128A11831203134108AD0040084E
:100C9800AC003F08AB003E08AA000A128A15D82209
:100CA8000A128A11831203132D08DB002C08DA00BC
:100CB8002B08D9002A08D8000A128A1560250A12BA
:100CC8008A11831203135B0883160313D700831258
:100CD80003135A0883160313D60083120313590803
:100CE80083160313D50083120313580883160313BE
:100CF800D400433083120313EC008830EB009330A8
:100D0800EA003330E90083160313570883120313EC
:100D1800E80083160313560883120313E7008316AB
:100D28000313550883120313E600831603135408AC
:100D380083120313E5000A168A114C200A128A113D
:100D480083120313680883160313B0008312031376
:100D5800670883160313AF0083120313660883160C
:100D68000313AE0083120313650883160313AD0043
:100D78000A128A150A200A128A11831603132D08EB
:100D8800C000C101C201C3014308FC004208FB00C6
:100D98004108FA004008F90000300A128A15552166
:100DA8000A128A117C0883160317C1007B08C00049
:100DB8007A08BF007908BE00831203130C13831648
:100DC80003134708FF0046088A0045088400440EBC
:100DD8008300FE0E7E0E0900831203136B08F300D6
:100DE8006A08F2006908F1006808F0000030F700AE
:100DF8000030F6000030F5000030F4000A168A11C1
:100E0800A7260A128A1103180A2F0B2F1C2F21302C
:100E180083160313E0000030E1000030831203134F
:100E2800EB000030EA000030E9000030E800FF2F56
:100E3800831203136B08F3006A08F2006908F100D3
:100E48006808F0000030F7000030F6000030F500C8
:100E58000030F4000A168A1130220A128A11031C83
:100E6800362F372F482F223083160313E000003027
:100E7800E100003083120313EB000030EA00003079
:100E8800E9000030E800FF2FBF3083120313AD00E4
:100E98008030AC000030AB000030AA004030C10008
:100EA8000030C0000030BF000030BE006D30EC00E4
:100EB8006C08A4006B08A3006A08A2006908A100D6
:100EC8006808A0000A168A117E220A128A11831263
:100ED80003132308C5002208C4002108C300200802
:100EE800C2000A128A114E200A128A1183120313B1
:100EF8004108B1004008B0003F08AF003E08AE000E
:100F08000A128A15D8220A128A11831203132D088D
:100F1800EB002C08EA002B08E9002A08E800FF305B
:100F2800ED070318EE0AFF30EE076B08DB006A08CE
:100F3800DA006908D9006808D8000130EC006C08AC
:100F4800DC000830DD000030DE000A168A110926B0
:100F58000A128A11831203135B08EB005A08EA008D
:100F68005908E9005808E8006B08AD006A08AC00A9
:100F78006908AB006808AA003F30C1003130C000E2
:100F88007230BF001830BE006D08F9006E08FA0014
:100F98000030FA1BFF30FB00FC0001300A128A15F2
:100FA80055210A128A117C0883120313C5007B0895
:100FB800C4007A08C3007908C2000A128A114E20B8
:100FC8000A128A11831203134108B1004008B000C5
:100FD8003F08AF003E08AE000A128A15D8220A124E
:100FE8008A11831203132D08EB002C08EA002B0842
:100FF800E9002A08E8000800831203130C131E08EE
:10100800F100831603131E08F0000800031083166E
:1010180003132F0D300DB100310883120313EE00B6
:101028006E08031D18281928242800308316031376
:10103800B0000030AF000030AE000030AD009B289B
:10104800831603132D08B1002E08B2002F08B30031
:101058003008B4001F300310B40CB30CB20CB10C40
:10106800FF3E031D2F283108B500350883120313EE
:10107800ED0083160313AF17FF30AD05FF30AE0543
:10108800FF30AF050030B005963083120313EE022F
:10109800EE1F4F2850286E286E08803A973E031896
:1010A8005628572858281928013003108316031387
:1010B800B00CAF0CAE0CAD0CFF3E031D592801302F
:1010C800B100310883120313EE07031D6C286D2845
:1010D8005828892820306E02031C73287428842815
:1010E8001928013083160313B1000310AD0DAE0D9E
:1010F800AF0DB00DB10B7928013083120313EE0246
:101108006E08031D8828892875286D0803198D28FD
:101118008E289B2883160313AD09AE09AF09B009C1
:10112800AD0A0319AE0A0319AF0A0319B00A080079
:10113800831603133C08F9003D08FA000030FA1B37
:10114800FF30FB00FC0001300A128A1555210A12F3
:101158008A157C0883120313B1007B08B0007A0853
:10116800AF007908AE00831603133C083E02F9006D
:101178003D08031C3D0A3F02FA00FB01FA1BFB0372
:101188007B08FC0001300A128A1555210A128A15BB
:101198007C0883120313DF007B08DE007A08DD0079
:1011A8007908DC008316031338083A02F900390875
:1011B800031C390A3B02FA00FB01FC0100300A1249
:1011C8008A1555210A128A157C0883120313DB003D
:1011D8007B08DA007A08D9007908D8000A128A153B
:1011E80060250A128A15831203135B08C5005A0882
:1011F800C4005908C3005808C200831603133808EE
:101208003602F9003908031C390A3702FA00FB01D3
:10121800FC0100300A128A1555210A128A157C0829
:1012280083120313C1007B08C0007A08BF00790845
:10123800BE000A128A114E200A128A15831203135D
:101248004108AD004008AC003F08AB003E08AA00CA
:101258000A128A15D8220A128A15831203132D0836
:1012680083160313B000831203132C088316031389
:10127800AF00831203132B0883160313AE008312E7
:1012880003132A0883160313AD000A128A150A20CD
:101298000A128A15831603132E08B7002D08B60004
:1012A800080083120313A400240803195C295D298C
:1012B8007129FC1F6029612971297909A6007A0919
:1012C800A7007B09A8007C09A900A60A0319A70A98
:1012D8000319A80A0319A90A79297C08A9007B0817
:1012E800A8007A08A7007908A6007C087B047A047D
:1012F8007904031D802981298A290030FC000030E7
:10130800FB000030FA000030F900102A9630A000E7
:101318002008A5009C290130A0002008A50701305D
:101328000310A90CA80CA70CA60CFF3E031D9429BA
:10133800FE302905031DA129A2298F29BE290130C4
:10134800A0002008A5070130A607003003180130C7
:10135800A707003003180130A80700300318013030
:10136800A90701300310A90CA80CA70CA60CFF3E76
:10137800031DB629FF302905031DC329C429A32944
:10138800D0290130A5020130A0000310A60DA70D39
:10139800A80DA90DA00BC929A81BD329D429DA297E
:1013A800023025020318D929DA29C5292518DD298B
:1013B800DE29E629FF30A605FF30A7057F30A805FE
:1013C800FF30A9050310A50C2508A000A101A20162
:1013D800A30118300310A00DA10DA20DA30DFF3E0F
:1013E800031DEE292008A6042108A7042208A80442
:1013F8002308A90424080319022A032A082AFC1F1F
:10140800062A072A082AA9172908FC002808FB0029
:101418002708FA002608F90008000A168A15462740
:101428000A128A15D03083160317900000309100F5
:101438000A168A1558270A128A15003083160317C8
:10144800900091000A168A1558270A128A150A165A
:101458008A153D270A128A15D13083160317900082
:10146800003091000A168A1558270A128A15013089
:10147800831603179000003091000A168A11C620BF
:101488000A128A1501308316031790000030910064
:101498000A168A11C6200A128A158316031710081D
:1014A8000A168A15C2270A128A1583160317980086
:1014B8001808C5000030900091000A168A11C6204D
:1014C8000A128A158316031710080A168A15C227E6
:1014D8000A128A158316031798001808C4000A16FA
:1014E8008A154F270A128A158316031745083D06E1
:1014F80003197F2A802A8A2A450898001808BD00FF
:1015080045080A168A1589270A128A1583160317A9
:1015180044083C060319912A922A9D2A44089800F7
:101528001808BC004408E03E0A168A1589270A12E2
:101538008A15831603174508031DA32AA42AC82A57
:10154800093046020318A92AAA2AC82A0130980095
:101558001808C607031083120313081F031403187F
:10156800B62ABA2A831203130817BD2A8312031353
:10157800081304308316031799003D309800980B20
:10158800C32A990BC32AD72A45080319CC2ACD2A7E
:10159800D42A83120313081383160317C601D72A04
:1015A8008312031308130800831203132D088039CC
:1015B800B2003208BA002D08B2003207B30033086F
:1015C800BC00AC1FE82AE92AEA2A3C143C080319A3
:1015D800EE2AEF2AFF2A3C0A031DF32AF42AFC2AE2
:1015E8000030AD000030AC000030AB000030AA0085
:1015F800AC17AD01072B0030AD000030AC00003057
:10160800AB000030AA0031088039B2003208BB00B4
:101618003B083A060319112B122B132B3A173108E2
:10162800B2003207B3003308BB00B01F1C2B1D2BC0
:101638001E2B3B143B080319222B232B332B3B0A6D
:10164800031D272B282B302B0030B1000030B000B1
:101658000030AF000030AE00B017B1013B2B0030B6
:10166800B1000030B0000030AF000030AE003C08E0
:101678003B020318402B412B852B3A1F442B452B4B
:10168800492B8030B2003208BA063C08B200320852
:10169800BD003B08B2003208BC003D08B200320869
:1016A800BB002A08B2003208BD002E08B20032087A
:1016B800AA003D08B2003208AE002B08B20032087A
:1016C800BD002F08B2003208AB003D08B200320856
:1016D800AF002C08B2003208BD003008B200320852
:1016E800AC003D08B2003208B0002D08B200320844
:1016F800BD003108B2003208AD003D08B200320822
:10170800B100BD013B08B200B3013308B5003C0885
:101718003202B400031CB5033508803AFF0080305C
:101728007F02031D992B1A303402031C9C2B9D2B1E
:10173800DA2B831203132D082C042B042A04031D0F
:10174800A62BA82B0130A92B0030B2003208BD000F
:101758000030AD000030AC000030AB000030AA0013
:101768003B08B2003208BC00E22B3D1CBC2BBD2B51
:10177800C62B3D08B2000310320C0138B300330801
:10178800BD00C82B0310BD0C2A1CCB2BCC2BCD2B9A
:10179800BD170130B2002D0DAD0CAC0CAB0CAA0C72
:1017A800B20BCF2B0130B2003208BC0783120313EF
:1017B8003B083C02031CE12BE22BB92B3A1BE52B1F
:1017C800E62B312C3C08031DEA2BEB2BF42B0030C5
:1017D800AD000030AC000030AB000030AA005F2D37
:1017E8002E08AA072F0803110318013E0319FD2B21
:1017F800AB07300803110318013E0319042CAC078A
:10180800310803110318013E03190B2CAD072D1CD9
:101818000E2C0F2CE52C3D1C122C132C1C2C3D08D7
:10182800B2000310320C0138B3003308BD001E2C7F
:101838000310BD0C2A1C212C222C232CBD1701308F
:10184800B2002D0DAD0CAC0CAB0CAA0CB20B252CB8
:101858000130B2003208BC07E52C2D08803AFF00A1
:101868003108803A7F02031D432C30082C02031DE7
:10187800432C2F082B02031D432C2E082A02031881
:10188800462C472C9F2CFF30B200FF30B300FF30AE
:10189800B400FF30B5002E08B6002F08B700300896
:1018A800B8003108B9002A08B6022B08031C2B0F10
:1018B8005E2C5F2CB7022C08031C2C0F642C652CA3
:1018C800B8022D08031C2D0F6A2C6B2CB9023608A0
:1018D800B20737080318370F722C732CB307380870
:1018E8000318380F782C792CB40739080318390AEB
:1018F800B5073508AD003408AC003308AB00320832
:10190800AA008030B2003208BA06BD09BD0A3D08F7
:10191800031D8F2C902CAD2C0130AA070030031822
:101928000130AB07003003180130AC070030031852
:101938000130AD07AD2C2E08AA022F08031C2F0F6B
:10194800AB023008031C300FAC023108031C310F06
:10195800AD022D082C042B042A04031DB42CB52C2D
:10196800E12C3D08031DB92CBA2CE12C0030AD0048
:101978000030AC000030AB000030AA005F2D013011
:10198800B2000310AA0DAB0DAC0DAD0DB20BC52CFA
:10199800BD1FCF2CD02CD12C2A143D1CD42CD52CD7
:1019A800D82C0314BD0DDA2C0310BD0D3C08031907
:1019B800DE2CDF2CE12C0130BC02AC1FE42CE52C22
:1019C800C32CBB01BD1FE92CEA2CF82C3D087F393C
:1019D8000319EF2CF02CF32CBB01BB0AF82C2A1CA2
:1019E800F62CF72CF82CF02C3B080319FC2CFD2CBA
:1019F800312D0130AA07003003180130AB07003041
:101A080003180130AC07003003180130AD072D1C56
:101A18000E2D0F2D312D2A08B2002B08B3002C08EB
:101A2800B4002D08B5000130B600350DB50CB40C66
:101A3800B30CB20CB60B192D3508AD003408AC0048
:101A48003308AB003208AA003C0A03192C2D2D2DAF
:101A5800312D0130B2003208BC073C0A0319352D7C
:101A6800362D3B2D3C08031D3A2D3B2D492D0030CA
:101A7800AD000030AC000030AB000030AA003C08DC
:101A8800031D472D482D492DBA013C1C4C2D4D2DC9
:101A98004F2DAC17532D7F30B2003208AC053C08EF
:101AA800B2000310320CB3003308AD00BA1F5D2D2D
:101AB8005E2D5F2DAD170800831203135F08803970
:101AC800E000600883160313A400831203135F0861
:101AD800E0006007E100610883160313AB0083127E
:101AE8000313DE1F782D792D7C2D831603132B14F9
:101AF800831603132B080319822D832D962D2B0A89
:101B0800031D872D882D922D003083120313DF00CB
:101B18000030DE000030DD000030DC008312DE170C
:101B2800DF01A02D003083120313DF000030DE0038
:101B38000030DD000030DC005B088039E000600820
:101B480083160313A406831203135B08E0006007DF
:101B5800E100610883160313AC0083120313DA1F34
:101B6800B62DB72DBA2D831603132C148316031321
:101B78002C080319C02DC12DD42D2C0A031DC52DE9
:101B8800C62DD02D003083120313DB000030DA009D
:101B98000030D9000030D8008312DA17DB01DE2DBF
:101BA800003083120313DB000030DA000030D90064
:101BB8000030D8005B085A0459045804031DE52D69
:101BC800E62D032E0030DF000030DE000030DD009F
:101BD8000030DC008030DE047F30DF04831603131E
:101BE800240883120313E0006008DF045F08DB00A9
:101BF8005E08DA005D08D9005C08D800FF2F83165C
:101C080003132B08031D092E0A2E152E00308312EC
:101C18000313DB000030DA000030D9000030D800B0
:101C2800FF2F2B0883120313E000E1016108E30092
:101C3800831603132C08831203136002E200031CAB
:101C4800E30362087F3E83160313A5008312031380
:101C580063080318013E003E83160313A60083128F
:101C680003135F0883160313A300831203135E088C
:101C780083160313A200831203135D08831603134C
:101C8800A100831203135C0883160313A00000301D
:101C980083120313DF000030DE000030DD00003067
:101CA800DC00003083160313AA000030A9000030BE
:101CB800A8000030A700AC01E72E2C080319652EF8
:101CC800662E952E013083120313E000031083164D
:101CD8000313A00DA10DA20DA30D83120313E00B96
:101CE8006A2E0130E0000310DC0DDD0DDE0DDF0D86
:101CF800E00B772E83160313AA1F832E842E872EBC
:101D0800831203135C1401308312E000031083165E
:101D18000313A70DA80DA90DAA0D83120313E00B39
:101D28008A2E83125B08831603132302031DB22E27
:101D3800831203135A08831603132202031DB22EBB
:101D4800831203135908831603132102031DB22EAD
:101D5800831203135808831603132002031CB52E9D
:101D6800B62EDF2E2A17831203135808831603137F
:101D7800A002831203135908031C590FC42EC72E3F
:101D880083160313A102831203135A08031C5A0F64
:101D9800CE2ED12E83160313A202831203135B08DF
:101DA800031C5B0FD82EDB2E83160313A3028312AA
:101DB800031383160313013083120313E000600832
:101DC80083160313AC071A302C02031CEC2EED2EDD
:101DD800612E23082204210420040319F42EF52E71
:101DE8001F2F27141F2F0130E0000310DC0DDD0D1D
:101DF800DE0DDF0DE00BF92E83160313AA1F052F46
:101E0800062F092F831203135C1401308312E0009C
:101E1800031083160313A70DA80DA90DAA0D83128D
:101E28000313E00B0C2FFF3083160313A5070318C9
:101E3800A60AFF30A60783120313DE1F242F252FBF
:101E4800F72E83160313AC01AA1F2B2F2C2F582F04
:101E5800FF30270583120313E000FF3083160313B6
:101E6800280583120313E100FF30831603132905A5
:101E780083120313E2007F30831603132A058312AB
:101E88000313E300630862046104600403194D2F1F
:101E98004E2F532F83160313AC01AC0A582F5C1C2A
:101EA800562F572F582F4E2F831603132C0803191C
:101EB8005E2F5F2F942F013083120313DC0700304D
:101EC80003180130DD07003003180130DE07003049
:101ED80003180130DF075F1C722F732F942F5C08E3
:101EE800E0005D08E1005E08E2005F08E300013001
:101EF800E400630DE30CE20CE10CE00CE40B7D2F35
:101F08006308DF006208DE006108DD006008DC00AD
:101F1800013083160313A5070318A60A0030A60785
:101F2800831603132608803AFF0080307F02031DC2
:101F38009F2FFF302502031CA22FA32FB32FFF30A2
:101F480083160313A5000030A60000308312031384
:101F5800DF000030DE000030DD000030DC008316DA
:101F680003132608803AFF0080307F02031DBE2F2E
:101F7800013025020318C12FC22FD32F8316031354
:101F8800A501A601003083120313DF000030DE0034
:101F98000030DD000030DC0083160313A401831633
:101FA8000313250883120313E00060088316031344
:101FB800AB002B1CE02FE12FE52F83120313DE1754
:101FC800EB2F7F3083120313E0006008DE058316D1
:101FD80003132B0883120313E0000310600CE100C5
:101FE8006108DF0083160313240883120313E0003B
:101FF8006008DF04FA2D080010308A000408840AFB
:10200800820700340034003400340034C434FF3410
:102018007F343F348034EF34FF34BE349034E134BD
:10202800A9343E34EC3482347634BE348234AD3450
:102038002B343E340E343C34C334BD348734D1346D
:1020480013343D3441347834D334BB348316031706
:1020580011089300100892000310930C920C0310BF
:10206800930C920C1208831203139500831603171E
:10207800100803399200920E83120313170883166F
:1020880003171206CF3912068312031397000800AC
:10209800803083120313E8066C08AD006B08AC00AF
:1020A8006A08AB006908AA006808B1006708B000B0
:1020B8006608AF006508AE000A128A15D8220A160B
:1020C8008A11831203132D08E8002C08E7002B0857
:1020D800E6002A08E5000800F800F401F501700898
:1020E800F200F3017208F6007308F700781C7D28E7
:1020F8007E2884287608F4070318F50A7708F50778
:1021080001300310F60DF70DFF3E031D852803105F
:10211800F80C7808031D912892287A287508F10090
:102128007408F0000800831603171C08803AFF00A3
:1021380080307F02031DA22816301B02031CA5282D
:10214800A628AA28831203130614AD2883120313A2
:1021580006108316031737081C06031DB528360812
:102168001B060319B828B928C5281C08B7001B087E
:10217800B6001B081F39A03E0A168A1589270A16B9
:102188008A1108000A168A157C270A168A118316EE
:10219800031391150A168A157C270A168A118312C9
:1021A800031313088316031792009301120894006F
:1021B800130895000A168A157C270A168A118316B1
:1021C800031710031104031DEA28EB28EF288316D0
:1021D80003139112F228831603139116111683160E
:1021E80003171508910014089000080083160317B8
:1021F80014031504031D012902290C295E309000DF
:10220800003091000A168A112A200A168A11152907
:102218001F309000003091000A168A112A200A16F1
:102228008A118316031739081506031D1D29380856
:10223800140603192029212933291508B90014087F
:10224800B8001408150403192A292C2901302D294E
:102258000030803E0A168A1589270A168A11080056
:1022680028308312031394008316031391018316F5
:1022780003171E08A2001F08A3002008A4002108B5
:10228800A50002300310A20DA30DA40DA50DFF3E5D
:10229800031D46292508930024089200230891006D
:1022A80022089000003097000F30960042309500C9
:1022B800403094000A168A113A230A168A118316A6
:1022C80003171008FF3E8316031393009401871524
:1022D8000716080083160317920093298316031321
:1022E8000F088F3940388F00A929831603130F0868
:1022F8008F3950388F00A929831603130F088F3997
:1023080060388F00A9297030831603138F04A92918
:10231800831603130F088F3960388F00A929120814
:10232800900091011108003A03199B298C29100883
:10233800013A03197229033A03197929063A03194C
:1023480080290C3A031987298C290F140800831651
:1023580003179200C7298316031307158312031363
:1023680097013F3097051708F0390C389700D7299F
:10237800831603138714831203139D011D08F03974
:102388000C389D00D7291208900091011108003AD5
:102398000319CF29D7291008013A0319AF29033A9D
:1023A8000319BC29D7290330831203139204FF3081
:1023B800831603139200831203138C1012158C1CBE
:1023C800E629E729E3298C1083160313071108006F
:1023D800F501F601700871040319F329F4292B2A71
:1023E800F701F70A022A01300310F00DF10DFF3E44
:1023F800031DF8290130F4007408F707F11F052AB6
:10240800062AF72901300310F50DF60DFF3E031DCE
:10241800072A71087302031D132A70087202031C2D
:10242800162A172A1E2A7008F2027108031CF303E1
:10243800F302751401300310F10CF00CFF3E031D7C
:102448001F2A0130F702031D2A2A2B2A062A76089A
:10245800F1007508F000080000307005F800003041
:102468007105F90080307205FA007F307305FB00B2
:102478007B087A0479047804031D432A442A4C2AE9
:102488000030F3000030F2000030F1000030F000BE
:1024980000307405F80000307505F90080307605C5
:1024A800FA007F307705FB007B087A04790478040A
:1024B800031D5F2A602A682A0030F7000030F60002
:1024C8000030F5000030F40077087306031D762A03
:1024D80076087206031D762A75087106031D762A8A
:1024E800740870060319792A7A2A7C2A03107D2A2F
:1024F80003140800831203132308F3002208F200D0
:102508002108F1002008F0000030F7000030F60044
:102518000030F5000030F4000A168A1130220A163D
:102528008A11031C982A992AAA2A831203132408B9
:10253800840083138001840A80010030A3000030E6
:10254800A2000030A1000030A000D92A8312031392
:1025580023087F39FC00FD010310FC0DFD0D240844
:1025680084007C0883138000840A7D088000220D83
:10257800220D0139FC00FD01240884007C08800438
:10258800840A7D0880042408840082308007840F30
:1025980000080318000AFF00FF307F07800084034B
:1025A800230880393F38A300A21308000A168A11AD
:1025B8008B240A168A11831603173A080139AE00CC
:1025C800AE0DAE0D831203130808831603172E06EB
:1025D800FB392E06831203138800831603173A0863
:1025E800AE00AF012E0890002F0891003B08B00004
:1025F800B10130089200310893000A168A15DE27C7
:102608000A168A1101300A168A1149270A168A11F0
:102618008316031741089300400892003F08910071
:102628003E0890000A168A110F240A168A1183168A
:10263800031711089C0010089B000A168A1197209E
:102648000A168A1183160317430895004208940056
:102658000A168A11FA200A168A110A128A151122F4
:102668000A168A11DF2A0A128A11122800308316E4
:1026780003179C0000309B0000309A00003099003E
:10268800130812041104100403194B2B4C2B992B1B
:102698009D019D0A5C2B013098000310900D910D4F
:1026A800920D930D980B512B0130980018089D0737
:1026B800931F5F2B602B4F2B013098000310990D4F
:1026C8009A0D9B0D9C0D980B622B13081702031D86
:1026D800772B12081602031D772B11081502031D0C
:1026E800772B10081402031C7A2B7B2B8A2B1008DB
:1026F80094021108031C110F95021208031C120FF3
:1027080096021308031C130F9702191401300310C3
:10271800930C920C910C900CFF3E031D8B2B0130F7
:102728009D02031D982B992B602B1C0893001B08F6
:1027380092001A08910019089000080083160313E4
:102748001815831603178715831603139A01831622
:1027580003171E08A2001F08A3002008A4002108D0
:10276800A50002300310A20DA30DA40DA50DFF3E78
:10277800031DB62B25089300240892002308910016
:10278800220890001E08A6001F08A7002008A8001D
:102798002108A90002300310A60DA70DA80DA90D48
:1027A800FF3E031DCF2B4030AA004230AB000F3054
:1027B800AC000030AD002608AA022708031C270F2A
:1027C800E62BE72BAB022808031C280FEC2BED2B7C
:1027D800AC022908031C290FF22BF32BAD022D089C
:1027E80097002C0896002B0895002A0894000A16D2
:1027F8008A113A230A168A118316031710088316BA
:1028080003139900181283120313981783160313DE
:10281800181398160800031083160317120D130DCA
:10282800940014089A001A08031D1B2C1C2C252C34
:10283800003093000030920000309100003090008A
:102848008A2C1008940011089500120896001308A5
:1028580097001F300310970C960C950C940CFF3EB4
:10286800031D2E2C14089800180899009217FF30A1
:102878009005FF309105FF309205003093059630A2
:102888009A029A1F482C492C632C1A08803A973EC2
:1028980003184F2C502C512C1C2C01300310930C76
:1028A800920C910C900CFF3E031D522C01309400A9
:1028B80014089A07031D612C622C512C7A2C2030A5
:1028C8001A02031C682C692C752C1C2C01309400EE
:1028D8000310900D910D920D930D940B6C2C0130FB
:1028E8009A021A08031D792C7A2C6A2C19080319E4
:1028F8007E2C7F2C8A2C9009910992099309900AC1
:102908000319910A0319920A0319930A080001305E
:102918000A168A116E210A168A11013083160317C6
:102928008800890183160313051406108312031304
:102938000610831603138614831203138610831656
:102948000313061583120313061183160313861740
:10295800831203138613831603138113863095009D
:102968008810831203138810831603130811831227
:102978000313081183160313081383120313081390
:1029880001300A168A11AB210A168A110030831603
:102998000317A1000030A00025309F0080309E0062
:1029A8000A168A11A2230A168A11831603179001A0
:1029B800910100300A168A1107250A168A1110306B
:1029C8000A168A1187250A168A110A168A153727C0
:1029D8000A168A11003083160317A1000130A000DF
:1029E80086309F00A0309E000A168A1134210A16EC
:1029F8008A118B170B178B1583160313961416154C
:102A080096170B1008008316031794002A2D3F30E1
:102A1800831203139F054C2D831203131F083F399C
:102A280040389F004C2D831203131F083F3980380C
:102A38009F004C2DC030831203139F044C2D83122A
:102A480003131F083F3940389F004C2D140892008B
:102A580093011308003A0319322D232D1208003A66
:102A680003190B2D013A0319102D033A0319172DD9
:102A7800013A03191E2D232D831603131F126A2DE5
:102A8800831603131F166A2D831603131F126A2D4C
:102A9800831603171008920093011308003A0319CC
:102AA800562D482D1208003A0319402D013A0319F2
:102AB800442D482D831603139F127C2D8316031370
:102AC8009F167C2D831603139F127C2D83160317E4
:102AD8001108920093011308003A0319742D662D0A
:102AE8001208003A03195E2D013A0319622D662D6A
:102AF8009F17831203131F14831603130C178312D3
:102B080003130C130800831603179200831603138C
:102B180081128316031712080319932D942D982DEB
:102B2800831603138111DF2D1208031D9C2D9D2D83
:102B3800DF2D831603138115DF2DF8308316031359
:102B48008105062EF830831603138105062E831699
:102B580003130108F83901388100062E8316031380
:102B68000108F83902388100062E8316031301087C
:102B7800F83903388100062E831603130108F83943
:102B880004388100062E831603130108F839053826
:102B98008100062E831603130108F83906388100D0
:102BA800062E0730831603138104062EF830831689
:102BB80003138105062E831603171208900091014E
:102BC8001108003A0319E92DDA2D1008003A031903
:102BD800A12D023A0319A62D063A0319AB2D0C3A7A
:102BE8000319B22D183A0319B92D303A0319C02D1B
:102BF800603A0319C72DC03A0319CE2D7F3A03193D
:102C0800D52DDA2D8B160B110800831203135D08DE
:102C1800DF0001300310DF0DFF3E031D0E2E0310F1
:102C28005F0D5C0784000A168A1100200A168A11B3
:102C3800E0000A168A1100200A168A11E1000A1615
:102C48008A1100200A168A11E2000A168A11002049
:102C58000A168A11E3006308E7006208E6006108C3
:102C6800E5006008E400982EFF30DD070318DE0A4F
:102C7800FF30DE075D08DF0001300310DF0DFF3E87
:102C8800031D412E03105F0D5C0784000A168A118C
:102C980000200A168A11E0000A168A1100200A1676
:102CA8008A11E1000A168A1100200A168A11E20028
:102CB8000A168A1100200A168A11E3006308AD007B
:102CC8006208AC006108AB006008AA006708C10090
:102CD8006608C0006508BF006408BE005B08C50040
:102CE8005A08C4005908C3005808C2000A128A11B9
:102CF8004E200A168A11831203134108B1004008B6
:102D0800B0003F08AF003E08AE000A128A15D8226C
:102D18000A168A11831203132D08E7002C08E6000F
:102D28002B08E5002A08E4005D085E04031D9D2EBB
:102D38009E2E382E6708DB006608DA006508D90081
:102D48006408D800080000307005F80000307105EC
:102D5800F90080307205FA007F307305FB007B08AC
:102D68007A0479047804031DBA2EBB2EC32E0030D2
:102D7800F3000030F2000030F1000030F0000030C5
:102D88007405F80000307505F90080307605FA0002
:102D98007F307705FB007B087A0479047804031DEB
:102DA800D62ED72EDF2E0030F7000030F600003088
:102DB800F5000030F400F31FE22EE32E072F003059
:102DC800F8000030F9000030FA008030FB0070088D
:102DD800F8027108031C710FF22EF32EF902720823
:102DE800031C720FF82EF92EFA027308031C730FD6
:102DF800FE2EFF2EFB027B08F3007A08F20079080A
:102E0800F1007808F000F71F0A2F0B2F2F2F003042
:102E1800F8000030F9000030FA008030FB00740838
:102E2800F8027508031C750F1A2F1B2FF902760874
:102E3800031C760F202F212FFA027708031C770F27
:102E4800262F272FFB027B08F7007A08F60079085F
:102E5800F5007808F4008030F3068030F70677082C
:102E68007302031D412F76087202031D412F750856
:102E78007102031D412F740870020318442F452F57
:102E8800472F0310482F03140800831603179200D6
:102E9800EC2F831203139F18522F532FFF2FC33089
:102EA8009F050230831603179000900B592F0000DE
:102EB800831203139F14FF2F831203139F18652F88
:102EC800662FFF2F1F0C831603179000100C0F3965
:102ED800003A031D702F712F7F2F831203131F08D1
:102EE800C33904389F000230831603179000900BF3
:102EF8007B2F0000912F831203131F0C83160317D7
:102F08009000100C0F39013A031D8B2F8C2F912F35
:102F1800C330831203139F05772F023083160317DC
:102F28009000900B952F0000831203139F14FF2F1E
:102F3800831203139F18A12FA22FFF2F1F0C831694
:102F480003179000100C0F39003A031DAC2FAD2F5A
:102F5800BB2F831203131F08C33904389F000230A4
:102F6800831603179000900BB72F0000E12F8312F0
:102F780003131F0C831603179000100C0F39013A26
:102F8800031DC72FC82FCF2F831203131F08C33960
:102F980008389F00B32F831203131F0C83160317DF
:102FA8009000100C0F39023A031DDB2FDC2FE12FA4
:102FB800C330831203139F05B32F02308316031700
:102FC8009000900BE52F0000831203139F14FF2F2E
:102FD8001208900091011108003A0319F42FFF2FED
:102FE8001008013A03194D2F033A0319602F013ACB
:082FF80003199C2FFF2F0800B4
:103E6200B2308312031381000B110800B2308312A7
:103E7200031381000B1108000A168A157C270A1603
:103E82008A1583160313911408000A168A157C27D3
:103E92000A168A1583160313111408000A168A15C6
:103EA2007C270A168A1583160313111508000A16B1
:103EB2008A157C270A168A1583160317100883129F
:103EC20003139300080059344734BC343334963416
:103ED200003405340034053401341E343D34EB34EF
:103EE200FF3493343A34003440341C34463473344F
:103EF2007F3475343934831603131419812F822FBA
:103F02007C2F11081F39031D872F882F7C2F080053
:103F12008316031790000313981C902F912F8C2F58
:103F220083160317100883120313990008007E08F2
:103F32008A007F0882000A168A1598270A168A15AF
:103F42008000840A04087D0603190034FF0A03195D
:103F5200FE0A9C2F8316031793009201131CB22FA3
:103F6200B32FB72F10089100110892070310900D7C
:103F72000310930C1308031DBF2FC02FAF2F12087D
:103F820008008316031797000F30170594000A30B4
:103F92009500150890001708960004300310960C3F
:103FA200FF3E031DCF2F16080A168A15AB270A16E5
:103FB2008A158316031714070800831603171003C4
:103FC2001104031DE52FE62FEE2F120C83120313AB
:103FD200031C881003188814FF2F10081104031DF6
:103FE200F32FF42FFC2F120C83120313031C8810DF
:103FF20003188814FF2F8312031388100800FF3F51
:06400200FF3FFF3FFF3FFE
:04400E00D420FF3E7D
:00000001FF
