:060000000A128A11122809
:10000800FE00030E83160313C4000408C5000A0883
:10001800C6007F08C7000A128A11A82B0A128A1183
:1000280015288317EF30FD001B30FE008430FF00D9
:10003800E13084000A168A15A5230A128A1183134F
:10004800F030FD001B30FE006B30FF00E430840010
:100058000A168A15A5230A128A118317D03084003C
:10006800E1300A168A1532230A128A118313D8300E
:100078008400E4300A168A1532230A128A11830191
:100088000A168A15292F8312031341088039C600DE
:100098004608CB004108C6004607C7004708D100FC
:1000A800C01F5728582859285114510803195D288A
:1000B8005E286D28510A031D622863286B280030CA
:1000C800C1000030C0000030BF000030BE00C017C3
:1000D80075280030C1000030C0000030BF0000307B
:1000E800BE0045088039C6004608CB064508C6004C
:1000F8004607C7004708D000C41F832884288528DE
:1001080050145008031989288A289928500A031D71
:100118008E288F2897280030C5000030C400003092
:10012800C3000030C200C417A1280030C500003049
:10013800C4000030C3000030C20050080319A528CD
:10014800A628AB285108031DAA28AB28B4280030DC
:10015800C1000030C0000030BF000030BE00A72B37
:100168003E08C6004608F00044080A168A154F24BF
:100178000A128A11710883120313D7007008D60077
:100188005608C600C701C801C9014908CF00480878
:10019800CE004708CD004608CC005708C600C70166
:1001A800C801C9014908D5004808D4004708D30048
:1001B8004608D2003F08C6004608F00043080A1661
:1001C8008A154F240A128A11710883120313D70063
:1001D8007008D6005608C600C701C801C9014608FC
:1001E800CC07470803110318013E0319FC28CD0763
:1001F800480803110318013E03190329CE074908CB
:1002080003110318013E03190A29CF075708C6002E
:10021800C701C801C9014608D207470803110318D6
:10022800013E03191829D307480803110318013E92
:1002380003191F29D407490803110318013E03199C
:100248002629D5074008C6004608F00042080A16C5
:100258008A154F240A128A11710883120313D700D2
:100268007008D6005608C600C701C801C90146086B
:10027800CC07470803110318013E03194429CD0789
:10028800480803110318013E03194B29CE074908F2
:1002980003110318013E03195229CF075708C60056
:1002A800C701C801C9014608D20747080311031846
:1002B800013E03196029D307480803110318013EBA
:1002C80003196729D407490803110318013E0319C4
:1002D8006E29D5070830C6000310CC0DCD0DCE0D04
:1002E800CF0DC60B70293F08C6004608F00042082B
:1002F8000A168A154F240A128A11710883120313E9
:10030800D7007008D6005608C6005708C700C801AD
:10031800C9014608CC07470803110318013E031911
:100328009629CD07480803110318013E03199D2992
:10033800CE07490803110318013E0319A429CF0762
:100348003E08C6004608F00043080A168A154F24DE
:100358000A128A11710883120313D7007008D60095
:100368005608C6005708C700C801C9014608CC0787
:10037800470803110318013E0319C329CD0748088C
:1003880003110318013E0319CA29CE0749080311AE
:100398000318013E0319D129CF070830C6000310FE
:1003A800CC0DCD0DCE0DCF0DC60BD3293E08C60002
:1003B8004608F00042080A168A154F240A128A11C4
:1003C800710883120313D7007008D6005608C600B8
:1003D8005708C700C801C9014608CC0747080311D8
:1003E8000318013E0319F929CD074808031103181A
:1003F800013E0319002ACE07490803110318013EDC
:100408000319072ACF073F08C6004608F00044082A
:100418000A168A154F240A128A11710883120313C7
:10042800D7007008D6005608C6005708C700C8018C
:10043800C9014608D207470803110318013E0319EA
:10044800262AD307480803110318013E03192D2A49
:10045800D407490803110318013E0319342AD507A4
:100468004008C6004608F00043080A168A154F24BB
:100478000A128A11710883120313D7007008D60074
:100488005608C6005708C700C801C9014608D20760
:10049800470803110318013E0319532AD3074808D4
:1004A80003110318013E03195A2AD40749080311F6
:1004B8000318013E0319612AD5074008C6004608FB
:1004C800F00044080A168A154F240A128A11710886
:1004D80083120313D7007008D6005608C6005708C1
:1004E800C700C801C90108300310C60DC70DC80DE3
:1004F800C90DFF3E031D782A4608D2074708031195
:100508000318013E0319892AD30748080311031861
:10051800013E0319902AD407490803110318013E24
:100528000319972AD5074C08C6004D08C7004E087E
:10053800C8004F08C90018300310C90CC80CC70CF4
:10054800C60CFF3E031DA02A4608D2074708031120
:100558000318013E0319B12AD307480803110318E9
:10056800013E0319B82AD407490803110318013EAC
:100578000319BF2AD5070830C6000310CC0DCD0DCE
:10058800CE0DCF0DC60BC12A51085007C600C701B2
:10059800C70D4608823ED60047080318013EFF3EB5
:1005A800D700F32A0130C6000310D20DD30DD40DA5
:1005B800D50DC60BD82ACF1FE22AE32AE42A521403
:1005C8000130C6000310CC0DCD0DCE0DCF0DC60BDE
:1005D800E62AFF30D6070318D70AFF30D707D41FFB
:1005E800F62AF72AD62AD001CF1FFB2AFC2A182B75
:1005F800FF304C05C600FF304D05C700FF304E05E3
:10060800C8007F304F05C90049084804470446041C
:1006180003190F2B102B132BD001D00A182B521CA7
:10062800162B172B182B102B500803191C2B1D2BBE
:100638004E2B0130D207003003180130D3070030A9
:1006480003180130D407003003180130D507551CB2
:100658002E2B2F2B4E2B5208C6005308C7005408C8
:10066800C8005508C9000130CA00490DC90CC80C9A
:10067800C70CC60CCA0B392B4908D5004808D4004A
:100688004708D3004608D2000130D6070318D70A16
:100698000030D7075708803AFF0080307F02031DDB
:1006A800572BFF305602031C5A2B5B2B662B7F30CF
:1006B80083120313D5008030D4000030D3000030FB
:1006C800D2009B2B831203135708803AFF00803017
:1006D8007F02031D712B013056020318742B752BF2
:1006E800812B003083120313D5000030D400003072
:1006F800D3000030D200CB019B2B83120313560882
:10070800C6004608D100FF30D205FF30D3057F3040
:10071800D4050030D505511C922B932B942BD4175C
:100728005108C6000310460CC7004708D5004B08FF
:10073800C6004608D5045508C1005408C00053082F
:10074800BF005208BE0008000B1DAB2BAC2BBC2B06
:10075800031083120313881C03140030031801309C
:1007680083160317EC000A168A152C230A128A111D
:100778000B1CBF2BC02BFD2B831203138618C52B14
:10078800C62BCD2B013083160317D8000030D900B3
:10079800D52B861CD02BD12BD52B83160317D8012C
:1007A800D901831203130619DA2BDB2BE22B8316EC
:1007B8000317EB01EB0A831203130815861BE52BBD
:1007C800E62BEC2B83160317EB0183120313081196
:1007D800061DEF2BF02BFC2B861FF32BF42BFC2B89
:1007E800053083160313C000400883160317EB0077
:1007F8000B10831203130C1F022C032CDC2E1F0C6E
:1008080083160313C000400C0F39003A031D0D2C4A
:100818000E2CD92E0A168A1555230A128A11710828
:1008280083160313B7007008B6000030B800B9008B
:100838008A30BA000230BB00C930BC00FF30BD00AE
:100848007D30BE000030BF000A168A11E7240A1264
:100858008A11831603133708E3003608E2006B0891
:1008680083120313C100831603136A088312031348
:10087800C00083160313690883120313BF0083168D
:100888000313680883120313BE00BF30AD00803025
:10089800AC000030AB000030AA00FF30F20003309B
:1008A800F300831603136308F1006208F0000A16C8
:1008B8008A1591250A128A11700883160313C0003D
:1008C8007108C100C201C3014308FC004208FB00D3
:1008D8004108FA004008F90000300A168A11A025DC
:1008E8000A128A117C0883120313B1007B08B00036
:1008F8007A08AF007908AE000A128A153A200A125F
:100908008A11831203132D08C5002C08C4002B0874
:10091800C3002A08C2000A128A1147200A128A1143
:1009280083120313410883160313DB008312031396
:10093800400883160313DA00831203133F08831653
:100948000313D900831203133E0883160313D80038
:100958005B0883120313EB00831603135A088312F0
:100968000313EA0083160313590883120313E900DB
:1009780083160313580883120313E8000A128A1116
:10098800E9260A128A11831203136B0883160313CC
:10099800DF00831203136A0883160313DE00831231
:1009A8000313690883160313DD0083120313680811
:1009B80083160313DC0083160317640883120313DA
:1009C800C50083160317630883120313C400831634
:1009D8000317620883120313C30083160317610801
:1009E80083120313C200831603135F0883120313D1
:1009F800C100831603135E0883120313C000831615
:100A080003135D0883120313BF00831603135C08E6
:100A180083120313BE000A128A1147200A128A1190
:100A280083120313410883160313CB0083120313A5
:100A3800400883160313CA00831203133F08831662
:100A48000313C900831203133E0883160313C80057
:100A58004B0883120313C500831603134A08831235
:100A68000313C40083160313490883120313C30036
:100A780083160313480883120313C2008316031353
:100A88005F0883120313C100831603135E088312E1
:100A98000313C000831603135D0883120313BF00FA
:100AA800831603135C0883120313BE000A128A110B
:100AB80047200A128A11831203134108831603136D
:100AC800CF0083120313400883160313CE0083124A
:100AD80003133F0883160313CD00831203133E0844
:100AE80083160313CC006F0883120313C500831603
:100AF80003136E0883120313C400831603136D08CF
:100B080083120313C300831603136C0883120313A1
:100B1800C200831603135F0883120313C1008316F0
:100B280003135E0883120313C000831603135D08C2
:100B380083120313BF00831603135C088312031385
:100B4800BE000A128A1147200A128A11831203135F
:100B58004108B1004008B0003F08AF003E08AE00B1
:100B680083160313670883120313AD008316031358
:100B7800660883120313AC008316031365088312F7
:100B88000313AB0083160313640883120313AA002C
:100B98000A128A153A200A128A11831203132D08A1
:100BA80083160313D300831203132C08831603132D
:100BB800D200831203132B0883160313D100831268
:100BC80003132A0883160313D0003F30831203133C
:100BD800DF008030DE000030DD000030DC008316EE
:100BE8000313530883120313B10083160313520827
:100BF80083120313B00083160313510883120313DF
:100C0800AF0083160313500883120313AE00831634
:100C180003134F0883120313C500831603134E08EA
:100C280083120313C400831603134D08831203139E
:100C3800C300831603134C0883120313C2008316E0
:100C480003135F0883120313C100831603135E089E
:100C580083120313C000831603135D088312031362
:100C6800BF00831603135C0883120313BE000A1225
:100C78008A1147200A128A11831203134108AD0012
:100C88004008AC003F08AB003E08AA000A128A15CB
:100C98003A200A128A11831203132D08DB002C084C
:100CA800DA002B08D9002A08D8000A128A1560250C
:100CB8000A128A11831203135B0883160313D700E1
:100CC800831203135A0883160313D60083120313DF
:100CD800590883160313D500831203135808831683
:100CE8000313D400433083120313EC008830EB0065
:100CF8009330EA003330E900831603135708831250
:100D08000313E80083160313560883120313E7003E
:100D180083160313550883120313E600831603137F
:100D2800540883120313E5000A168A152B240A12A5
:100D38008A1183120313680883160313B000831201
:100D48000313670883160313AF008312031366089F
:100D580083160313AE008312031365088316031367
:100D6800AD000A168A115E220A128A11831603132D
:100D78002D08C000C101C201C3014308FC0042089C
:100D8800FB004108FA004008F90000300A168A11F1
:100D9800A0250A128A117C0883160317D3007B0842
:100DA800D2007A08D1007908D000831203130C13FB
:100DB800831603134708FF0046088A004508840085
:100DC800440E8300FE0E7E0E0900831203136B0887
:100DD800F3006A08F2006908F1006808F0000030C2
:100DE800F7000030F6000030F5000030F4000A1675
:100DF8008A118E230A128A110318032F042F152F24
:100E0800213083160313E0000030E1000030831224
:100E18000313EB000030EA000030E9000030E8007E
:100E2800F82F831203136B08F3006A08F2006908AD
:100E3800F1006808F0000030F7000030F6000030DC
:100E4800F5000030F4000A168A151D260A128A11C8
:100E5800031C2F2F302F412F223083160313E0005D
:100E68000030E100003083120313EB000030EA0089
:100E78000030E9000030E800F82FBF308312031378
:100E8800AD008030AC000030AB000030AA0040302C
:100E9800C1000030C0000030BF000030BE006D301F
:100EA800EC006C08A4006B08A3006A08A20069089B
:100EB800A1006808A0000A168A1102200A128A11E5
:100EC800831203132308C5002208C4002108C300A5
:100ED8002008C2000A128A1147200A128A118312B6
:100EE80003134108B1004008B0003F08AF003E08B6
:100EF800AE000A128A153A200A128A1183120313C5
:100F08002D08EB002C08EA002B08E9002A08E80065
:100F1800FF30ED070318EE0AFF30EE076B08DB0021
:100F28006A08DA006908D9006808D8000130EC00BE
:100F38006C08DC000830DD000030DE000A168A117B
:100F4800F0220A128A11831203135B08EB005A0875
:100F5800EA005908E9005808E8006B08AD006A087B
:100F6800AC006908AB006808AA003F30C100313006
:100F7800C0007230BF001830BE006D08F9006E085E
:100F8800FA000030FA1BFF30FB00FC0001300A16A3
:100F98008A11A0250A128A117C0883120313C5003E
:100FA8007B08C4007A08C3007908C2000A128A11B3
:100FB80047200A128A11831203134108B10040081E
:100FC800B0003F08AF003E08AE000A128A153A206A
:100FD8000A128A11831203132D08EB002C08EA0069
:100FE8002B08E9002A08E8000800B230831203132E
:060FF80081000B1108004E
:10100000283083120313940083160313910183166F
:1010100003171E08A2001F08A3002008A40021082F
:10102000A50002300310A20DA30DA40DA50DFF3ED7
:10103000031D12282508930024089200230891001C
:1010400022089000003097000F3096004230950043
:10105000403094000A168A15C1260A128A15831692
:1010600003171008FF3E831603139300940187159E
:1010700007160800831203132D088039B2003208C6
:10108000BA002D08B2003207B3003308BC00AC1F11
:101090004A284B284C283C143C0803195028512856
:1010A00061283C0A031D552856285E280030AD00F3
:1010B0000030AC000030AB000030AA00AC17AD012E
:1010C00069280030AD000030AC000030AB000030CB
:1010D000AA0031088039B2003208BB003B083A064A
:1010E00003197328742875283A173108B20032079B
:1010F000B3003308BB00B01F7E287F2880283B1434
:101100003B0803198428852895283B0A031D892854
:101110008A2892280030B1000030B0000030AF00C3
:101120000030AE00B017B1019D280030B100003092
:10113000B0000030AF000030AE003C083B020318A6
:10114000A228A328E7283A1FA628A728AB28803082
:10115000B2003208BA063C08B2003208BD003B08B3
:10116000B2003208BC003D08B2003208BB002A08B9
:10117000B2003208BD002E08B2003208AA003D08B5
:10118000B2003208AE002B08B2003208BD002F08B2
:10119000B2003208AB003D08B2003208AF002C08A4
:1011A000B2003208BD003008B2003208AC003D0881
:1011B000B2003208B0002D08B2003208BD0031087C
:1011C000B2003208AD003D08B2003208B100BD01E6
:1011D0003B08B200B3013308B5003C083202B4004A
:1011E000031CB5033508803AFF0080307F02031DE1
:1011F000FB281A303402031CFE28FF283C298312E6
:1012000003132D082C042B042A04031D08290A2982
:1012100001300B290030B2003208BD000030AD00B3
:101220000030AC000030AB000030AA003B08B20038
:101230003208BC0044293D1C1E291F2928293D08CD
:10124000B2000310320C0138B3003308BD002A2964
:101250000310BD0C2A1C2D292E292F29BD17013062
:10126000B2002D0DAD0CAC0CAB0CAA0CB20B31299D
:101270000130B2003208BC07831203133B083C0262
:10128000031C432944291B293A1B47294829932930
:101290003C08031D4C294D2956290030AD00003073
:1012A000AC000030AB000030AA00C12A2E08AA070B
:1012B0002F0803110318013E03195F29AB073008FB
:1012C00003110318013E03196629AC073108031105
:1012D0000318013E03196D29AD072D1C70297129D2
:1012E000472A3D1C742975297E293D08B200031048
:1012F000320C0138B3003308BD0080290310BD0C47
:101300002A1C832984298529BD170130B2002D0D9F
:10131000AD0CAC0CAB0CAA0CB20B87290130B2009F
:101320003208BC07472A2D08803AFF003108803A6E
:101330007F02031DA52930082C02031DA5292F08B3
:101340002B02031DA5292E082A020318A829A92962
:10135000012AFF30B200FF30B300FF30B400FF308D
:10136000B5002E08B6002F08B7003008B8003108C5
:10137000B9002A08B6022B08031C2B0FC029C1296B
:10138000B7022C08031C2C0FC629C729B8022D0848
:10139000031C2D0FCC29CD29B9023608B207370816
:1013A0000318370FD429D529B30738080318380F85
:1013B000DA29DB29B40739080318390AB5073508D3
:1013C000AD003408AC003308AB003208AA0080300E
:1013D000B2003208BA06BD09BD0A3D08031DF12955
:1013E000F2290F2A0130AA07003003180130AB0799
:1013F000003003180130AC07003003180130AD078E
:101400000F2A2E08AA022F08031C2F0FAB02300848
:10141000031C300FAC023108031C310FAD022D0844
:101420002C042B042A04031D162A172A432A3D08DC
:10143000031D1B2A1C2A432A0030AD000030AC00DB
:101440000030AB000030AA00C12A0130B200031006
:10145000AA0DAB0DAC0DAD0DB20B272ABD1F312A65
:10146000322A332A2A143D1C362A372A3A2A0314F0
:10147000BD0D3C2A0310BD0D3C080319402A412A2A
:10148000432A0130BC02AC1F462A472A252ABB0149
:10149000BD1F4B2A4C2A5A2A3D087F390319512A6D
:1014A000522A552ABB01BB0A5A2A2A1C582A592AF1
:1014B0005A2A522A3B0803195E2A5F2A932A0130CE
:1014C000AA07003003180130AB07003003180130C1
:1014D000AC07003003180130AD072D1C702A712AAB
:1014E000932A2A08B2002B08B3002C08B4002D0858
:1014F000B5000130B600350DB50CB40CB30CB20C10
:10150000B60B7B2A3508AD003408AC003308AB00BD
:101510003208AA003C0A03198E2A8F2A932A013026
:10152000B2003208BC073C0A0319972A982A9D2A60
:101530003C08031D9C2A9D2AAB2A0030AD000030D8
:10154000AC000030AB000030AA003C08031DA92A03
:10155000AA2AAB2ABA013C1CAE2AAF2AB12AAC1780
:10156000B52A7F30B2003208AC053C08B200031047
:10157000320CB3003308AD00BA1FBF2AC02AC12AFB
:10158000AD1708001330831603171F022530031907
:101590001E020318CC2ACD2AD62A13302102253068
:1015A00003192002031CD52AD62ADF2A0030A10005
:1015B0000130A00000309F0000309E005F2D003001
:1015C000B9000030B8007530B7001730B6003608E3
:1015D000A2003708A3003808A4003908A500043089
:1015E0000310A20DA30DA40DA50DFF3E031DF02AAF
:1015F0002508B9002408B8002308B7002208B6005F
:101600001E0890001F08910092019301390897006D
:101610003808960037089500360894000A168A158F
:10162000D5250A128A15831603171008A20011087F
:10163000A3001208A4001308A5000A300310A50C8B
:10164000A40CA30CA20CFF3E031D1E2B2508C100F9
:101650002408C0002308BF002208BE002008900014
:1016600021089100920193013908970038089600EB
:1016700037089500360894000A168A15D5250A12EF
:101680008A15831603171008A2001108A300120878
:10169000A4001308A5000A300310A50CA40CA30C89
:1016A000A20CFF3E031D4C2B2508BD002408BC00E6
:1016B0002308BB002208BA000030AD000030AC00A7
:1016C0000030AB000030AA00410840043F043E0453
:1016D00003196B2B6C2B9C2B410893004008920044
:1016E0003F0891003E0890003A08A2003B08A30082
:1016F0003C08A4003D08A5000A300310A20DA30D6C
:10170000A40DA50DFF3E031D7D2B25089700240881
:10171000960023089500220894000A168A15C1260F
:101720000A128A15831603171308AD001208AC00BD
:101730001108AB001008AA000130A2000030A3007D
:101740000030A4000030A5002A08A2072B080318C7
:101750002B0FAB2BAC2BA3072C0803182C0FB12B92
:10176000B22BA4072D0803182D0AA507013003107A
:10177000A50CA40CA30CA20CFF3E031DB72B25083F
:10178000C5002408C4002308C3002208C20045087D
:10179000031DD72B4408031DD72B4308031DD72B4C
:1017A00041304202031DD42B0318D72BD82BE32B37
:1017B000F23083160317B2000130B300BE30B4001C
:1017C0000130B500B62C831603174508031DF52B11
:1017D0004408031DF52B4308031DF52B81304202FD
:1017E000031DF22B0318F52BF62B012C1430831656
:1017F0000317B2000230B300D130B4000230B5009C
:10180000B62C831603174508031D132C4408031D2B
:10181000132C4308031D132CC1304202031D102C4E
:101820000318132C142C1F2C3F3083160317B200FF
:101830000230B3007B30B4000330B500B62C831601
:1018400003174508031D322C4408031D322C0130B8
:101850004302031D2F2C01304202031D2F2C0318BD
:10186000322C332C3E2C703083160317B20002301A
:10187000B300FE30B4000330B500B62C8316031756
:101880004508031D512C4408031D512C013043020F
:10189000031D4E2C39304202031D4E2C0318512CCF
:1018A000522C5D2C6F3083160317B2000130B30049
:1018B000FC30B4000130B500B62C83160317450880
:1018C000031D702C4408031D702C01304302031DBE
:1018D0006D2C9B304202031D6D2C0318702C712C53
:1018E0007C2CD23083160317B2000030B300FB30DB
:1018F000B4000030B500B62C831603174508031D4D
:101900008F2C4408031D8F2C02304302031D8C2CA6
:101910009B304202031D8C2C03188F2C902C9B2C87
:10192000183083160317B2000030B3001230B40031
:101930000030B500B62C831603174508031DAF2CE5
:101940004408031DAF2C02304302031DAB2C9B3017
:101950004202031DAB2C031CAE2CAF2CB62C8316FD
:101960000317B201B301B401B501B62C83160317F6
:1019700032089000330891009201930141089700CA
:10198000400896003F0895003E0894000A168A1504
:10199000D5250A128A15831603171308C1001208E9
:1019A000C0001108BF001008BE00340890003508C0
:1019B0009100920193013D0897003C0896003B0876
:1019C00095003A0894000A168A15D5250A128A1538
:1019D000831603171308BD001208BC001108BB00D2
:1019E0001008BA000030B1000030B0000030AF0085
:1019F0000030AE0041083D02031D082D40083C02A6
:101A0000031D082D3F083B02031D082D3E083A0226
:101A100003180B2D0C2D302D3E08A2003F08A3000B
:101A20004008A4004108A5003A08A2023B08031C94
:101A30003B0F1B2D1C2DA3023C08031C3C0F212D2A
:101A4000222DA4023D08031C3D0F272D282DA502A1
:101A50002508B1002408B0002308AF002208AE001A
:101A60000030AE07203003182130AF0700300318D4
:101A70000130B007003003180130B1072E08A20072
:101A80002F08A3003008A4003108A5000E30031071
:101A9000A50CA40CA30CA20CFF3E031D472D25088A
:101AA000A9002408A8002308A7002208A6002908E6
:101AB000A1002808A00027089F0026089E00080013
:101AC000831203135F088039E00060088316031354
:101AD000A400831203135F08E0006007E1006108BF
:101AE00083160313AB0083120313DE1F782D792DA9
:101AF0007C2D831603132B14831603132B08031951
:101B0000822D832D962D2B0A031D872D882D922D36
:101B1000003083120313DF000030DE000030DD00F0
:101B20000030DC008312DE17DF01A02D00308312AD
:101B30000313DF000030DE000030DD000030DC0089
:101B40005B088039E000600883160313A406831243
:101B500003135B08E0006007E100610883160313CC
:101B6000AC0083120313DA1FB62DB72DBA2D8316DE
:101B700003132C14831603132C080319C02DC12D35
:101B8000D42D2C0A031DC52DC62DD02D0030831257
:101B90000313DB000030DA000030D9000030D80039
:101BA0008312DA17DB01DE2D003083120313DB0012
:101BB0000030DA000030D9000030D8005B085A0449
:101BC00059045804031DE52DE62D032E0030DF00D7
:101BD0000030DE000030DD000030DC008030DE044C
:101BE0007F30DF0483160313240883120313E000FD
:101BF0006008DF045F08DB005E08DA005D08D900DA
:101C00005C08D800FF2F831603132B08031D092E31
:101C10000A2E152E003083120313DB000030DA0089
:101C20000030D9000030D800FF2F2B088312031397
:101C3000E000E1016108E300831603132C0883121E
:101C400003136002E200031CE30362087F3E831675
:101C50000313A5008312031363080318013E003E1B
:101C600083160313A600831203135F08831603135E
:101C7000A300831203135E0883160313A2008312CA
:101C800003135D0883160313A100831203135C087A
:101C900083160313A000003083120313DF0000300B
:101CA000DE000030DD000030DC000030831603135E
:101CB000AA000030A9000030A8000030A700AC0145
:101CC000E72E2C080319652E662E952E01308312FF
:101CD0000313E000031083160313A00DA10DA20D42
:101CE000A30D83120313E00B6A2E0130E0000310F2
:101CF000DC0DDD0DDE0DDF0DE00B772E83160313FB
:101D0000AA1F832E842E872E831203135C140130A6
:101D10008312E000031083160313A70DA80DA90D6D
:101D2000AA0D83120313E00B8A2E83125B0883161D
:101D300003132302031DB22E831203135A088316C2
:101D400003132202031DB22E8312031359088316B4
:101D500003132102031DB22E8312031358088316A6
:101D600003132002031CB52EB62EDF2E2A17831272
:101D70000313580883160313A00283120313590890
:101D8000031C590FC42EC72E83160313A1028312FE
:101D900003135A08031C5A0FCE2ED12E8316031399
:101DA000A202831203135B08031C5B0FD82EDB2EE9
:101DB00083160313A3028312031383160313013044
:101DC00083120313E000600883160313AC071A3074
:101DD0002C02031CEC2EED2E612E2308220421047C
:101DE00020040319F42EF52E1F2F27141F2F013066
:101DF000E0000310DC0DDD0DDE0DDF0DE00BF92E34
:101E000083160313AA1F052F062F092F831203130E
:101E10005C1401308312E000031083160313A70D36
:101E2000A80DA90DAA0D83120313E00B0C2FFF3090
:101E300083160313A5070318A60AFF30A60783120B
:101E40000313DE1F242F252FF72E83160313AC0157
:101E5000AA1F2B2F2C2F582FFF3027058312031377
:101E6000E000FF3083160313280583120313E100FB
:101E7000FF3083160313290583120313E2007F301A
:101E8000831603132A0583120313E3006308620415
:101E90006104600403194D2F4E2F532F8316031333
:101EA000AC01AC0A582F5C1C562F572F582F4E2FC1
:101EB000831603132C0803195E2F5F2F942F013014
:101EC00083120313DC07003003180130DD070030F4
:101ED00003180130DE07003003180130DF075F1CF4
:101EE000722F732F942F5C08E0005D08E1005E08FC
:101EF000E2005F08E3000130E400630DE30CE20C54
:101F0000E10CE00CE40B7D2F6308DF006208DE00CB
:101F10006108DD006008DC00013083160313A507AB
:101F20000318A60A0030A607831603132608803A72
:101F3000FF0080307F02031D9F2FFF302502031C0E
:101F4000A22FA32FB32FFF3083160313A500003059
:101F5000A600003083120313DF000030DE000030E3
:101F6000DD000030DC00831603132608803AFF00F2
:101F700080307F02031DBE2F013025020318C12FC0
:101F8000C22FD32F83160313A501A601003083129D
:101F90000313DF000030DE000030DD000030DC0025
:101FA00083160313A4018316031325088312031356
:101FB000E000600883160313AB002B1CE02FE12F19
:101FC000E52F83120313DE17EB2F7F3083120313E9
:101FD000E0006008DE05831603132B088312031349
:101FE000E0000310600CE1006108DF0083160313BA
:101FF000240883120313E0006008DF04FA2D0800B0
:10200400831203132308F3002208F2002108F100CD
:102014002008F0000030F7000030F6000030F50032
:102024000030F4000A168A151D260A168A11031CAC
:102034001C281D282E2883120313240884008313CC
:102044008001840A80010030A3000030A200003027
:10205400A1000030A0005D288312031323087F39F8
:10206400FC00FD010310FC0DFD0D240884007C0818
:1020740083138000840A7D088000220D220D01391B
:10208400FC00FD01240884007C088004840A7D0887
:1020940080042408840082308007840F0008031819
:1020A400000AFF00FF307F07800084032308803983
:1020B4003F38A300A2130800031083160317120D60
:1020C400130D940014089A001A08031D6A286B283B
:1020D40074280030930000309200003091000030EA
:1020E4009000D92810089400110895001208960051
:1020F400130897001F300310970C960C950C940C42
:10210400FF3E031D7D2814089800180899009217B3
:10211400FF309005FF309105FF30920500309305A4
:1021240096309A029A1F97289828B2281A08803A5B
:10213400973E03189E289F28A0286B28013003107F
:10214400930C920C910C900CFF3E031DA1280130BE
:10215400940014089A07031DB028B128A028C928A0
:1021640020301A02031CB728B828C4286B28013071
:1021740094000310900D910D920D930D940BBB28B8
:1021840001309A021A08031DC828C928B928190859
:102194000319CD28CE28D9289009910992099309C9
:1021A400900A0319910A0319920A0319930A080061
:1021B400831603179400FD283F30831203139F05F1
:1021C4001F29831203131F083F3940389F001F291A
:1021D400831203131F083F3980389F001F29C03022
:1021E400831203139F041F29831203131F083F390B
:1021F40040389F001F291408920093011308003AE5
:1022040003190529F6281208003A0319DE28013AB1
:102214000319E328033A0319EA28013A0319F128B8
:10222400F628831603131F123D29831603131F1662
:102234003D29831603131F123D2983160317100823
:10224400920093011308003A031929291B29120843
:10225400003A03191329013A031917291B29831674
:1022640003139F124F29831603139F164F298316B6
:1022740003139F124F298316031711089200930129
:102284001308003A0319472939291208003A031997
:102294003129013A0319352939299F178312031368
:1022A4001F14831603130C17831203130C13080053
:1022B40083160317920083160313811283160317E0
:1022C40012080319662967296B29831603138111E0
:1022D400B2291208031D6F297029B229831603132A
:1022E4008115B229F830831603138105D929F830F2
:1022F400831603138105D929831603130108F839BA
:1023040001388100D929831603130108F8390238EA
:102314008100D929831603130108F8390338810091
:10232400D929831603130108F83904388100D929FF
:10233400831603130108F83905388100D929831657
:1023440003130108F83906388100D92907308316A8
:1023540003138104D929F830831603138105D9297D
:10236400831603171208900091011108003A03190B
:10237400BC29AD291008003A03197429023A03193B
:102384007929063A03197E290C3A03198529183A42
:1023940003198C29303A03199329603A03199A29AD
:1023A400C03A0319A1297F3A0319A829AD298B162C
:1023B4000B11080001300A168A1513250A168A1112
:1023C400013083160317880089018316031305144B
:1023D40005128312031305128316031306108312C6
:1023E4000313061083160313861483120313861033
:1023F400831603130615831203130611831603139E
:1024040086178312031386138316031381138630EE
:102414009500881083120313881083160313081180
:10242400831203130811831603130813831203136F
:10243400081301300A168A1550250A168A1100302D
:1024440083160317A1000030A00025309F008030C0
:102454009E000A168A1593270A168A1183160317F3
:102464009001910100300A168A11DA200A168A11A5
:1024740010300A168A115A210A168A110A128A1170
:10248400F9270A168A11003083160317A1000130B8
:10249400A00086309F00A0309E000A128A150020FA
:1024A4000A168A118B170B178B15831603139614B0
:1024B400161596170B1008000310831603132F0D1F
:1024C400300DB100310883120313EE006E08031DB2
:1024D4006C2A6D2A782A003083160313B00000306A
:1024E400AF000030AE000030AD00EF2A83160313B6
:1024F4002D08B1002E08B2002F08B3003008B40034
:102504001F300310B40CB30CB20CB10CFF3E031D0E
:10251400832A3108B500350883120313ED008316AE
:102524000313AF17FF30AD05FF30AE05FF30AF0525
:102534000030B005963083120313EE02EE1FA32A77
:10254400A42AC22A6E08803A973E0318AA2AAB2A04
:10255400AC2A6D2A0130031083160313B00CAF0CA0
:10256400AE0CAD0CFF3E031DAD2A0130B1003108A5
:1025740083120313EE07031DC02AC12AAC2ADD2AE5
:1025840020306E02031CC72AC82AD82A6D2A0130BB
:1025940083160313B1000310AD0DAE0DAF0DB00DD6
:1025A400B10BCD2A013083120313EE026E08031D12
:1025B400DC2ADD2AC92A6D080319E12AE22AEF2A56
:1025C40083160313AD09AE09AF09B009AD0A0319A7
:1025D400AE0A0319AF0A0319B00A080083120313E1
:1025E4005D08DF0001300310DF0DFF3E031DF52AF7
:1025F40003105F0D5C0784000A168A1500200A1672
:102604008A11E0000A168A1500200A168A11E100D0
:102614000A168A1500200A168A11E2000A168A157B
:1026240000200A168A11E3006308E7006208E60046
:102634006108E5006008E4007F2BFF30DD07031824
:10264400DE0AFF30DE075D08DF0001300310DF0D16
:10265400FF3E031D282B03105F0D5C0784000A1640
:102664008A1500200A168A11E0000A168A1500202D
:102674000A168A11E1000A168A1500200A168A1120
:10268400E2000A168A1500200A168A11E30063087C
:10269400AD006208AC006108AB006008AA006708DE
:1026A400C1006608C0006508BF006408BE005B087E
:1026B400C5005A08C4005908C3005808C2000A12C9
:1026C4008A1147200A168A11831203134108B100A4
:1026D4004008B0003F08AF003E08AE000A128A1559
:1026E4003A200A168A11831203132D08E7002C08D6
:1026F400E6002B08E5002A08E4005D085E04031DDB
:10270400842B852B1F2B6708DB006608DA0065081D
:10271400D9006408D800080000307005F8000030C3
:102724007105F90080307205FA007F307305FB00F3
:102734007B087A0479047804031DA12BA22BAA2B0D
:102744000030F3000030F2000030F1000030F000FF
:1027540000307405F80000307505F9008030760506
:10276400FA007F307705FB007B087A04790478044B
:10277400031DBD2BBE2BC62B0030F7000030F60026
:102784000030F5000030F400F31FC92BCA2BEE2BE8
:102794000030F8000030F9000030FA008030FB000F
:1027A4007008F8027108031C710FD92BDA2BF90297
:1027B4007208031C720FDF2BE02BFA027308031C50
:1027C400730FE52BE62BFB027B08F3007A08F2007B
:1027D4007908F1007808F000F71FF12BF22B162C82
:1027E4000030F8000030F9000030FA008030FB00BF
:1027F4007408F8027508031C750F012C022CF902E9
:102804007608031C760F072C082CFA027708031CA1
:10281400770F0D2C0E2CFB027B08F7007A08F600CC
:102824007908F5007808F4008030F3068030F70664
:1028340077087302031D282C76087202031D282CC6
:1028440075087102031D282C7408700203182B2CC0
:102854002C2C2E2C03102F2C031408008316031782
:102864009200D32C831203139F18392C3A2CE62C94
:10287400C3309F050230831603179000900B402C41
:102884000000831203139F14E62C831203139F1872
:102894004C2C4D2CE62C1F0C831603179000100CA7
:1028A4000F39003A031D572C582C662C831203133E
:1028B4001F08C33904389F000230831603179000A1
:1028C400900B622C0000782C831203131F0C8316C8
:1028D40003179000100C0F39013A031D722C732C4E
:1028E400782CC330831203139F055E2C02308316A9
:1028F40003179000900B7C2C0000831203139F1489
:10290400E62C831203139F18882C892CE62C1F0CA9
:10291400831603179000100C0F39003A031D932CF3
:10292400942CA22C831203131F08C33904389F006C
:102934000230831603179000900B9E2C0000C82CC5
:10294400831203131F0C831603179000100C0F3906
:10295400013A031DAE2CAF2CB62C831203131F08AF
:10296400C33908389F009A2C831203131F0C831653
:1029740003179000100C0F39023A031DC22CC32C0C
:10298400C82CC330831203139F059A2C023083167C
:1029940003179000900BCC2C0000831203139F1498
:1029A400E62C1208900091011108003A0319DB2C5F
:1029B400E62C1008013A0319342C033A0319472C66
:1029C400013A0319832CE62C0800831603133C08F0
:1029D400F9003D08FA000030FA1BFF30FB00FC0050
:1029E40001300A168A11A0250A168A117C0883125E
:1029F4000313B1007B08B0007A08AF007908AE0079
:102A0400831603133C083E02F9003D08031C3D0AEB
:102A14003F02FA00FB01FA1BFB037B08FC000130B8
:102A24000A168A11A0250A168A117C088312031338
:102A3400DF007B08DE007A08DD007908DC008316FD
:102A4400031338083A02F9003908031C390A3B0217
:102A5400FA00FB01FC0100300A168A11A0250A16AF
:102A64008A117C0883120313DB007B08DA007A08DE
:102A7400D9007908D8000A128A1560250A168A1125
:102A8400831203135B08C5005A08C4005908C30025
:102A94005808C2008316031338083602F9003908AF
:102AA400031C390A3702FA00FB01FC0100300A1644
:102AB4008A11A0250A168A117C0883120313C10007
:102AC4007B08C0007A08BF007908BE000A128A1188
:102AD40047200A168A11831203134108AD004008E7
:102AE400AC003F08AB003E08AA000A128A153A203F
:102AF4000A168A11831203132D0883160313B000D8
:102B0400831203132C0883160313AF0083120313D9
:102B14002B0883160313AE00831203132A088316AB
:102B24000313AD000A168A115E220A168A1183164F
:102B340003132E08B7002D08B600080083120313F0
:102B4400A40024080319A72DA82DBC2DFC1FAB2D10
:102B5400AC2DBC2D7909A6007A09A7007B09A80031
:102B64007C09A900A60A0319A70A0319A80A0319CC
:102B7400A90AC42D7C08A9007B08A8007A08A7002C
:102B84007908A6007C087B047A047904031DCB2D04
:102B9400CC2DD52D0030FC000030FB000030FA00B5
:102BA4000030F9005B2E9630A0002008A500E72D28
:102BB4000130A0002008A50701300310A90CA80CBF
:102BC400A70CA60CFF3E031DDF2DFE302905031DB7
:102BD400EC2DED2DDA2D092E0130A0002008A507DB
:102BE4000130A607003003180130A707003003188E
:102BF4000130A807003003180130A9070130031081
:102C0400A90CA80CA70CA60CFF3E031D012EFF3037
:102C14002905031D0E2E0F2EEE2D1B2E0130A502AD
:102C24000130A0000310A60DA70DA80DA90DA00B3F
:102C3400142EA81B1E2E1F2E252E0230250203182B
:102C4400242E252E102E2518282E292E312EFF3025
:102C5400A605FF30A7057F30A805FF30A90503109E
:102C6400A50C2508A000A101A201A301183003109E
:102C7400A00DA10DA20DA30DFF3E031D392E2008AA
:102C8400A6042108A7042208A8042308A9042408E8
:102C940003194D2E4E2E532EFC1F512E522E532E01
:102CA400A9172908FC002808FB002708FA002608B1
:102CB400F90008000A168A153A230A168A11D03038
:102CC400831603179000003091000A168A155F23BB
:102CD4000A168A11003083160317900091000A1611
:102CE4008A155F230A168A110A168A154C230A16B6
:102CF4008A11D130831603179000003091000A1610
:102D04008A155F230A168A1101308316031790006F
:102D1400003091000A168A15A5240A168A1101307A
:102D2400831603179000003091000A168A15A52413
:102D34000A168A118316031710080A168A15CB235C
:102D44000A168A118316031798001808DF0000304A
:102D5400900091000A168A15A5240A168A11831672
:102D6400031710080A168A15CB230A168A1183162C
:102D7400031798001808DE000A168A1543230A165A
:102D84008A11831603175F086E060319CA2ECB2E09
:102D9400D52E5F0898001808EE005F080A168A15F9
:102DA40092230A168A11831603175E086D06031907
:102DB400DC2EDD2EE82E5E0898001808ED005E0873
:102DC400E03E0A168A1592230A168A1183160317FF
:102DD4005F08031DEE2EEF2E132F09306002031837
:102DE400F42EF52E132F013098001808E007031075
:102DF40083120313081F03140318012F052F8312D2
:102E040003130817082F83120313081304308316BF
:102E1400031799003D309800980B0E2F990B0E2F35
:102E2400222F5F080319172F182F1F2F8312031344
:102E3400081383160317E001222F831203130813C8
:102E440008000A168A153A230A168A117230831664
:102E540003179000003091000A168A155F230A16A2
:102E64008A118C30831603179000003091000A16E3
:102E74008A155F230A168A110A168A154C230A1624
:102E84008A117330831603179000003091000A16DC
:102E94008A155F230A168A110130831603179000DE
:102EA400003091000A168A15A5240A168A11831681
:102EB40003171008C6004608DD00013090000030FA
:102EC40091000A168A15A5240A168A118316031777
:102ED4001008C6004608DC00013090000030910064
:102EE4000A168A15A5240A168A11831603171008D0
:102EF400C6004608DB000030900091000A168A15CF
:102F0400A5240A168A11831603171008C60046085A
:102F1400DA000A168A1543230A168A118316031740
:102F24005C08C600C7014608C700C6015D0846071D
:102F3400D6000030031801304707D7005A08C600EE
:102F4400C7014608C700C6015B084607D400003025
:102F5400031801304707D5005508A1005408A00004
:102F640057089F0056089E000A128A15C2220A16A4
:102F74008A11831603172108CB002008CA001F08F2
:102F8400C9001E08C80000309300003092000030D1
:102F940091000F3090004B0897004A0896004908AA
:102FA4009500480894000A168A15C1260A168A1143
:102FB400831603171008C6004608EA006A08690663
:102FC4000319E52FE62FFF2F6A08C6004608E9001B
:102FD4000A306A02031CEF2FF02FF72FCA300A16AB
:102FE4008A1592230A168A11FF2F6A080F39C03EE8
:102FF4000A168A1592230A168A11080018308A00C4
:103004000408840A82070034003400340034003495
:10301400C434FF347F343F348034EF34FF34BE345F
:103024009034E134A9343E34EC3482347634BE3402
:103034008234AD342B343E340E343C34C334BD348A
:103044008734D13413343D3441347834D334BB34ED
:10365800B2308312031381000B110800640080014B
:10366800840A0406031900340406332B0A168A1543
:1036780077230A168A1583160313111408000A16ED
:103688008A1577230A168A1583160313111508005D
:103698000A168A1577230A168A15831603139114B6
:1036A8000800831203130C131E08F100831603137A
:1036B8001E08F00008000A168A1577230A168A15CC
:1036C8008316031710088312031393000800EB34C2
:1036D800FF3493343A34003440341C344634733461
:1036E8007F34753439348316031314197C2B7D2BDE
:1036F800772B11081F39031D822B832B772B08008A
:1037080059344734BC3433349634003405340034E7
:103718000F340834053401341E343D34831603173E
:1037280090000313981C992B9A2B952B831603173B
:10373800100883120313990008007E088A007F0886
:1037480082000A168A15A1230A168A158000840A9F
:1037580004087D0603190034FF0A0319FE0AA52B85
:103768008316031793009201131CBB2BBC2BC02B91
:1037780010089100110892070310900D0310930C84
:103788001308031DC82BC92BB82B12080800831671
:10379800031797000F30170594000A309500150895
:1037A80090001708960004300310960CFF3E031D86
:1037B800D82B16080A168A15B4230A168A158316F2
:1037C8000317140708008316031710031104031DB9
:1037D800EE2BEF2BF72B120C83120313031C88100C
:1037E80003188814082C10081104031DFC2BFD2B4A
:1037F800052C120C83120313031C88100318881459
:10380800082C831203138810080083160317110865
:103818009300100892000310930C920C0310930C61
:10382800920C1208831203139500831603171008CD
:1038380003399200920E8312031317088316031795
:103848001206CF391206831203139700080080303E
:1038580083120313E8066C08AD006B08AC006A0815
:10386800AB006908AA006808B1006708B0006608DC
:10387800AF006508AE000A128A153A200A168A15A2
:10388800831203132D08E8002C08E7002B08E60034
:103898002A08E5000800F800F401F5017008F200B4
:1038A800F3017208F6007308F700781C5C2C5D2C95
:1038B800632C7608F4070318F50A7708F507013032
:1038C8000310F60DF70DFF3E031D642C0310F80CD2
:1038D8007808031D702C712C592C7508F100740898
:1038E800F0000800831603171C08803AFF00803098
:1038F8007F02031D812C16301B02031C842C852C8F
:10390800892C8312031306148C2C831203130610BC
:103918008316031766081C06031D942C65081B06EE
:103928000319972C982CA42C1C08E6001B08E5000A
:103938001B081F39A03E0A168A1592230A168A15F3
:1039480008000A168A1577230A168A1583160313A0
:1039580091150A168A1577230A168A1583120313F6
:103968001308831603179200930112089400130892
:1039780095000A168A1577230A168A1583160317DF
:1039880010031104031DC92CCA2CCE2C8316031353
:103998009112D12C8316031391161116831603174F
:1039A80015089100140890000800831603171403E3
:1039B8001504031DE02CE12CEB2C5E309000003048
:1039C80091000A168A1509240A168A15F42C1F3044
:1039D8009000003091000A168A1509240A168A15E3
:1039E8008316031768081506031DFC2C67081406C0
:1039F8000319FF2C002D122D1508E8001408E70004
:103A0800140815040319092D0B2D01300C2D003055
:103A1800803E0A168A1592230A168A15080083160C
:103A280003179200382D831603130F088F39403877
:103A38008F004E2D831603130F088F3950388F00CF
:103A48004E2D831603130F088F3960388F004E2DC3
:103A58007030831603138F044E2D831603130F083B
:103A68008F3960388F004E2D12089000910111088F
:103A7800003A0319402D312D1008013A0319172D6A
:103A8800033A03191E2D063A0319252D0C3A03197A
:103A98002C2D312D0F1408008316031792006C2D5E
:103AA8008316031307158312031397013F309705F5
:103AB8001708F0390C3897007C2D831603138714E8
:103AC800831203139D011D08F0390C389D007C2DCD
:103AD8001208900091011108003A0319742D7C2DE9
:103AE8001008013A0319542D033A0319612D7C2D4E
:103AF8000330831203139204FF30831603139200DA
:103B0800831203138C1012158C1C8B2D8C2D882D71
:103B18008C108316031307110800F501F6017008CD
:103B280071040319982D992DD02DF701F70AA72DA7
:103B380001300310F00DF10DFF3E031D9D2D0130E6
:103B4800F4007408F707F11FAA2DAB2D9C2D013046
:103B58000310F50DF60DFF3E031DAC2D7108730221
:103B6800031DB82D70087202031CBB2DBC2DC32D7C
:103B78007008F2027108031CF303F3027514013094
:103B88000310F10CF00CFF3E031DC42D0130F702A9
:103B9800031DCF2DD02DAB2D7608F1007508F00050
:103BA80008000030831603179C0000309B0000308B
:103BB8009A0000309900101CE22DE32DFA2D14080C
:103BC8009907150803110318013E0319EC2D9A07EC
:103BD800160803110318013E0319F32D9B07170854
:103BE80003110318013E0319FA2D9C0701309800B0
:103BF8000310940D950D960D970D980BFC2D013023
:103C08000310930C920C910C900CFF3E031D042E94
:103C18001308120411041004031D132E142EDF2D93
:103C28001C0893001B0892001A08910019089000BC
:103C3800080000307005F80000307105F900803088
:103C48007205FA007F307305FB007B087A0479045B
:103C58007804031D302E312E392E0030F300003049
:103C6800F2000030F1000030F00000307405F80078
:103C780000307505F90080307605FA007F30770549
:103C8800FB007B087A0479047804031D4C2E4D2E22
:103C9800552E0030F7000030F6000030F5000030F7
:103CA800F40077087306031D632E76087206031D59
:103CB800632E75087106031D632E740870060319B8
:103CC800662E672E692E03106A2E031408000A1642
:103CD8008A153A230A168A1572308316031790003C
:103CE800003091000A168A155F230A168A1580305B
:103CF800831603179000003091000A168A155F2377
:103D08000A168A15033083160317900000309100B5
:103D18000A168A155F230A168A150A168A15432376
:103D28000A168A150A168A153A230A168A1572304F
:103D3800831603179000003091000A168A155F2336
:103D48000A168A15813083160317900000309100F7
:103D58000A168A155F230A168A1500308316031778
:103D6800900091000A168A155F230A168A150A160A
:103D78008A1543230A168A1508000030831603178C
:103D88009C0000309B0000309A0000309900130816
:103D98001204110410040319D22ED32E202F9D01D2
:103DA8009D0AE32E013098000310900D910D920D9D
:103DB800930D980BD82E0130980018089D07931F73
:103DC800E62EE72ED62E013098000310990D9A0D95
:103DD8009B0D9C0D980BE92E13081702031DFE2E50
:103DE80012081602031DFE2E11081502031DFE2ED1
:103DF80010081402031C012F022F112F100894021F
:103E08001108031C110F95021208031C120F9602C9
:103E18001308031C130F9702191401300310930C95
:103E2800920C910C900CFF3E031D122F01309D0245
:103E3800031D1F2F202FE72E1C0893001B0892003C
:103E48001A0891001908900008000A168A11DC2146
:103E58000A168A150A168A156B260A168A158316F3
:103E680003176B080139CC00CC0DCC0D831203135A
:103E78000808831603174C06FB394C0683120313F4
:103E88008800831603176B08CC00CD014C089000FE
:103E98004D0891006C08CE00CF014E0892004F08E3
:103EA80093000A168A15E7230A168A1501300A169E
:103EB8008A1130240A168A158316031753089300AB
:103EC8005208920051089100500890000A168A1171
:103ED8005E200A168A158316031711089C0010081D
:103EE8009B000A168A1576240A168A158316031764
:103EF80059089500580894000A168A15D9240A16F4
:103F08008A150A168A115C260A168A150A168A1153
:103F180023270A168A15332F0A128A1112288316A4
:103F280003131815831603178715831603139A01AD
:103F3800831603171E08A2001F08A3002008A40068
:103F48002108A50002300310A20DA30DA40DA50D94
:103F5800FF3E031DA72F250893002408920023087D
:103F68009100220890001E08A6001F08A70020083C
:103F7800A8002108A90002300310A60DA70DA80D5E
:103F8800A90DFF3E031DC02F4030AA004230AB00F0
:103F98000F30AC000030AD002608AA022708031C29
:103FA800270FD72FD82FAB022808031C280FDD2F87
:103FB800DE2FAC022908031C290FE32FE42FAD02E2
:103FC8002D0897002C0896002B0895002A089400C5
:103FD8000A168A15C1260A168A15831603171008A9
:103FE8008316031399001812831203139817831664
:103FF8000313181398160800FF3FFF3FFF3FFF3FCA
:04400E00D420FF3E7D
:00000001FF
