:060000000A128A110C280F
:10000800FE00030EF0000A08F1000A128A11DC292A
:100018000A128A110F280A128A112D220A128A112D
:10002800FA000A128A112E220A128A11FB00B6015E
:10003800B70183010A128A110D2A831603131815B2
:10004800831603178715831603139A018312031364
:100058002608AA002708AB002808AC002908AD002C
:1000680002300310AA0DAB0DAC0DAD0DFF3E031D04
:1000780035282D08F5002C08F4002B08F3002A0871
:10008800F2002608AE002708AF002808B0002908AB
:10009800B10002300310AE0DAF0DB00DB10DFF3E33
:1000A800031D4E284030B2004230B3000F30B40078
:1000B8000030B5002E08B2022F08031C2F0F652848
:1000C8006628B3023008031C300F6B286C28B40272
:1000D8003108031C310F71287228B5023508F90060
:1000E8003408F8003308F7003208F6000A128A11BB
:1000F8008C200A128A1172088316031399001812A9
:1001080083120313981783160313181398160800FD
:10011800003083120313A4000030A3000030A200B3
:100128000030A100750874047304720403199D2833
:100138009E28EB28A501A50AAE280130A0000310CF
:10014800F20DF30DF40DF50DA00BA3280130A0005E
:100158002008A507F51FB128B228A1280130A00062
:100168000310A10DA20DA30DA40DA00BB4287508B2
:100178007902031DC92874087802031DC928730869
:100188007702031DC92872087602031CCC28CD28E3
:10019800DC287208F6027308031C730FF702740850
:1001A800031C740FF8027508031C750FF90221145B
:1001B80001300310F50CF40CF30CF20CFF3E031D98
:1001C800DD280130A502031DEA28EB28B2282408FF
:1001D800F5002308F4002208F3002108F2000800C3
:1001E800F4000E29831603130715831203139701CE
:1001F8003F3097051708F0390C3897001E298316E9
:1002080003138714831203139D011D08F0390C385A
:100218009D001E297408F200F3017308003A0319BF
:1002280016291E297208013A0319F628033A0319F8
:1002380003291E290330831203139204FF30831607
:1002480003139200831203138C1012158C1C2D2992
:100258002E292A298C108316031307110800F4008D
:100268005629831603130F088F3940388F006C29DD
:10027800831603130F088F3950388F006C298316A3
:1002880003130F088F3960388F006C29703083167C
:1002980003138F046C29831603130F088F396038F2
:1002A8008F006C297408F200F3017308003A0319EF
:1002B8005E294F297208013A03193529033A0319AF
:1002C8003C29063A031943290C3A03194A294F29AC
:1002D8000F14080001300A128A1133210A128A11F8
:1002E80083160317880189018316031306108312E6
:1002F8000313061083160313861483120313861040
:100308008316031381130230950001300A128A11F3
:10031800F4200A128A11003083120313A900003056
:10032800A8002530A7008030A6000A128A112120D3
:100338000A128A118B170B178B1583160313961441
:100348000B10080076037704031DAB29AC29B629E6
:100358005E30F2000030F3000A128A11F5210A1209
:100368008A11BF291F30F2000030F3000A128A11E7
:10037800F5210A128A117B087706031DC5297A0818
:1003880076060319C829C929DB297708FB007608EE
:10039800FA00760877040319D229D4290130D5291F
:1003A80000309A3E0A128A1121220A128A11080084
:1003B8000B1CDF29E029EE29831203138618E5298F
:1003C800E629EB290130B6000030B700ED29B60167
:1003D800B7010B1071088A00700E8300FE0E7E0EA6
:1003E80009007308F5007208F4000310F50CF40C0A
:1003F8000310F50CF40C74088312031395007208AB
:100408000339F400F40E17087406CF397406970000
:1004180008000A128A116E210A128A118312031324
:100428003708F7003608F6000A128A11A6210A12C0
:100438008A11122A0A128A110C28F2008316031351
:10044800981C272A282A222A720883120313990043
:0604580008000534003429
:08400000FF3FFF3FFF3FFF3FC0
:04400E00D420FF3E7D
:00000001FF
