:060000000A128A1110280B
:10000800FE00030E83160313AF000A08B0007F0832
:10001800B1000A128A15B02B0A128A111328831606
:1000280003130A128A11FB270A128A11D4000A1232
:100038008A11FC270A128A11D5000A128A11FD2793
:100048000A128A11D6000A128A11FE270A128A1188
:10005800D700D001D101D201D30183010A128A1538
:10006800492A831203133D088039C2004208C70099
:100078003D08C2004207C3004308CD00BC1F452805
:10008800462847284D144D0803194B284C285B284F
:100098004D0A031D5028512859280030BD00003052
:1000A800BC000030BB000030BA00BC176328003029
:1000B800BD000030BC000030BB000030BA00410871
:1000C8008039C2004208C7064108C2004207C3007F
:1000D8004308CC00C01F7128722873284C144C08A0
:1000E80003197728782887284C0A031D7C287D283F
:1000F80085280030C1000030C0000030BF0000304B
:10010800BE00C0178F280030C1000030C00000308A
:10011800BF000030BE004C08031993289428992882
:100128004D08031D98289928A2280030BD000030EA
:10013800BC000030BB000030BA00952B3A08C20062
:100148004208F00040080A128A156E220A128A1123
:10015800710883120313D3007008D2005208C2003A
:10016800C301C401C5014508CB004408CA004308BF
:10017800C9004208C8005308C200C301C401C50130
:100188004508D1004408D0004308CF004208CE00FB
:100198003B08C2004208F0003F080A128A156E2286
:1001A8000A128A11710883120313D3007008D2004F
:1001B8005208C200C301C401C5014208C807430868
:1001C80003110318013E0319EA28C907440803115B
:1001D8000318013E0319F128CA074508031103183B
:1001E800013E0319F828CB075308C200C301C40114
:1001F800C5014208CE07430803110318013E03193D
:100208000629CF07440803110318013E03190D29D5
:10021800D007450803110318013E03191429D10713
:100228003C08C2004208F0003E080A128A156E22F5
:100238000A128A11710883120313D3007008D200BE
:100248005208C200C301C401C5014208C8074308D7
:1002580003110318013E03193229C9074408031181
:100268000318013E03193929CA0745080311031861
:10027800013E03194029CB075308C200C301C4013A
:10028800C5014208CE07430803110318013E0319AC
:100298004E29CF07440803110318013E03195529B5
:1002A800D007450803110318013E03195C29D1073B
:1002B8000830C2000310C80DC90DCA0DCB0DC20B02
:1002C8005E293B08C2004208F0003E080A128A155F
:1002D8006E220A128A11710883120313D300700860
:1002E800D2005208C2005308C300C401C501420825
:1002F800C807430803110318013E03198429C907D5
:10030800440803110318013E03198B29CA0745083D
:1003180003110318013E03199229CB073A08C200BA
:100328004208F0003F080A128A156E220A128A1142
:10033800710883120313D3007008D2005208C20058
:100348005308C300C401C5014208C8074308031184
:100358000318013E0319B129C907440803110318FA
:10036800013E0319B829CA07450803110318013EBD
:100378000319BF29CB070830C2000310C80DC90DE7
:10038800CA0DCB0DC20BC1293A08C2004208F000C1
:100398003E080A128A156E220A128A1171088312FF
:1003A8000313D3007008D2005208C2005308C300D8
:1003B800C401C5014208C807430803110318013ED8
:1003C8000319E729C907440803110318013E031953
:1003D800EE29CA07450803110318013E0319F52938
:1003E800CB073B08C2004208F00040080A128A15F1
:1003F8006E220A128A11710883120313D30070083F
:10040800D2005208C2005308C300C401C501420803
:10041800CE07430803110318013E0319142ACF0716
:10042800440803110318013E03191B2AD007450885
:1004380003110318013E0319222AD1073C08C20000
:100448004208F0003F080A128A156E220A128A1121
:10045800710883120313D3007008D2005208C20037
:100468005308C300C401C5014208CE07430803115D
:100478000318013E0319412ACF0744080311031842
:10048800013E0319482AD007450803110318013E05
:1004980003194F2AD1073C08C2004208F00040085F
:1004A8000A128A156E220A128A117108831203131E
:1004B800D3007008D2005208C2005308C300C40118
:1004C800C50108300310C20DC30DC40DC50DFF3E94
:1004D800031D662A4208CE07430803110318013E8C
:1004E8000319772ACF07440803110318013E03199B
:1004F8007E2AD007450803110318013E0319852AEF
:10050800D1074808C2004908C3004A08C4004B087C
:10051800C50018300310C50CC40CC30CC20CFF3E38
:10052800031D8E2A4208CE07430803110318013E13
:1005380003199F2ACF07440803110318013E031922
:10054800A62AD007450803110318013E0319AD2A4E
:10055800D1070830C2000310C80DC90DCA0DCB0D54
:10056800C20BAF2A4D084C07C200C301C30D420895
:10057800823ED20043080318013EFF3ED300E12A21
:100588000130C2000310CE0DCF0DD00DD10DC20B1E
:10059800C62ACB1FD02AD12AD22A4E140130C20033
:1005A8000310C80DC90DCA0DCB0DC20BD42AFF30DC
:1005B800D2070318D30AFF30D307D01FE42AE52A4D
:1005C800C42ACC01CB1FE92AEA2A062BFF304805AA
:1005D800C200FF304905C300FF304A05C4007F3020
:1005E8004B05C50045084404430442040319FD2A89
:1005F800FE2A012BCC01CC0A062B4E1C042B052B02
:10060800062BFE2A4C0803190A2B0B2B3C2B013016
:10061800CE07003003180130CF070030031801302F
:10062800D007003003180130D107511C1C2B1D2B9B
:100638003C2B4E08C2004F08C3005008C4005108A4
:10064800C5000130C600450DC50CC40CC30CC20C56
:10065800C60B272B4508D1004408D0004308CF001B
:100668004208CE000130D2070318D30A0030D3075E
:100678005308803AFF0080307F02031D452BFF306E
:100688005202031C482B492B542B7F30831203132F
:10069800D1008030D0000030CF000030CE00892B50
:1006A800831203135308803AFF0080307F02031D32
:1006B8005F2B013052020318622B632B6F2B003023
:1006C80083120313D1000030D0000030CF00003077
:1006D800CE00C701892B831203135208C2004208B7
:1006E800CD00FF30CE05FF30CF057F30D00500307C
:1006F800D1054D1C802B812B822BD0174D08C200B1
:100708000310420CC3004308D1004708C200420846
:10071800D1045108BD005008BC004F08BB004E086A
:10072800BA0008008312031357088039DC005C08FC
:10073800E4005708DC005C07DD005D08E600D61F12
:10074800A62BA72BA82B661466080319AC2BAD2B78
:10075800BD2B660A031DB12BB22BBA2B0030D70074
:100768000030D6000030D5000030D400D617D701AD
:10077800C52B0030D7000030D6000030D50000303F
:10078800D4005B088039DC005C08E5006508640675
:100798000319CF2BD02BD12B64175B08DC005C0727
:1007A800DD005D08E500DA1FDA2BDB2BDC2B651496
:1007B80065080319E02BE12BF12B650A031DE52BD6
:1007C800E62BEE2B0030DB000030DA000030D900D9
:1007D8000030D800DA17DB01F92B0030DB000030DD
:1007E800DA000030D9000030D80066086502031826
:1007F800FE2BFF2B432C641F022C032C072C80306C
:10080800DC005C08E4066608DC005C08E7006508B4
:10081800DC005C08E6006708DC005C08E5005408BA
:10082800DC005C08E7005808DC005C08D4006708B6
:10083800DC005C08D8005508DC005C08E7005908B3
:10084800DC005C08D5006708DC005C08D9005608A5
:10085800DC005C08E7005A08DC005C08D600670882
:10086800DC005C08DA005708DC005C08E7005B087D
:10087800DC005C08D7006708DC005C08DB00E701E7
:100888006508DC00DD015D08DF0066085C02DE004B
:10089800031CDF035F08803AFF0080307F02031DDE
:1008A800572C1A305E02031C5A2C5B2C982C83128E
:1008B80003135708560455045404031D642C662C6E
:1008C8000130672C0030DC005C08E7000030D700FE
:1008D8000030D6000030D5000030D4006508DC00B8
:1008E8005C08E600A02C671C7A2C7B2C842C6708FB
:1008F800DC0003105C0C0138DD005D08E700862C85
:100908000310E70C541C892C8A2C8B2CE717013018
:10091800DC00570DD70CD60CD50CD40CDC0B8D2C69
:100928000130DC005C08E6078312031365086602E1
:10093800031C9F2CA02C772C641BA32CA42CEF2C1D
:100948006608031DA82CA92CB22C0030D700003053
:10095800D6000030D5000030D4001D2E5808D4072A
:10096800590803110318013E0319BB2CD5075A086F
:1009780003110318013E0319C22CD6075B080311A3
:100988000318013E0319C92CD707571CCC2CCD2CB2
:10099800A32D671CD02CD12CDA2C6708DC0003109F
:1009A8005C0C0138DD005D08E700DC2C0310E70C67
:1009B800541CDF2CE02CE12CE7170130DC00570D2C
:1009C800D70CD60CD50CD40CDC0BE32C0130DC0096
:1009D8005C08E607A32D5708803AFF005B08803AB9
:1009E8007F02031D012D5A085602031D012D5908C7
:1009F8005502031D012D580854020318042D052D16
:100A08005D2DFF30DC00FF30DD00FF30DE00FF3001
:100A1800DF005808E0005908E1005A08E2005B08C6
:100A2800E3005408E0025508031C550F1C2D1D2D2A
:100A3800E1025608031C560F222D232DE202570807
:100A4800031C570F282D292DE3026008DC076108D5
:100A58000318610F302D312DDD0762080318620F6E
:100A6800362D372DDE0763080318630ADF075F0892
:100A7800D7005E08D6005D08D5005C08D400803039
:100A8800DC005C08E406E709E70A6708031D4D2D4A
:100A98004E2D6B2D0130D407003003180130D507D7
:100AA800003003180130D607003003180130D7078B
:100AB8006B2D5808D4025908031C590FD5025A083F
:100AC800031C5A0FD6025B08031C5B0FD70257089A
:100AD800560455045404031D722D732D9F2D670869
:100AE800031D772D782D9F2D0030D7000030D600BC
:100AF8000030D5000030D4001D2E0130DC0003107A
:100B0800D40DD50DD60DD70DDC0B832DE71F8D2DFC
:100B18008E2D8F2D5414671C922D932D962D031412
:100B2800E70D982D0310E70D660803199C2D9D2DE0
:100B38009F2D0130E602D61FA22DA32D812DE501A0
:100B4800E71FA72DA82DB62D67087F390319AD2DEE
:100B5800AE2DB12DE501E50AB62D541CB42DB52DE9
:100B6800B62DAE2D65080319BA2DBB2DEF2D01301A
:100B7800D407003003180130D507003003180130BE
:100B8800D607003003180130D707571CCC2DCD2DC0
:100B9800EF2D5408DC005508DD005608DE00570824
:100BA800DF000130E0005F0DDF0CDE0CDD0CDC0C3B
:100BB800E00BD72D5F08D7005E08D6005D08D5008A
:100BC8005C08D400660A0319EA2DEB2DEF2D0130DD
:100BD800DC005C08E607660A0319F32DF42DF92DED
:100BE8006608031DF82DF92D072E0030D7000030B8
:100BF800D6000030D5000030D4006608031D052E4D
:100C0800062E072EE401661C0A2E0B2E0D2ED61773
:100C1800112E7F30DC005C08D6056608DC00031066
:100C28005C0CDD005D08D700E41F1B2E1C2E1D2E5A
:100C3800D71708008312031327088039A80028084B
:100C4800B1002708A8002807A9002908B800A61F8E
:100C58002E2E2F2E302E381438080319342E352E08
:100C6800452E380A031D392E3A2E422E0030A70091
:100C78000030A6000030A5000030A400A617A70188
:100C88004D2E0030A7000030A6000030A50000302F
:100C9800A40023088039A8002808B1062308A80062
:100CA8002807A9002908B900A21F5B2E5C2E5D2E1B
:100CB800391439080319612E622E722E390A031D60
:100CC800662E672E6F2E0030A3000030A200003081
:100CD800A1000030A000A217A3017A2E0030A300C3
:100CE8000030A2000030A1000030A0002308220438
:100CF80021042004031D812E822E9B2E0030A70084
:100D08000030A6000030A5000030A4008030A60402
:100D18007F30A7043108A8002808A7042708A300E3
:100D28002608A2002508A1002408A000FA2F3808E8
:100D3800031D9F2EA02EA92E0030A3000030A20074
:100D48000030A1000030A000FA2F3808A800A9013F
:100D58002908AB0039082802AA00031CAB032A089B
:100D68007F3EB2002B080318013E003EB30027085F
:100D7800B0002608AF002508AE002408AD000030FA
:100D8800A7000030A6000030A5000030A400003005
:100D9800B7000030B6000030B5000030B400B9012B
:100DA8001F2F39080319D92EDA2EFA2E0130A80080
:100DB8000310AD0DAE0DAF0DB00DA80BDC2E01303C
:100DC800A8000310A40DA50DA60DA70DA80BE52ED0
:100DD800B71FEF2EF02EF12E24140130A8000310B7
:100DE800B40DB50DB60DB70DA80BF32E23083002C0
:100DF800031D082F22082F02031D082F21082E0289
:100E0800031D082F20082D02031C0B2F0C2F1B2F4E
:100E180037172008AD022108031C210FAE02220853
:100E2800031C220FAF022308031C230FB00201305A
:100E3800A8002808B9071A303902031C242F252FC7
:100E4800D52E30082F042E042D0403192C2F2D2FF6
:100E58004C2F34144C2F0130A8000310A40DA50DFD
:100E6800A60DA70DA80B312FB71F3B2F3C2F3D2FE9
:100E780024140130A8000310B40DB50DB60DB70D3C
:100E8800A80B3F2FFF30B2070318B30AFF30B30790
:100E9800A61F4F2F502F2F2FB901B71F542F552F93
:100EA800712FFF303405A800FF303505A900FF3049
:100EB8003605AA007F303705AB002B082A04290421
:100EC80028040319682F692F6C2FB901B90A712FEB
:100ED800241C6F2F702F712F692F39080319752F54
:100EE800762FA72F0130A407003003180130A5077B
:100EF800003003180130A607003003180130A70797
:100F0800271C872F882FA72F2408A8002508A900A9
:100F18002608AA002708AB000130AC002B0DAB0C4B
:100F2800AA0CA90CA80CAC0B922F2B08A7002A0816
:100F3800A6002908A5002808A4000130B207031854
:100F4800B30A0030B3073308803AFF0080307F02CD
:100F5800031DB02FFF303202031CB32FB42FC22F52
:100F6800FF3083120313B2000030B3000030A70033
:100F78000030A6000030A5000030A400831203133F
:100F88003308803AFF0080307F02031DCD2F0130E7
:100F980032020318D02FD12FDE2F83120313B20190
:100FA800B3010030A7000030A6000030A5000030D3
:100FB800A400B101831203133208A8002808B8005E
:100FC800381CE72FE82FEA2FA617EE2F7F30A8004E
:100FD8002808A6053808A8000310280CA900290825
:100FE800A7003108A8002808A704922E0800963404
:060FF80000340534003452
:10142200831203130C131E08F100831603131E0804
:10143200F000080083160313B200981C212A222A06
:101442001E2A32088312031399000800831603131D
:101452003308B5003208B4000310B50CB40C031005
:10146200B50CB40C340883120313950083160313CE
:1014720032080339B400B40E83120313170883161B
:1014820003133406CF39340683120313970008007E
:101492000A128A156C230A128A1501300A128A1559
:1014A2008F260A128A15831603135108B4005008B6
:1014B200B3000A128A1595220A128A15831603139B
:1014C2005308B7005208B6000A128A15F6220A1209
:1014D2008A154E2A0A128A111028F800F401F50121
:1014E2007008F200F3017208F6007308F700781C26
:1014F2007B2A7C2A822A7608F4070318F50A7708E1
:10150200F50701300310F60DF70DFF3E031D832A88
:101512000310F80C7808031D8F2A902A782A750880
:10152200F1007408F0000800831603133408803AAF
:10153200FF0080307F02031DA02A17303302031CF4
:10154200A32AA42AA82A831203130614AB2A8312FD
:10155200031306108316031355083406031DB32A1A
:10156200540833060319B62AB72AC22A3408D5000A
:101572003308D4003308803E0A128A151B220A124D
:101582008A15080083160313B400DE2A0F088F3968
:1015920040388F00F42A0F088F3950388F00F42A10
:1015A2000F088F3960388F00F42A70308F04F42AC4
:1015B2000F088F3960388F00F42A3408B200B30163
:1015C2003308003A0319E62AD92A3208013A0319E4
:1015D200C72A033A0319CC2A063A0319D12A0C3A2C
:1015E2000319D62AD92A0F140800831603133603C7
:1015F2003704031DFD2AFE2A082B5E30B20000309C
:10160200B3000A128A1527220A128A15112B1F30DB
:10161200B2000030B3000A128A1527220A128A1574
:101622008316031357083706031D192B560836066F
:1016320003191C2B1D2B2F2B3708D7003608D60079
:10164200360837040319262B282B0130292B0030AA
:101652009A3E0A128A151B220A128A15080083165C
:101662000313B400482B07158312031397013F306D
:1016720097051708F0390C389700582B87148312F6
:1016820003139D011D08F0390C389D00582B3408B6
:10169200B200B3013308003A0319502B582B320819
:1016A200013A0319342B033A03193F2B582B033009
:1016B20083129204FF3083160313920083120313E2
:1016C2008C1012158C1C662B672B632B8C108316C7
:1016D20003130711080001300A128A15C3220A12E5
:1016E2008A150130831603178800890183160313B4
:1016F20005140610831203130610831603138614AF
:10170200831203138610831603138113023095008C
:1017120001300A128A1530230A128A150030831604
:101722000313C3000030C2002530C1008030C00066
:101732000A128A156F240A128A1583160313B2013C
:10174200B30100300A128A15D8240A128A158B179F
:101752000B178B158316031396140B1008000B1C22
:10176200B32BB42BC62B831203138618B92BBA2BB7
:10177200C12B013083160313D2000030D300C52BD6
:1017820083160313D201D3010B10831203130C1F10
:10179200CB2BCC2BFC2B1F0C83160313AE002E0C71
:1017A2000F39003A031DD62BD72BF92B0A128A15B3
:1017B20011220A128A15710883160313A6007008F3
:1017C200A500A701FF30A8000330A9000030AA003D
:1017D200AB002D30AC000030AD000A128A15E625B0
:1017E2000A128A15831603132608D1002508D00091
:1017F200831203130C13831603133108FF003008FE
:101802008A002F0E8300FE0E7E0E09000030831622
:101812000313BE000030BD000030BC000030BB002E
:1018220035083404330432040319182C192C662C9D
:10183200BF01BF0A292C0130BA000310B20DB30D4B
:10184200B40DB50DBA0B1E2C0130BA003A08BF0711
:10185200B51F2C2C2D2C1C2C0130BA000310BB0DF3
:10186200BC0DBD0DBE0DBA0B2F2C35083902031D60
:10187200442C34083802031D442C33083702031D5C
:10188200442C32083602031C472C482C572C3208B1
:10189200B6023308031C330FB7023408031C340F9B
:1018A200B8023508031C350FB9023B14013003108E
:1018B200B50CB40CB30CB20CFF3E031D582C013016
:1018C200BF02031D652C662C2D2C3E08B5003D0879
:1018D200B4003C08B3003B08B200080083160313AF
:1018E2001815831603178715831603139A014008E8
:1018F200C4004108C5004208C6004308C7000230C0
:101902000310C40DC50DC60DC70DFF3E031D812C6E
:101912004708B5004608B4004508B3004408B200C1
:101922004008C8004108C9004208CA004308CB0069
:1019320002300310C80DC90DCA0DCB0DFF3E031DA9
:101942009A2C4030CC004230CD000F30CE00003017
:10195200CF004808CC024908031C490FB12CB22C15
:10196200CD024A08031C4A0FB72CB82CCE024B08F2
:10197200031C4B0FBD2CBE2CCF024F08B9004E08E2
:10198200B8004D08B7004C08B6000A128A150724A1
:101992000A128A1583160313320899001812831249
:1019A2000313981783160313181398160800831647
:1019B2000313B600FB2C3F30831203139F05172D30
:1019C200831203131F083F3940389F00172D8312DB
:1019D20003131F083F3980389F00172DC030831230
:1019E20003139F04172D831203131F083F39403836
:1019F2009F00172D3608B400B5013508003A0319C7
:101A0200032DF42C3408003A0319DC2C013A031993
:101A1200E12C033A0319E82C013A0319EF2CF42CB8
:101A22001F122F2D1F162F2D1F122F2D831603135A
:101A32003208B400B5013508003A0319212D152DDD
:101A42003408003A0319112D013A0319132D152DEB
:101A52009F123F2D9F163F2D9F123F2D3308B4003A
:101A6200B5013508003A0319372D2D2D3408003AF7
:101A72000319292D013A03192B2D2D2D9F1783129E
:101A820003131F14831603130C17831203130C136F
:101A920008000310831203136A0D6B0D83160313E0
:101AA200A000200883120313ED006D08031D5A2DB8
:101AB2005B2D642D0030EB000030EA000030E900BD
:101AC2000030E800E52D680883160313A000831296
:101AD2000313690883160313A100831203136A0810
:101AE20083160313A200831203136B0883160313D6
:101AF200A3001F300310A30CA20CA10CA00CFF3EEC
:101B0200031D7B2D2008A400240883120313EC007C
:101B1200EA17FF30E805FF30E905FF30EA0500303B
:101B2200EB059630ED02ED1F972D982DB62D6D0821
:101B3200803A973E03189E2D9F2DA02D5B2D0130DC
:101B42000310EB0CEA0CE90CE80CFF3E031DA12D7F
:101B5200013083160313A000200883120313ED073C
:101B6200031DB42DB52DA02DD52D20306D02031CE3
:101B7200BB2DBC2DD02D5B2D013083160313A0008D
:101B8200031083120313E80DE90DEA0DEB0D831622
:101B92000313A00BC12D013083120313ED026D0854
:101BA200031DD42DD52DBD2D6C080319D92DDA2D89
:101BB200E52DE809E909EA09EB09E80A0319E90A46
:101BC2000319EA0A0319EB0A0800831603132A0809
:101BD200F0002B08F100F201F30100300A128A151D
:101BE20046270A128A15730883120313DB00720850
:101BF200DA007108D9007008D800831603132A0886
:101C02002C02F0002B08031C2B0A2D02F100F2011A
:101C1200F30100300A128A1546270A128A15730840
:101C220083120313A7007208A6007108A5007008AA
:101C3200A4008316031327082802F0002908031CB6
:101C42002903F100F201F30100300A128A15462736
:101C52000A128A15730883120313A3007208A200E2
:101C62007108A1007008A0000A128A111E260A1229
:101C72008A15831203132308C1002208C000210819
:101C8200BF002008BE008316031327082502F000B8
:101C92002608031C2603F100F201F30100300A12A8
:101CA2008A1546270A128A15730883120313BD0088
:101CB2007208BC007108BB007008BA000A128A11CF
:101CC20035200A128A15831203133D08D7003C08F7
:101CD200D6003B08D5003A08D4000A128A1196238E
:101CE2000A128A15831203135708EB005608EA00FA
:101CF2005508E9005408E8000A128A154A250A1212
:101D02008A1583120313690883160313A60083122C
:101D12000313680883160313A50008008316031330
:101D2200B400322F831203139F18982E992E452F39
:101D3200C3309F05023083160313B200B20B9F2EED
:101D42000000831203139F14452F831203139F185D
:101D5200AB2EAC2E452F1F0C83160313B200320C90
:101D62000F39003A031DB62EB72EC52E8312031368
:101D72001F08C33904389F00023083160313B200D0
:101D8200B20BC12E0000D72E831203131F0C831631
:101D92000313B200320C0F39013A031DD12ED22E99
:101DA200D72EC330831203139F05BD2E0230831634
:101DB2000313B200B20BDB2E0000831203139F1435
:101DC200452F831203139F18E72EE82E452F1F0C71
:101DD20083160313B200320C0F39003A031DF22EA0
:101DE200F32E012F831203131F08C33904389F00F7
:101DF200023083160313B200B20BFD2E0000272F10
:101E0200831203131F0C83160313B200320C0F3913
:101E1200013A031D0D2F0E2F152F831203131F08D6
:101E2200C33908389F00F92E831203131F0C83163F
:101E32000313B200320C0F39023A031D212F222F55
:101E4200272FC330831203139F05F92E0230831606
:101E52000313B200B20B2B2F0000831203139F1443
:101E6200452F3408B200B3013308003A03193A2F60
:101E7200452F3208013A0319932E033A0319A62E6D
:101E8200013A0319E22E452F0800F80078080319D9
:101E92004B2F4C2F602FF31F4F2F502F602F7009A5
:101EA200FA007109FB007209FC007309FD00FA0ACD
:101EB2000319FB0A0319FC0A0319FD0A682F7308A8
:101EC200FD007208FC007108FB007008FA0073083C
:101ED200720471047004031D6F2F702F792F00306C
:101EE200F3000030F2000030F1000030F000FF2F6C
:101EF2009630F4007408F9008B2F0130F400740856
:101F0200F90701300310FD0CFC0CFB0CFA0CFF3E30
:101F1200031D832FFE307D05031D902F912F7E2FF1
:101F2200AD2F0130F4007408F9070130FA070030D0
:101F320003180130FB07003003180130FC070030A2
:101F420003180130FD0701300310FD0CFC0CFB0CE3
:101F5200FA0CFF3E031DA52FFF307D05031DB22F96
:101F6200B32F922FBF2F0130F9020130F40003107A
:101F7200FA0DFB0DFC0DFD0DF40BB82FFC1BC22F4F
:101F8200C32FC92F023079020318C82FC92FB42FCB
:101F92007918CC2FCD2FD52FFF30FA05FF30FB0556
:101FA2007F30FC05FF30FD050310F90C7908F400C1
:101FB200F501F601F70118300310F40DF50DF60DD9
:101FC200F70DFF3E031DDD2F7408FA047508FB04AC
:101FD2007608FC047708FD0478080319F12FF22F24
:101FE200F72FF31FF52FF62FF72FFD177D08F300BC
:0E1FF2007C08F2007B08F1007A08F00008007D
:08400000FF3FFF3FFF3FFF3FC0
:04400E00D420FF3E7D
:00000001FF
