:060000000A128A110C280F
:10000800FE00030EF0000A08F1000A128A11BA294C
:100018000A128A110F2883120313B501B60183014E
:100028000A128A11EB29831603131815831603176E
:100038008715831603139A01831203132508A90051
:100048002608AA002708AB002808AC0002300310D5
:10005800A90DAA0DAB0DAC0DFF3E031D2B282C08D6
:10006800F5002B08F4002A08F3002908F2002508F7
:10007800AD002608AE002708AF002808B0000230FF
:100088000310AD0DAE0DAF0DB00DFF3E031D44289E
:100098004030B1004230B2000F30B3000030B4003D
:1000A8002D08B1022E08031C2E0F5B285C28B20213
:1000B8002F08031C2F0F61286228B3023008031C85
:1000C800300F67286828B4023408F9003308F800AC
:1000D8003208F7003108F6000A128A1189200A123C
:1000E8008A117208831603139900181283120313D6
:1000F80098171813831603131813981683120313EB
:100108001816831603138C16080000308312031385
:10011800A3000030A2000030A1000030A000750844
:1001280074047304720403199A289B28E828A4010C
:10013800A40AAB280130FA000310F20DF30DF40DF8
:10014800F50DFA0BA0280130FA007A08A407F51F6C
:10015800AE28AF289E280130FA000310A00DA10D8B
:10016800A20DA30DFA0BB12875087902031DC62844
:1001780074087802031DC62873087702031DC62871
:1001880072087602031CC928CA28D9287208F60200
:100198007308031C730FF7027408031C740FF8022A
:1001A8007508031C750FF902201401300310F50CB3
:1001B800F40CF30CF20CFF3E031DDA280130A40204
:1001C800031DE728E828AF282308F5002208F400D3
:1001D8002108F3002008F2000800F4000B29831618
:1001E800031307158312031397013F309705170868
:1001F800F0390C3897001B298316031387148312D0
:1002080003139D011D08F0390C389D001B29740843
:10021800F200F3017308003A031913291B29720825
:10022800013A0319F328033A031900291B2903305B
:10023800831203139204FF30831603139200831270
:1002480003138C1012158C1C2A292B2927298C1092
:100258008316031307110800F400532983160313A8
:100268000F088F3940388F006929831603130F0848
:100278008F3950388F006929831603130F088F3977
:1002880060388F0069297030831603138F04692939
:10029800831603130F088F3960388F006929740893
:1002A800F200F3017308003A03195B294C2972081C
:1002B800013A03193229033A03193929063A03196D
:1002C80040290C3A031947294C290F14080001301A
:1002D8000A128A1130210A128A1101308316031773
:1002E800880089018316031305140610831203136B
:1002F800061083160313861481130230950000300C
:1003080083120313A8000030A7002530A600803010
:10031800A5000A128A1117200A128A1101300A123E
:100328008A11F1200A128A118B170B178B15831665
:10033800031396140B10080076037704031DA529F0
:10034800A629B0295E30F2000030F3000A128A11A3
:10035800D3210A128A11B9291F30F2000030F300A4
:100368000A128A11D3210A128A1108000B1CBD290E
:10037800BE29CC29831203138618C329C429C92985
:100388000130B5000030B600CB29B501B6010B101D
:1003980071088A00700E8300FE0E7E0E0900730835
:1003A800F5007208F4000310F50CF40C0310F50CBA
:1003B800F40C740883120313950072080339F400CF
:1003C800F40E17087406CF397406970008000A124D
:1003D8008A116B210A128A11831203133608F70057
:1003E8003508F6000A128A11A0210A128A11F0298A
:0603F8000A128A110C2814
:08400000FF3FFF3FFF3FFF3FC0
:04400E00D420FF3E7D
:00000001FF
