:060000000A128A11FC2F18
:100D4600F00083160313981CA92EAA2EA42E700851
:100D560083120313990008000A128A11C9260A127F
:100D66008A1141300A128A11A3260A128A112130E9
:100D760083120313B1007530B000B00BC02EB10B57
:100D8600C02EC52EB42E0A128A11002801300A126E
:100D96008A11E9260A128A11831603178801890126
:100DA6008316031385018312031385010030A30004
:100DB6000030A2002530A1008030A0000A128A115E
:100DC6008A270A128A118B170B170800F2000C2FBC
:100DD600831603130F088F3940388F00222F83168E
:100DE60003130F088F3950388F00222F83160313F1
:100DF6000F088F3960388F00222F70308316031347
:100E06008F04222F831603130F088F3960388F0043
:100E1600222F7208F000F1017108003A0319142F0D
:100E2600052F7008013A0319EB2E033A0319F22E27
:100E3600063A0319F92E0C3A0319002F052F0F1441
:100E460008000030FC000030FB000030FA000030E3
:100E5600F90073087204710470040319332F342FD8
:100E6600812FFD01FD0A442F0130F8000310F00D1B
:100E7600F10DF20DF30DF80B392F0130F80078085B
:100E8600FD07F31F472F482F372F0130F8000310B7
:100E9600F90DFA0DFB0DFC0DF80B4A2F73087702BE
:100EA600031D5F2F72087602031D5F2F71087502FE
:100EB600031D5F2F70087402031C622F632F722FAD
:100EC6007008F4027108031C710FF5027208031C06
:100ED600720FF6027308031C730FF70279140130C0
:100EE6000310F30CF20CF10CF00CFF3E031D732FF4
:100EF6000130FD02031D802F812F482F7C08F3004F
:100F06007B08F2007A08F1007908F00008008316E1
:100F160003131815831603178715831603139A01EF
:100F2600831203132008A4002108A5002208A600A6
:100F36002308A70002300310A40DA50DA60DA70DCA
:100F4600FF3E031D9E2F2708F3002608F200250802
:100F5600F1002408F0002008A8002108A9002208B2
:100F6600AA002308AB0002300310A80DA90DAA0D94
:100F7600AB0DFF3E031DB72F4030AC004230AD0035
:100F86000F30AE000030AF002808AC022908031C61
:100F9600290FCE2FCF2FAD022A08031C2A0FD42FDC
:100FA600D52FAE022B08031C2B0FDA2FDB2FAF0237
:100FB6002F08F7002E08F6002D08F5002C08F4007F
:100FC6000A128A1124270A128A117008831603133B
:100FD6009900181283120313981718138316031314
:100FE60018139816831203131816831603138C16F8
:0A0FF600080083010A128A11AF2ED1
:08400000FF3FFF3FFF3FFF3FC0
:04400E00D420FF3E7D
:00000001FF
