:060000000A128A11122809
:10000800FE00030E83160313C4000408C5000A0883
:10001800C6007F08C7000A128A11B52B0A128A1176
:1000280015288317EF30FD001B30FE002330FF003A
:10003800E63084000A168A156E230A128A111430D3
:10004800FD000730FE00FB30FF00103084000A1668
:100058008A156E230A128A118313F030FD001B30B3
:10006800FE004230FF00E43084000A168A156E2331
:100078000A128A118317D4308400E6300A168A15CA
:1000880000230A128A118313D8308400E4300A1638
:100098008A1500230A128A1183010A168A15292F44
:1000A8008312031341088039C6004608CB00410873
:1000B800C6004607C7004708D100C01F6428652846
:1000C80066285114510803196A286B287A28510A9E
:1000D800031D6F28702878280030C1000030C00048
:1000E8000030BF000030BE00C01782280030C100B9
:1000F8000030C0000030BF000030BE004508803925
:10010800C6004608CB064508C6004607C70047088C
:10011800D000C41F90289128922850145008031921
:1001280096289728A628500A031D9B289C28A428AF
:100138000030C5000030C4000030C3000030C200E9
:10014800C417AE280030C5000030C4000030C3001A
:100158000030C20050080319B228B328B828510843
:10016800031DB728B828C1280030C1000030C000DE
:100178000030BF000030BE00B42B3E08C600460861
:10018800F00044080A168A15FC230A128A1171081D
:1001980083120313D7007008D6005608C600C7019B
:1001A800C801C9014908CF004808CE004708CD005A
:1001B8004608CC005708C600C701C801C90149084C
:1001C800D5004808D4004708D3004608D2003F08A5
:1001D800C6004608F00043080A168A15FC230A12CE
:1001E8008A11710883120313D7007008D6005608C5
:1001F800C600C701C801C9014608CC074708031152
:100208000318013E03190929CD07480803110318EB
:10021800013E03191029CE07490803110318013EAE
:1002280003191729CF075708C600C701C801C90114
:100238004608D207470803110318013E0319252968
:10024800D307480803110318013E03192C29D407C2
:10025800490803110318013E03193329D50740083B
:10026800C6004608F00042080A168A15FC230A123E
:100278008A11710883120313D7007008D600560834
:10028800C600C701C801C9014608CC0747080311C1
:100298000318013E03195129CD0748080311031813
:1002A800013E03195829CE07490803110318013ED6
:1002B80003195F29CF075708C600C701C801C9013C
:1002C8004608D207470803110318013E03196D2990
:1002D800D307480803110318013E03197429D407EA
:1002E800490803110318013E03197B29D507083073
:1002F800C6000310CC0DCD0DCE0DCF0DC60B7D293C
:100308003F08C6004608F00042080A168A15FC2372
:100318000A128A11710883120313D7007008D600D5
:100328005608C6005708C700C801C9014608CC07C7
:10033800470803110318013E0319A329CD074808EC
:1003480003110318013E0319AA29CE07490803110E
:100358000318013E0319B129CF073E08C600460815
:10036800F00043080A168A15FC230A128A1171083C
:1003780083120313D7007008D6005608C600570822
:10038800C700C801C9014608CC074708031103186C
:10039800013E0319D029CD07480803110318013E6F
:1003A8000319D729CE07490803110318013E031979
:1003B800DE29CF070830C6000310CC0DCD0DCE0DB9
:1003C800CF0DC60BE0293E08C6004608F0004208DB
:1003D8000A168A15FC230A128A117108831203135C
:1003E800D7007008D6005608C6005708C700C801CD
:1003F800C9014608CC07470803110318013E031931
:10040800062ACD07480803110318013E03190D2ACF
:10041800CE07490803110318013E0319142ACF0710
:100428003F08C6004608F00044080A168A15FC234F
:100438000A128A11710883120313D7007008D600B4
:100448005608C6005708C700C801C9014608D207A0
:10045800470803110318013E0319332AD307480834
:1004680003110318013E03193A2AD4074908031156
:100478000318013E0319412AD5074008C60046085B
:10048800F00043080A168A15FC230A128A1171081B
:1004980083120313D7007008D6005608C600570801
:1004A800C700C801C9014608D20747080311031845
:1004B800013E0319602AD307480803110318013EB7
:1004C8000319672AD407490803110318013E0319C1
:1004D8006E2AD5074008C6004608F00044080A16E8
:1004E8008A15FC230A128A11710883120313D70094
:1004F8007008D6005608C6005708C700C801C901C9
:1005080008300310C60DC70DC80DC90DFF3E031DE9
:10051800852A4608D207470803110318013E031924
:10052800962AD307480803110318013E03199D2A88
:10053800D407490803110318013E0319A42AD50753
:100548004C08C6004D08C7004E08C8004F08C9002F
:1005580018300310C90CC80CC70CC60CFF3E031D8D
:10056800AD2A4608D207470803110318013E0319AC
:10057800BE2AD307480803110318013E0319C52AE8
:10058800D407490803110318013E0319CC2AD507DB
:100598000830C6000310CC0DCD0DCE0DCF0DC60B07
:1005A800CE2A51085007C600C701C70D4608823E2B
:1005B800D60047080318013EFF3ED700002B013044
:1005C800C6000310D20DD30DD40DD50DC60BE52AE8
:1005D800CF1FEF2AF02AF12A52140130C600031067
:1005E800CC0DCD0DCE0DCF0DC60BF32AFF30D6079F
:1005F8000318D70AFF30D707D41F032B042BE32A8D
:10060800D001CF1F082B092B252BFF304C05C60026
:10061800FF304D05C700FF304E05C8007F304F053D
:10062800C900490848044704460403191C2B1D2B1C
:10063800202BD001D00A252B521C232B242B252B11
:100648001D2B50080319292B2A2B5B2B0130D207AD
:10065800003003180130D307003003180130D407E5
:10066800003003180130D507551C3B2B3C2B5B2B66
:100678005208C6005308C7005408C8005508C900E6
:100688000130CA00490DC90CC80CC70CC60CCA0BEE
:10069800462B4908D5004808D4004708D300460827
:1006A800D2000130D6070318D70A0030D7075708F9
:1006B800803AFF0080307F02031D642BFF30560212
:1006C800031C672B682B732B7F3083120313D50011
:1006D8008030D4000030D3000030D200A82B831221
:1006E80003135708803AFF0080307F02031D7E2BDA
:1006F800013056020318812B822B8E2B0030831277
:100708000313D5000030D4000030D3000030D200ED
:10071800CB01A82B831203135608C6004608D10044
:10072800FF30D205FF30D3057F30D4050030D50522
:10073800511C9F2BA02BA12BD4175108C6000310C6
:10074800460CC7004708D5004B08C6004608D50424
:100758005508C1005408C0005308BF005208BE0025
:1007680008000B1DB82BB92BC92B031083120313D8
:10077800881C031400300318013083160317EC009B
:100788000A168A15FA220A128A110B1CCC2BCD2BB9
:100798000A2C831203138618D22BD32BDA2B0130A1
:1007A80083160317DC000030DD00E22B861CDD2BEE
:1007B800DE2BE22B83160317DC01DD018312031302
:1007C8000619E72BE82BEF2B83160317EB01EB0A2F
:1007D800831203130815861BF22BF32BF92B8316B0
:1007E8000317EB01831203130811061DFC2BFD2BC5
:1007F800092C861F002C012C092C053083160313A5
:10080800C000400883160317EB000B108312031374
:100818000C1F0F2C102CE92E1F0C83160313C0007D
:10082800400C0F39003A031D1A2C1B2CE62E0A1611
:100838008A152C230A128A11710883160313B7002C
:100848007008B6000030B800B9008A30BA0002302B
:10085800BB00C930BC00FF30BD007D30BE00003099
:10086800BF000A168A11B4240A128A1183160313C8
:100878003708E3003608E2006B0883120313C1004F
:10088800831603136A0883120313C0008316031325
:10089800690883120313BF008316031368088312C1
:1008A8000313BE00BF30AD008030AC000030AB0099
:1008B8000030AA00FF30F2000330F3008316031360
:1008C8006308F1006208F0000A168A1578250A12F2
:1008D8008A11700883160313C0007108C100C20191
:1008E800C3014308FC004208FB004108FA00400825
:1008F800F90000300A168A116D250A128A117C083F
:1009080083120313B1007B08B0007A08AF0079089E
:10091800AE000A128A15D8220A128A11831203130A
:100928002D08C5002C08C4002B08C3002A08C200E3
:100938000A128A1154200A128A11831203134108D9
:1009480083160313DB008312031340088316031373
:10095800DA00831203133F0883160313D9008312A6
:1009680003133E0883160313D8005B08831203138E
:10097800EB00831603135A0883120313EA00831645
:100988000313590883120313E90083160313580845
:1009980083120313E8000A168A11F0260A128A1134
:1009A800831203136B0883160313DF0083120313E8
:1009B8006A0883160313DE0083120313690883167B
:1009C8000313DD0083120313680883160313DC0086
:1009D80083120317130883120313C5008312031726
:1009E800120883120313C400831203171108831219
:1009F8000313C30083120317100883120313C200E2
:100A0800831603135F0883120313C10083160313AD
:100A18005E0883120313C000831603135D08831254
:100A28000313BF00831603135C0883120313BE006D
:100A38000A128A1154200A128A11831203134108D8
:100A480083160313CB008312031340088316031382
:100A5800CA00831203133F0883160313C9008312C5
:100A680003133E0883160313C8004B0883120313AD
:100A7800C500831603134A0883120313C4008316A0
:100A88000313490883120313C3008316031348088A
:100A980083120313C200831603135F088312031320
:100AA800C100831603135E0883120313C000831664
:100AB80003135D0883120313BF00831603135C0836
:100AC80083120313BE000A128A1154200A128A11D3
:100AD80083120313410883160313CF0083120313F1
:100AE800400883160313CE00831203133F088316AE
:100AF8000313CD00831203133E0883160313CC009F
:100B08006F0883120313C500831603136E0883123C
:100B18000313C400831603136D0883120313C30061
:100B2800831603136C0883120313C200831603137E
:100B38005F0883120313C100831603135E08831230
:100B48000313C000831603135D0883120313BF0049
:100B5800831603135C0883120313BE000A128A115A
:100B680054200A128A11831203134108B100400865
:100B7800B0003F08AF003E08AE00831603136708B5
:100B880083120313AD00831603136608831203133D
:100B9800AC0083160313650883120313AB00831696
:100BA8000313640883120313AA000A128A15D822B1
:100BB8000A128A11831203132D0883160313D30014
:100BC800831203132C0883160313D2008312031312
:100BD8002B0883160313D100831203132A088316E4
:100BE8000313D0003F3083120313DF008030DE0090
:100BF8000030DD000030DC00831603135308831235
:100C08000313B10083160313520883120313B000B1
:100C180083160313510883120313AF0083160313BB
:100C2800500883120313AE00831603134F08831270
:100C38000313C500831603134E0883120313C4005D
:100C4800831603134D0883120313C300831603137B
:100C58004C0883120313C200831603135F08831220
:100C68000313C100831603135E0883120313C00025
:100C7800831603135D0883120313BF00831603133F
:100C88005C0883120313BE000A128A1154200A1248
:100C98008A11831203134108AD004008AC003F08D5
:100CA800AB003E08AA000A128A15D8220A128A1135
:100CB800831203132D08DB002C08DA002B08D90057
:100CC8002A08D8000A128A1560250A128A11831286
:100CD80003135B0883160313D700831203135A0800
:100CE80083160313D60083120313590883160313BC
:100CF800D50083120313580883160313D400433016
:100D080083120313EC008830EB009330EA00333091
:100D1800E90083160313570883120313E8008316A8
:100D28000313560883120313E700831603135508A9
:100D380083120313E6008316031354088312031364
:100D4800E5000A168A15D8230A128A11831203139A
:100D5800680883160313B000831203136708831609
:100D68000313AF0083120313660883160313AE0040
:100D780083120313650883160313AD000A168A113C
:100D88002B220A128A11831603132D08C000C101F1
:100D9800C201C3014308FC004208FB004108FA00F5
:100DA8004008F90000300A168A116D250A128A11C6
:100DB8007C0883160317D7007B08D6007A08D5006D
:100DC8007908D400831203130C13831603134708FE
:100DD800FF0046088A0045088400440E8300FE0E82
:100DE8007E0E09000A168A1508230A128A11723023
:100DF800831603179000003091000A168A153623CF
:100E08000A128A118C308316031790000030910063
:100E18000A168A1536230A128A110A168A151A23FF
:100E28000A128A117330831603179000003091005C
:100E38000A168A1536230A128A11013083160317F7
:100E48009000003091000A168A1552240A128A115D
:100E5800831603171008CA004A08E2000030900001
:100E680091000A168A1552240A128A11831603174A
:100E78001008CA004A08E1000A168A1511230A1246
:100E88008A110A168A1508230A128A1172308316E3
:100E980003179000003091000A168A1536230A12AB
:100EA8008A118E30831603179000003091000A16BD
:100EB8008A1536230A128A110A168A151A230A1263
:100EC8008A117330831603179000003091000A16B8
:100ED8008A1536230A128A110130831603179000E7
:100EE800003091000A168A1552240A128A118316B4
:100EF80003171008CA004A08E0000030900091006B
:100F08000A168A1552240A128A1183160317100822
:100F1800CA004A08DF000A168A1511230A128A1124
:100F2800831603176108CA00CB014A08CB00CA011F
:100F380062084A07DA000030031801304B07DB006B
:100F48005F08CA00CB014A08CB00CA0160084A07FB
:100F5800D8000030031801304B07D900C6015908E2
:100F6800A1005808A0005B089F005A089E000A12BA
:100F78008A1555200A128A11831603171E080A16A5
:100F88008A157D230A128A1183160317CA004A0894
:100F9800DE005E086A060319D22FD32FDE2F5E0803
:100FA800CA004A08EA005E08C03E0A168A155B2392
:100FB8000A128A11080083160317CD000F304D0559
:100FC800CA000A30CB004B08C6004D08CC000430DC
:100FD8000310CC0CFF3E031DEC2F4C080A168A1593
:100FE8007D230A128A11831603174A070800593409
:060FF8004734BC34333421
:10100200B2308312031381000B1108000030700507
:10101200F80000307105F90080307205FA007F3067
:101022007305FB007B087A0479047804031D1A28EF
:101032001B2823280030F3000030F2000030F100BA
:101042000030F00000307405F80000307505F9003A
:1010520080307605FA007F307705FB007B087A0442
:1010620079047804031D362837283F280030F7001A
:101072000030F6000030F5000030F4007708730607
:10108200031D4D2876087206031D4D28750871064A
:10109200031D4D287408700603195028512853283F
:1010A2000310542803140800003083160317B900F4
:1010B2000030B8007530B7001730B6003608A2000D
:1010C2003708A3003808A4003908A500043003102B
:1010D200A20DA30DA40DA50DFF3E031D6828250832
:1010E200B9002408B8002308B7002208B6001E0879
:1010F20090001F0891009201930139089700380867
:10110200960037089500360894000A168A15BC2501
:101112000A128A15831603171008A2001108A300E9
:101122001208A4001308A5000A300310A50CA40C91
:10113200A30CA20CFF3E031D96282508C10024081B
:10114200C0002308BF002208BE002008900021082A
:1011520091009201930139089700380896003708E8
:101162009500360894000A168A15BC250A128A15BB
:10117200831603171008A2001108A3001208A40086
:101182001308A5000A300310A50CA40CA30CA20C92
:10119200FF3E031DC4282508BD002408BC00230807
:1011A200BB002208BA000030AD000030AC000030B5
:1011B200AB000030AA00410840043F043E0403197A
:1011C200E328E428142941089300400892003F08CC
:1011D20091003E0890003A08A2003B08A3003C0898
:1011E200A4003D08A5000A300310A20DA30DA40D12
:1011F200A50DFF3E031DF52825089700240896003B
:1012020023089500220894000A168A15C1260A129C
:101212008A15831603171308AD001208AC001108D3
:10122200AB001008AA000130A2000030A300003079
:10123200A4000030A5002A08A2072B0803182B0FD0
:1012420023292429A3072C0803182C0F29292A292A
:10125200A4072D0803182D0AA50701300310A50CB9
:10126200A40CA30CA20CFF3E031D2F292508C500C8
:101272002408C4002308C3002208C2004508031D35
:101282004F294408031D4F294308031D4F294130AC
:101292004202031D4C2903184F2950295B29F230C1
:1012A20083160317B2000130B300BE30B400013020
:1012B200B5002E2A831603174508031D6D2944081D
:1012C200031D6D294308031D6D2981304202031D50
:1012D2006A2903186D296E29792914308316031798
:1012E200B2000230B300D130B4000230B5002E2A71
:1012F200831603174508031D8B294408031D8B29F8
:101302004308031D8B29C1304202031D882903189B
:101312008B298C2997293F3083160317B20002309C
:10132200B3007B30B4000330B5002E2A83160317B6
:101332004508031DAA294408031DAA2901304302B6
:10134200031DA72901304202031DA7290318AA2958
:10135200AB29B629703083160317B2000230B300EE
:10136200FE30B4000330B5002E2A83160317450859
:10137200031DC9294408031DC92901304302031D65
:10138200C62939304202031DC6290318C929CA29B0
:10139200D5296F3083160317B2000130B300FC3039
:1013A200B4000130B5002E2A831603174508031D29
:1013B200E8294408031DE82901304302031DE529F9
:1013C2009B304202031DE5290318E829E929F42983
:1013D200D23083160317B2000030B300FB30B400E2
:1013E2000030B5002E2A831603174508031D072A6D
:1013F2004408031D072A02304302031D042A9B30BE
:101402004202031D042A0318072A082A132A183045
:1014120083160317B2000030B3001230B40000305C
:10142200B5002E2A831603174508031D272A4408F0
:10143200031D272A02304302031D232A9B30420246
:10144200031D232A031C262A272A2E2A8316031762
:10145200B201B301B401B5012E2A83160317320873
:1014620090003308910092019301410897004008CF
:1014720096003F0895003E0894000A168A15BC257E
:101482000A128A15831603171308C1001208C00036
:101492001108BF001008BE00340890003508910002
:1014A200920193013D0897003C0896003B08950085
:1014B2003A0894000A168A15BC250A128A15831660
:1014C20003171308BD001208BC001108BB00100866
:1014D200BA000030B1000030B0000030AF00003080
:1014E200AE0041083D02031D802A40083C02031D54
:1014F200802A3F083B02031D802A3E083A02031855
:10150200832A842AA82A3E08A2003F08A300400892
:10151200A4004108A5003A08A2023B08031C3B0FA5
:10152200932A942AA3023C08031C3C0F992A9A2A64
:10153200A4023D08031C3D0F9F2AA02AA5022508EC
:10154200B1002408B0002308AF002208AE0000302A
:10155200AE07203003182130AF07003003180130E6
:10156200B007003003180130B1072E08A2002F087F
:10157200A3003008A4003108A5000E300310A50C0A
:10158200A40CA30CA20CFF3E031DBF2A2508A90030
:101592002408A8002308A7002208A6002908A10001
:1015A2002808A00027089F0026089E000800831232
:1015B20003132D088039B2003208BA002D08B20098
:1015C2003207B3003308BC00AC1FE82AE92AEA2A32
:1015D2003C143C080319EE2AEF2AFF2A3C0A031D99
:1015E200F32AF42AFC2A0030AD000030AC000030AF
:1015F200AB000030AA00AC17AD01072B0030AD00E4
:101602000030AC000030AB000030AA003108803955
:10161200B2003208BB003B083A060319112B122B09
:10162200132B3A173108B2003207B3003308BB005C
:10163200B01F1C2B1D2B1E2B3B143B080319222B06
:10164200232B332B3B0A031D272B282B302B003057
:10165200B1000030B0000030AF000030AE00B01773
:10166200B1013B2B0030B1000030B0000030AF00C0
:101672000030AE003C083B020318402B412B852B67
:101682003A1F442B452B492B8030B2003208BA0650
:101692003C08B2003208BD003B08B2003208BC0070
:1016A2003D08B2003208BB002A08B2003208BD0071
:1016B2002E08B2003208AA003D08B2003208AE007D
:1016C2002B08B2003208BD002F08B2003208AB006E
:1016D2003D08B2003208AF002C08B2003208BD004B
:1016E2003008B2003208AC003D08B2003208B00047
:1016F2002D08B2003208BD003108B2003208AD0038
:101702003D08B2003208B100BD013B08B200B3018E
:101712003308B5003C083202B400031CB503350897
:10172200803AFF0080307F02031D992B1A30340269
:10173200031C9C2B9D2BDA2B831203132D082C04E4
:101742002B042A04031DA62BA82B0130A92B003041
:10175200B2003208BD000030AD000030AC000030F5
:10176200AB000030AA003B08B2003208BC00E22BFA
:101772003D1CBC2BBD2BC62B3D08B2000310320C06
:101782000138B3003308BD00C82B0310BD0C2A1C5E
:10179200CB2BCC2BCD2BBD170130B2002D0DAD0CB8
:1017A200AC0CAB0CAA0CB20BCF2B0130B20032083E
:1017B200BC07831203133B083C02031CE12BE22B00
:1017C200B92B3A1BE52BE62B312C3C08031DEA2BE7
:1017D200EB2BF42B0030AD000030AC000030AB003E
:1017E2000030AA005F2D2E08AA072F080311031844
:1017F200013E0319FD2BAB07300803110318013E0C
:101802000319042CAC07310803110318013E031914
:101812000B2CAD072D1C0E2C0F2CE52C3D1C122C75
:10182200132C1C2C3D08B2000310320C0138B300FB
:101832003308BD001E2C0310BD0C2A1C212C222CA7
:10184200232CBD170130B2002D0DAD0CAC0CAB0C2E
:10185200AA0CB20B252C0130B2003208BC07E52CD1
:101862002D08803AFF003108803A7F02031D432C85
:1018720030082C02031D432C2F082B02031D432C7E
:101882002E082A020318462C472C9F2CFF30B20048
:10189200FF30B300FF30B400FF30B5002E08B600B1
:1018A2002F08B7003008B8003108B9002A08B6027C
:1018B2002B08031C2B0F5E2C5F2CB7022C08031C79
:1018C2002C0F642C652CB8022D08031C2D0F6A2CDA
:1018D2006B2CB9023608B20737080318370F722C7F
:1018E200732CB30738080318380F782C792CB407F7
:1018F20039080318390AB5073508AD003408AC00B9
:101902003308AB003208AA008030B2003208BA06AF
:10191200BD09BD0A3D08031D8F2C902CAD2C013052
:10192200AA07003003180130AB070030031801305A
:10193200AC07003003180130AD07AD2C2E08AA0207
:101942002F08031C2F0FAB023008031C300FAC0210
:101952003108031C310FAD022D082C042B042A047C
:10196200031DB42CB52CE12C3D08031DB92CBA2C57
:10197200E12C0030AD000030AC000030AB00003094
:10198200AA005F2D0130B2000310AA0DAB0DAC0D01
:10199200AD0DB20BC52CBD1FCF2CD02CD12C2A14CF
:1019A2003D1CD42CD52CD82C0314BD0DDA2C0310DD
:1019B200BD0D3C080319DE2CDF2CE12C0130BC02EA
:1019C200AC1FE42CE52CC32CBB01BD1FE92CEA2C77
:1019D200F82C3D087F390319EF2CF02CF32CBB01B6
:1019E200BB0AF82C2A1CF62CF72CF82CF02C3B08FE
:1019F2000319FC2CFD2C312D0130AA0700300318ED
:101A02000130AB07003003180130AC070030031877
:101A12000130AD072D1C0E2D0F2D312D2A08B200DD
:101A22002B08B3002C08B4002D08B5000130B60015
:101A3200350DB50CB40CB30CB20CB60B192D350820
:101A4200AD003408AC003308AB003208AA003C0AEF
:101A520003192C2D2D2D312D0130B2003208BC0777
:101A62003C0A0319352D362D3B2D3C08031D3A2D1A
:101A72003B2D492D0030AD000030AC000030AB00F2
:101A82000030AA003C08031D472D482D492DBA01FC
:101A92003C1C4C2D4D2D4F2DAC17532D7F30B200D9
:101AA2003208AC053C08B2000310320CB300330814
:101AB200AD00BA1F5D2D5E2D5F2DAD17080083129C
:101AC20003135F088039E000600883160313A40043
:101AD200831203135F08E0006007E10061088316C8
:101AE2000313AB0083120313DE1F782D792D7C2D97
:101AF200831603132B14831603132B080319822D49
:101B0200832D962D2B0A031D872D882D922D0030B3
:101B120083120313DF000030DE000030DD000030EE
:101B2200DC008312DE17DF01A02D003083120313C5
:101B3200DF000030DE000030DD000030DC005B083A
:101B42008039E000600883160313A406831203138E
:101B52005B08E0006007E100610883160313AC0034
:101B620083120313DA1FB62DB72DBA2D8316031372
:101B72002C14831603132C080319C02DC12DD42D48
:101B82002C0A031DC52DC62DD02D00308312031340
:101B9200DB000030DA000030D9000030D8008312B8
:101BA200DA17DB01DE2D003083120313DB00003075
:101BB200DA000030D9000030D8005B085A0459041A
:101BC2005804031DE52DE62D032E0030DF00003002
:101BD200DE000030DD000030DC008030DE047F30CB
:101BE200DF0483160313240883120313E000600842
:101BF200DF045F08DB005E08DA005D08D9005C08DC
:101C0200D800FF2F831603132B08031D092E0A2E5B
:101C1200152E003083120313DB000030DA0000308F
:101C2200D9000030D800FF2F2B0883120313E000E5
:101C3200E1016108E300831603132C0883120313E6
:101C42006002E200031CE30362087F3E8316031373
:101C5200A5008312031363080318013E003E831696
:101C62000313A600831203135F0883160313A30052
:101C7200831203135E0883160313A2008312031355
:101C82005D0883160313A100831203135C088316F5
:101C92000313A000003083120313DF000030DE00C4
:101CA2000030DD000030DC00003083160313AA0090
:101CB2000030A9000030A8000030A700AC01E72ED8
:101CC2002C080319652E662E952E013083120313FC
:101CD200E000031083160313A00DA10DA20DA30DA6
:101CE20083120313E00B6A2E0130E0000310DC0DB7
:101CF200DD0DDE0DDF0DE00B772E83160313AA1F19
:101D0200832E842E872E831203135C1401308312D8
:101D1200E000031083160313A70DA80DA90DAA0D49
:101D220083120313E00B8A2E83125B0883160313BC
:101D32002302031DB22E831203135A0883160313C0
:101D42002202031DB22E83120313590883160313B2
:101D52002102031DB22E83120313580883160313A4
:101D62002002031CB52EB62EDF2E2A178312031370
:101D7200580883160313A002831203135908031C85
:101D8200590FC42EC72E83160313A1028312031305
:101D92005A08031C5A0FCE2ED12E83160313A20209
:101DA200831203135B08031C5B0FD82EDB2E8316F2
:101DB2000313A30283120313831603130130831246
:101DC2000313E000600883160313AC071A302C02D9
:101DD200031CEC2EED2E612E230822042104200484
:101DE2000319F42EF52E1F2F27141F2F0130E000A8
:101DF2000310DC0DDD0DDE0DDF0DE00BF92E831679
:101E02000313AA1F052F062F092F831203135C1435
:101E120001308312E000031083160313A70DA80DEF
:101E2200A90DAA0D83120313E00B0C2FFF308316AA
:101E32000313A5070318A60AFF30A607831203138C
:101E4200DE1F242F252FF72E83160313AC01AA1FA2
:101E52002B2F2C2F582FFF30270583120313E0005E
:101E6200FF3083160313280583120313E100FF30AA
:101E720083160313290583120313E2007F308316AE
:101E820003132A0583120313E30063086204610447
:101E9200600403194D2F4E2F532F83160313AC01E9
:101EA200AC0A582F5C1C562F572F582F4E2F8316D3
:101EB20003132C0803195E2F5F2F942F0130831216
:101EC2000313DC07003003180130DD07003003186C
:101ED2000130DE07003003180130DF075F1C722F6C
:101EE200732F942F5C08E0005D08E1005E08E200B9
:101EF2005F08E3000130E400630DE30CE20CE10C47
:101F0200E00CE40B7D2F6308DF006208DE0061084D
:101F1200DD006008DC00013083160313A5070318F7
:101F2200A60A0030A607831603132608803AFF008C
:101F320080307F02031D9F2FFF302502031CA22F3A
:101F4200A32FB32FFF3083160313A5000030A60082
:101F5200003083120313DF000030DE000030DD00AA
:101F62000030DC00831603132608803AFF0080301D
:101F72007F02031DBE2F013025020318C12FC22F7D
:101F8200D32F83160313A501A60100308312031376
:101F9200DF000030DE000030DD000030DC008316A0
:101FA2000313A40183160313250883120313E0000D
:101FB200600883160313AB002B1CE02FE12FE52FE3
:101FC20083120313DE17EB2F7F3083120313E0001B
:101FD2006008DE05831603132B0883120313E00047
:101FE2000310600CE1006108DF008316031324086C
:101FF20083120313E0006008DF04FA2D080010309A
:102002008A000408840A8207003400340034003451
:102012000034C434FF347F343F348034EF34FF342F
:10202200BE349034E134A9343E34EC348234763414
:10203200BE348234AD342B343E340E343C34C3349B
:10204200BD348734D13413343D3441347834D334FD
:02205200BB349D
:10205600031083160317120D130D940014089A002B
:102066001A08031D3728382841280030930000300D
:1020760092000030910000309000A62810089400CD
:102086001108950012089600130897001F300310D8
:10209600970C960C950C940CFF3E031D4A281408C9
:1020A6009800180899009217FF309005FF309105A7
:1020B600FF3092050030930596309A029A1F6428E5
:1020C60065287F281A08803A973E03186B286C28E3
:1020D6006D28382801300310930C920C910C900C4B
:1020E600FF3E031D6E280130940014089A07031D55
:1020F6007D287E286D28962820301A02031C842805
:10210600852891283828013094000310900D910DF0
:10211600920D930D940B882801309A021A08031D1C
:10212600952896288628190803199A289B28A628F0
:102136009009910992099309900A0319910A0319C2
:10214600920A0319930A0800831603179400CA28F3
:102156003F30831203139F05EC28831203131F08D5
:102166003F3940389F00EC28831203131F083F397C
:1021760080389F00EC28C030831203139F04EC289C
:10218600831203131F083F3940389F00EC281408B8
:10219600920093011308003A0319D228C3281208A3
:1021A600003A0319AB28013A0319B028033A031978
:1021B600B728013A0319BE28C328831603131F1232
:1021C6000A29831603131F160A29831603131F12DF
:1021D6000A29831603171008920093011308003A80
:1021E6000319F628E8281208003A0319E028013AEC
:1021F6000319E428E828831603139F121C29831663
:1022060003139F161C29831603139F121C2983167A
:1022160003171108920093011308003A03191429B1
:1022260006291208003A0319FE28013A0319022961
:1022360006299F17831203131F14831603130C1703
:10224600831203130C1308008316031792008316D8
:10225600031381128316031712080319332934292D
:1022660038298316031381117F291208031D3C297F
:102276003D297F298316031381157F29F83083169C
:1022860003138105A629F830831603138105A629B1
:10229600831603130108F83901388100A62983162D
:1022A60003130108F83902388100A629831603139F
:1022B6000108F83903388100A6298316031301089B
:1022C600F83904388100A629831603130108F83962
:1022D60005388100A629831603130108F839063844
:1022E6008100A6290730831603138104A629F83036
:1022F600831603138105A629831603171208900077
:1023060091011108003A031989297A291008003A1F
:1023160003194129023A03194629063A03194B299A
:102326000C3A03195229183A03195929303A031954
:102336006029603A03196729C03A03196E297F3A62
:10234600031975297A298B160B11080001300A1614
:102356008A15FA240A168A11013083160317880093
:10236600890183160313051405128312031305123C
:102376008316031306108312031306108316031322
:10238600861483120313861083160313061583120D
:10239600031306118316031386178312031386137A
:1023A6008316031381138630950088108312031356
:1023B600881083160313081183120313081183165A
:1023C6000313081383120313081301300A168A1520
:1023D60037250A168A11003083160317A10000302C
:1023E600A00025309F0080309E000A168A1593278C
:1023F6000A168A11831603179001910100300A16F6
:102406008A11A7200A168A1110300A168A11272166
:102416000A168A110A128A1501200A168A11003034
:1024260083160317A1000630A0001A309F008030E3
:102436009E000A168A15C0240A168A118B170B17D6
:102446008B15831603139614161596170B10080092
:102456000310831603132F0D300DB10031088312BC
:102466000313EE006E08031D392A3A2A452A003066
:1024760083160313B0000030AF000030AE0000300A
:10248600AD00BC2A831603132D08B1002E08B20036
:102496002F08B3003008B4001F300310B40CB30C7F
:1024A600B20CB10CFF3E031D502A3108B5003508A9
:1024B60083120313ED0083160313AF17FF30AD0528
:1024C600FF30AE05FF30AF050030B0059630831201
:1024D6000313EE02EE1F702A712A8F2A6E08803AC5
:1024E600973E0318772A782A792A3A2A0130031068
:1024F60083160313B00CAF0CAE0CAD0CFF3E031DE0
:102506007A2A0130B100310883120313EE07031D46
:102516008D2A8E2A792AAA2A20306E02031C942A32
:10252600952AA52A3A2A013083160313B10003100F
:10253600AD0DAE0DAF0DB00DB10B9A2A0130831261
:102546000313EE026E08031DA92AAA2A962A6D080D
:102556000319AE2AAF2ABC2A83160313AD09AE09A6
:10256600AF09B009AD0A0319AE0A0319AF0A031978
:10257600B00A0800831203135D08DF000130031060
:10258600DF0DFF3E031DC22A03105F0D5C078400AA
:102596000A168A1100200A168A11E0000A168A1104
:1025A60000200A168A11E1000A168A1100200A166E
:1025B6008A11E2000A168A1100200A168A11E3001F
:1025C6006308E7006208E6006108E5006008E400C9
:1025D6004C2BFF30DD070318DE0AFF30DE075D08EF
:1025E600DF0001300310DF0DFF3E031DF52A031047
:1025F6005F0D5C0784000A168A1100200A168A11EC
:10260600E0000A168A1100200A168A11E1000A164D
:102616008A1100200A168A11E2000A168A11002081
:102626000A168A11E3006308AD006208AC0061086F
:10263600AB006008AA006708C1006608C00065080C
:10264600BF006408BE005B08C5005A08C4005908EC
:10265600C3005808C2000A128A1154200A168A11A9
:10266600831203134108B1004008B0003F08AF00D1
:102676003E08AE000A128A15D8220A168A1183125B
:1026860003132D08E7002C08E6002B08E5002A08AE
:10269600E4005D085E04031D512B522BEC2A6708EB
:1026A600DB006608DA006508D9006408D80008006F
:1026B60000307005F80000307105F90080307205B1
:1026C600FA007F307305FB007B087A0479047804EE
:1026D600031D6E2B6F2B772B0030F3000030F200BA
:1026E6000030F1000030F00000307405F8000030D2
:1026F6007505F90080307605FA007F307705FB0016
:102706007B087A0479047804031D8A2B8B2B932B80
:102716000030F7000030F6000030F5000030F4001D
:10272600F31F962B972BBB2B0030F8000030F900D7
:102736000030FA008030FB007008F8027108031CB4
:10274600710FA62BA72BF9027208031C720FAC2B74
:10275600AD2BFA027308031C730FB22BB32BFB02CB
:102766007B08F3007A08F2007908F1007808F00097
:10277600F71FBE2BBF2BE32B0030F8000030F9000B
:102786000030FA008030FB007408F8027508031C5C
:10279600750FCE2BCF2BF9027608031C760FD42BA0
:1027A600D52BFA027708031C770FDA2BDB2BFB02FB
:1027B6007B08F7007A08F6007908F5007808F40037
:1027C6008030F3068030F70677087302031DF52B79
:1027D60076087202031DF52B75087102031DF52B91
:1027E600740870020318F82BF92BFB2B0310FC2B33
:1027F60003140800831603179200A02C83120313F8
:102806009F18062C072CB32CC3309F050230831665
:1028160003179000900B0D2C0000831203139F14D6
:10282600B32C831203139F18192C1A2CB32C1F0CCC
:10283600831603179000100C0F39003A031D242C41
:10284600252C332C831203131F08C33904389F0029
:102856000230831603179000900B2F2C0000452C96
:10286600831203131F0C831603179000100C0F39E5
:10287600013A031D3F2C402C452CC3308312031311
:102886009F052B2C0230831603179000900B492CC2
:102896000000831203139F14B32C831203139F1893
:1028A600552C562CB32C1F0C831603179000100CB6
:1028B6000F39003A031D602C612C6F2C8312031311
:1028C6001F08C33904389F0002308316031790008F
:1028D600900B6B2C0000952C831203131F0C831690
:1028E60003179000100C0F39013A031D7B2C7C2C2A
:1028F600832C831203131F08C33908389F00672CE3
:10290600831203131F0C831603179000100C0F3944
:10291600023A031D8F2C902C952CC330831203137F
:102926009F05672C0230831603179000900B992C95
:102936000000831203139F14B32C12089000910118
:102946001108003A0319A82CB32C1008013A0319F0
:10295600012C033A0319142C013A0319502CB32CF9
:102966000800831603133C08F9003D08FA000030FE
:10297600FA1BFF30FB00FC0001300A168A116D2598
:102986000A168A117C0883120313B1007B08B00073
:102996007A08AF007908AE00831603133C083E029E
:1029A600F9003D08031C3D0A3F02FA00FB01FA1B31
:1029B600FB037B08FC0001300A168A116D250A16F6
:1029C6008A117C0883120313DF007B08DE007A0875
:1029D600DD007908DC008316031338083A02F90093
:1029E6003908031C390A3B02FA00FB01FC010030DE
:1029F6000A168A116D250A168A117C08831203139A
:102A0600DB007B08DA007A08D9007908D8000A12B8
:102A16008A1560250A168A11831203135B08C500FE
:102A26005A08C4005908C3005808C2008316031385
:102A360038083602F9003908031C390A3702FA0049
:102A4600FB01FC0100300A168A116D250A168A114F
:102A56007C0883120313C1007B08C0007A08BF00FC
:102A66007908BE000A128A1154200A168A118312A6
:102A760003134108AD004008AC003F08AB003E0818
:102A8600AA000A128A15D8220A168A11831203137B
:102A96002D0883160313B000831203132C08831624
:102AA6000313AF00831203132B0883160313AE0020
:102AB600831203132A0883160313AD000A168A111C
:102AC6002B220A168A11831603132E08B7002D0827
:102AD600B600080083120313A40024080319742DFA
:102AE600752D892DFC1F782D792D892D7909A60044
:102AF6007A09A7007B09A8007C09A900A60A031980
:102B0600A70A0319A80A0319A90A912D7C08A90086
:102B16007B08A8007A08A7007908A6007C087B0431
:102B26007A047904031D982D992DA22D0030FC00FE
:102B36000030FB000030FA000030F900282E9630F5
:102B4600A0002008A500B42D0130A0002008A5078C
:102B560001300310A90CA80CA70CA60CFF3E031D00
:102B6600AC2DFE302905031DB92DBA2DA72DD62D66
:102B76000130A0002008A5070130A6070030031881
:102B86000130A707003003180130A80700300318EA
:102B96000130A90701300310A90CA80CA70CA60C3C
:102BA600FF3E031DCE2DFF302905031DDB2DDC2D39
:102BB600BB2DE82D0130A5020130A0000310A60DA3
:102BC600A70DA80DA90DA00BE12DA81BEB2DEC2D33
:102BD600F22D023025020318F12DF22DDD2D2518D8
:102BE600F52DF62DFE2DFF30A605FF30A7057F300B
:102BF600A805FF30A9050310A50C2508A000A10112
:102C0600A201A30118300310A00DA10DA20DA30D62
:102C1600FF3E031D062E2008A6042108A70422084D
:102C2600A8042308A904240803191A2E1B2E202EF3
:102C3600FC1F1E2E1F2E202EA9172908FC0028086F
:102C4600FB002708FA002608F90008000A168A156C
:102C560008230A168A11D030831603179000003015
:102C660091000A168A1536230A168A110030831631
:102C76000317900091000A168A1536230A168A1140
:102C86000A168A151A230A168A11D13083160317D3
:102C96009000003091000A168A1536230A168A110A
:102CA6000130831603179000003091000A168A152A
:102CB60052240A168A110130831603179000003039
:102CC60091000A168A1552240A168A1183160317CA
:102CD60010080A128A11DF270A168A1183160317AB
:102CE600CE004E08E4000030900091000A168A15C6
:102CF60052240A168A118316031710080A128A111B
:102D0600DF270A168A1183160317CE004E08E30042
:102D16000A168A1511230A168A11831603176408E0
:102D26006E060319972E982EA22E6408CE004E0822
:102D3600EE0064080A168A155B230A168A118316A2
:102D4600031763086D060319A92EAA2EB52E63086C
:102D5600CE004E08ED006308E03E0A168A155B2396
:102D66000A168A11831603176408031DBB2EBC2E90
:102D7600E02E093065020318C12EC22EE02E013066
:102D8600CE004E08E507031083120313081F031431
:102D96000318CE2ED22E831203130817D52E8312B4
:102DA60003130813043083160317CF003D30CE00FB
:102DB600CE0BDB2ECF0BDB2EEF2E64080319E42E91
:102DC600E52EEC2E83120313081383160317E50171
:102DD600EF2E8312031308130800831203136B08E4
:102DE600F3006A08F2006908F1006808F000003094
:102DF600F7000030F6000030F5000030F4000A1647
:102E06008A115B230A168A1103180A2F0B2F1C2F0F
:102E1600213083160313E0000030E10000308312F6
:102E26000313EB000030EA000030E9000030E80050
:102E3600FF2F831203136B08F3006A08F200690878
:102E4600F1006808F0000030F7000030F6000030AE
:102E5600F5000030F4000A128A1507200A168A11B6
:102E6600031C362F372F482F223083160313E0001A
:102E76000030E100003083120313EB000030EA005B
:102E86000030E9000030E800FF2FBF308312031343
:102E9600AD008030AC000030AB000030AA004030FE
:102EA600C1000030C0000030BF000030BE006D30F1
:102EB600EC006C08A4006B08A3006A08A20069086D
:102EC600A1006808A0000A168A1504260A168A11A7
:102ED600831203132308C5002208C4002108C30077
:102EE6002008C2000A128A1154200A168A11831277
:102EF60003134108B1004008B0003F08AF003E0888
:102F0600AE000A128A15D8220A168A1183120313F2
:102F16002D08EB002C08EA002B08E9002A08E80037
:102F2600FF30ED070318EE0AFF30EE076B08DB00F3
:102F36006A08DA006908D9006808D8000130EC0090
:102F46006C08DC000830DD000030DE000A168A114D
:102F5600BD220A168A11831203135B08EB005A0876
:102F6600EA005908E9005808E8006B08AD006A084D
:102F7600AC006908AB006808AA003F30C1003130D8
:102F8600C0007230BF001830BE006D08F9006E0830
:102F9600FA000030FA1BFF30FB00FC0001300A1675
:102FA6008A116D250A168A117C0883120313C5003F
:102FB6007B08C4007A08C3007908C2000A128A1185
:102FC60054200A168A11831203134108B1004008DF
:102FD600B0003F08AF003E08AE000A128A15D8229C
:102FE6000A168A11831203132D08EB002C08EA0037
:0A2FF6002B08E9002A08E800080093
:1035F400B2308312031381000B11080064008001B0
:10360400840A0406031900340406012B0A168A15D9
:103614004E230A168A1583160313111408000A167A
:103624008A154E230A168A158316031311150800EA
:103634000A168A154E230A168A1583160313911443
:103644000800963400340534003408340534013459
:103654001E343D34831203130C131E08F100831629
:1036640003131E08F00008000A168A154E230A16D2
:103674008A15831603171008831203139300080096
:10368400EB34FF3493343A34003440341C3446343D
:1036940073347F3475343934831603131419532B5C
:1036A400542B4E2B11081F39031D592B5A2B4E2B0B
:1036B40008008316031790000313981C622B632BD6
:1036C4005E2B831603171008831203139900080056
:1036D4007E088A007F0882000A168A156A230A1661
:1036E4008A158000840A04087D0603190034FF0A41
:1036F4000319FE0A6E2B83160317C900C801491C5F
:10370400842B852B892B4608C7004708C80703105C
:10371400C60D0310C90C4908031D912B922B812B54
:10372400480808008316031710031104031D9B2B7C
:103734009C2BA42B120C83120313031C8810031854
:103744008814B52B10081104031DA92BAA2BB22B26
:10375400120C83120313031C881003188814B52B4E
:1037640083120313881008008316031711089300AB
:10377400100892000310930C920C0310930C920CFB
:1037840012088312031395008316031710080339D4
:103794009200920E8312031317088316031712065E
:1037A400CF39120683120313970008008030831266
:1037B4000313E8066C08AD006B08AC006A08AB00A4
:1037C4006908AA006808B1006708B0006608AF007D
:1037D4006508AE000A128A15D8220A168A158312C1
:1037E40003132D08E8002C08E7002B08E6002A083C
:1037F400E5000800F800F401F5017008F200F30197
:103804007208F6007308F700781C092C0A2C102C97
:103814007608F4070318F50A7708F5070130031052
:10382400F60DF70DFF3E031D112C0310F80C78085C
:10383400031D1D2C1E2C062C7508F1007408F000C5
:103844000800831603171C08803AFF0080307F02AB
:10385400031D2E2C16301B02031C312C322C362C4B
:10386400831203130614392C8312031306108316D0
:10387400031767081C06031D412C66081B06031961
:10388400442C452C512C1C08E7001B08E6001B089F
:103894001F39A03E0A168A155B230A168A150800EA
:1038A4000A168A154E230A168A15831603139115D0
:1038B4000A168A154E230A168A158312031313084F
:1038C40083160317920093011208940013089500BD
:1038D4000A168A154E230A168A158316031710032F
:1038E4001104031D762C772C7B2C83160313911261
:1038F4007E2C8316031391161116831603171508CD
:10390400910014089000080083160317140315048B
:10391400031D8D2C8E2C982C5E309000003091006D
:103924000A168A15B6230A168A15A12C1F30900090
:10393400003091000A168A15B6230A168A158316D2
:10394400031769081506031DA92C68081406031932
:10395400AC2CAD2CBF2C1508E9001408E8001408A1
:1039640015040319B62CB82C0130B92C0030803E54
:103974000A168A155B230A168A1508002830831252
:1039840003139400831603139101831603171E086F
:10399400A2001F08A3002008A4002108A5000230EB
:1039A4000310A20DA30DA40DA50DFF3E031DD22CE3
:1039B400250893002408920023089100220890000F
:1039C400003097000F30960042309500403094004C
:1039D4000A168A15C1260A168A15831603171008B3
:1039E400FF3E8316031393009401871507160800FE
:1039F4008316031792001F2D831603130F088F39A4
:103A040040388F00352D831603130F088F39503833
:103A14008F00352D831603130F088F3960388F00FC
:103A2400352D7030831603138F04352D831603133D
:103A34000F088F3960388F00352D120890009101DE
:103A44001108003A0319272D182D1008013A0319FB
:103A5400FE2C033A0319052D063A03190C2D0C3AD2
:103A64000319132D182D0F14080083160317920041
:103A7400532D8316031307158312031397013F3045
:103A840097051708F0390C389700632D8316031334
:103A94008714831203139D011D08F0390C389D000F
:103AA400632D1208900091011108003A03195B2D4F
:103AB400632D1008013A03193B2D033A0319482DCD
:103AC400632D0330831203139204FF308316031310
:103AD4009200831203138C1012158C1C722D732DFB
:103AE4006F2D8C108316031307110800F501F601DE
:103AF4007008710403197F2D802DB72DF701F70A83
:103B04008E2D01300310F00DF10DFF3E031D842DA9
:103B14000130F4007408F707F11F912D922D832DC5
:103B240001300310F50DF60DFF3E031D932D7108B2
:103B34007302031D9F2D70087202031CA22DA32D76
:103B4400AA2D7008F2027108031CF303F302751422
:103B540001300310F10CF00CFF3E031DAB2D0130BE
:103B6400F702031DB62DB72D922D7608F1007508C6
:103B7400F00008000030831603179C0000309B00FF
:103B840000309A0000309900101CC92DCA2DE12D77
:103B940014089907150803110318013E0319D32DBE
:103BA4009A07160803110318013E0319DA2D9B071F
:103BB400170803110318013E0319E12D9C07013076
:103BC40098000310940D950D960D970D980BE32D09
:103BD40001300310930C920C910C900CFF3E031DCA
:103BE400EB2D1308120411041004031DFA2DFB2DF0
:103BF400C62D1C0893001B0892001A08910019088E
:103C040090000800831203132308F3002208F20033
:103C14002108F1002008F0000030F7000030F60021
:103C24000030F5000030F4000A128A1507200A1645
:103C34008A15031C1E2E1F2E302E831203132408F4
:103C4400840083138001840A80010030A3000030C3
:103C5400A2000030A1000030A0005F2E83120313E5
:103C640023087F39FC00FD010310FC0DFD0D240821
:103C740084007C0883138000840A7D088000220D60
:103C8400220D0139FC00FD01240884007C08800415
:103C9400840A7D0880042408840082308007840F0D
:103CA40000080318000AFF00FF307F078000840328
:103CB400230880393F38A300A21308000A168A1586
:103CC40008230A168A1572308316031790000030F1
:103CD40091000A168A1536230A168A15803083162F
:103CE40003179000003091000A168A1536230A162D
:103CF4008A150330831603179000003091000A16CA
:103D04008A1536230A168A150A168A1511230A16E5
:103D14008A150A168A1508230A168A15723083161C
:103D240003179000003091000A168A1536230A16EC
:103D34008A158130831603179000003091000A160B
:103D44008A1536230A168A15003083160317900045
:103D540091000A168A1536230A168A150A168A1538
:103D640011230A168A150530831603179300893028
:103D74009200920BBB2E930BBB2EC02E080000307A
:103D8400831603179C0000309B0000309A0000301B
:103D9400990013081204110410040319D22ED32E0F
:103DA400202F9D019D0AE32E013098000310900DF1
:103DB400910D920D930D980BD82E01309800180890
:103DC4009D07931FE62EE72ED62E01309800031090
:103DD400990D9A0D9B0D9C0D980BE92E1308170253
:103DE400031DFE2E12081602031DFE2E11081502D5
:103DF400031DFE2E10081402031C012F022F112F85
:103E0400100894021108031C110F95021208031CD8
:103E1400120F96021308031C130F97021914013092
:103E24000310930C920C910C900CFF3E031D122F67
:103E340001309D02031D1F2F202FE72E1C08930025
:103E44001B0892001A0891001908900008000A162D
:103E54008A11A9210A168A150A168A1560260A16D5
:103E64008A15831603176B080139D000D00DD00DC5
:103E7400831203130808831603175006FB395006F0
:103E8400831203138800831603176B08D000D10133
:103E940050089000510891006C08D200D3015208D8
:103EA4009200530893000A168A1594230A168A1559
:103EB40001300A168A11FD230A168A158316031780
:103EC4005708930056089200550891005408900032
:103ED4000A168A112B200A168A158316031711084D
:103EE4009C0010089B000A168A1523240A168A15BA
:103EF400831603175D0895005C0894000A168A155A
:103F040086240A168A150A168A1129260A168A157B
:103F14000A128A11F6260A168A15332F0A128A11F2
:103F2400122883160313181583160317871583168F
:103F340003139A01831603171E08A2001F08A30087
:103F44002008A4002108A50002300310A20DA30D2F
:103F5400A40DA50DFF3E031DA72F250893002408DB
:103F6400920023089100220890001E08A6001F0852
:103F7400A7002008A8002108A90002300310A60DFC
:103F8400A70DA80DA90DFF3E031DC02F4030AA00A8
:103F94004230AB000F30AC000030AD002608AA025E
:103FA4002708031C270FD72FD82FAB022808031C80
:103FB400280FDD2FDE2FAC022908031C290FE32F65
:103FC400E42FAD022D0897002C0896002B089500CD
:103FD4002A0894000A168A15C1260A168A15831619
:103FE400031710088316031399001812831203137E
:103FF400981783160313181398160800FF3FFF3F02
:04400400FF3FFF3F3C
:04400E00D420FF3E7D
:00000001FF
