:060000000A128A11122809
:10000800FE00030E83160313C4000408C5000A0883
:10001800C6007F08C7000A128A1152280A128A11DC
:1000280015288317EF30FD001D30FE006830FF00F3
:10003800E63084000A168A15A2250A128A1114309D
:10004800FD001D30FE003230FF00103084000A161B
:100058008A15A2250A128A118313F030FD001D307B
:10006800FE008530FF00E43084000A168A15A225B8
:100078000A128A118317D4308400E6300A168A15CA
:1000880057250A128A118313D8308400E4300A16DF
:100098008A15572583010A168A11F1280B1D642831
:1000A800031083120313881C031400300318013053
:1000B80083160317EC000A168A1536250A128A11C8
:1000C8000B1C962883120313861871280130831697
:1000D8000317DC000030DD007728861C772883169C
:1000E8000317DC01DD018312031306198228831626
:1000F8000317EB01EB0A831203130815861B8A28E2
:1001080083160317EB018312031308110619861FC0
:100118009528053083160313C0004008831603177B
:10012800EB000B10831203130C1F712B1F0C83168B
:100138000313C000400C0F39003A031D6E2B0A163A
:100148008A1571250A128A11710883160313B700DC
:100158007008B6000030B800B9008A30BA00023022
:10016800BB00C930BC00FF30BD007D30BE00003090
:10017800BF000A168A118D260A128A1183160313E4
:100188003708E3003608E2006B0883120313C10046
:10019800831603136A0883120313C000831603131C
:1001A800690883120313BF008316031368088312B8
:1001B8000313BE00BF30AD008030AC000030AB0090
:1001C8000030AA00FF30F2000330F3008316031357
:1001D8006308F1006208F0000A168A15FC260A1264
:1001E8008A11700883160313C0007108C100C20188
:1001F800C3014308FC004208FB004108FA0040081C
:10020800F90000300A168A11E8250A128A117C08BA
:1002180083120313B1007B08B0007A08AF00790895
:10022800AE000A128A1509210A128A1183120313D1
:100238002D08C5002C08C4002B08C3002A08C200DA
:100248000A128A117E230A128A11831203134108A3
:1002580083160313DB00831203134008831603136A
:10026800DA00831203133F0883160313D90083129D
:1002780003133E0883160313D8005B088312031385
:10028800EB00831603135A0883120313EA0083163C
:100298000313590883120313E9008316031358083C
:1002A80083120313E8000A128A1193260A128A118C
:1002B800831203136B0883160313DF0083120313DF
:1002C8006A0883160313DE00831203136908831672
:1002D8000313DD0083120313680883160313DC007D
:1002E80083120317130883120313C500831203171D
:1002F800120883120313C400831203171108831210
:100308000313C30083120317100883120313C200D8
:10031800831603135F0883120313C10083160313A4
:100328005E0883120313C000831603135D0883124B
:100338000313BF00831603135C0883120313BE0064
:100348000A128A117E230A128A11831203134108A2
:1003580083160313CB008312031340088316031379
:10036800CA00831203133F0883160313C9008312BC
:1003780003133E0883160313C8004B0883120313A4
:10038800C500831603134A0883120313C400831697
:100398000313490883120313C30083160313480881
:1003A80083120313C200831603135F088312031317
:1003B800C100831603135E0883120313C00083165B
:1003C80003135D0883120313BF00831603135C082D
:1003D80083120313BE000A128A117E230A128A119D
:1003E80083120313410883160313CF0083120313E8
:1003F800400883160313CE00831203133F088316A5
:100408000313CD00831203133E0883160313CC0095
:100418006F0883120313C500831603136E08831233
:100428000313C400831603136D0883120313C30058
:10043800831603136C0883120313C2008316031375
:100448005F0883120313C100831603135E08831227
:100458000313C000831603135D0883120313BF0040
:10046800831603135C0883120313BE000A128A1151
:100478007E230A128A11831203134108B10040082F
:10048800B0003F08AF003E08AE00831603136708AC
:1004980083120313AD008316031366088312031334
:1004A800AC0083160313650883120313AB0083168D
:1004B8000313640883120313AA000A128A15092178
:1004C8000A128A11831203132D0883160313D3000B
:1004D800831203132C0883160313D2008312031309
:1004E8002B0883160313D100831203132A088316DB
:1004F8000313D0003F3083120313DF008030DE0087
:100508000030DD000030DC0083160313530883122B
:100518000313B10083160313520883120313B000A8
:1005280083160313510883120313AF0083160313B2
:10053800500883120313AE00831603134F08831267
:100548000313C500831603134E0883120313C40054
:10055800831603134D0883120313C3008316031372
:100568004C0883120313C200831603135F08831217
:100578000313C100831603135E0883120313C0001C
:10058800831603135D0883120313BF008316031336
:100598005C0883120313BE000A128A117E230A1212
:1005A8008A11831203134108AD004008AC003F08CC
:1005B800AB003E08AA000A128A1509210A128A11FC
:1005C800831203132D08DB002C08DA002B08D9004E
:1005D8002A08D8000A128A159A250A128A11831243
:1005E80003135B0883160313D700831203135A08F7
:1005F80083160313D60083120313590883160313B3
:10060800D50083120313580883160313D40043300C
:1006180083120313EC008830EB009330EA00333088
:10062800E90083160313570883120313E80083169F
:100638000313560883120313E700831603135508A0
:1006480083120313E600831603135408831203135B
:10065800E5000A168A15FA250A128A11831203136D
:10066800680883160313B000831203136708831600
:100678000313AF0083120313660883160313AE0037
:1006880083120313650883160313AD000A168A1133
:1006980093230A128A11831603132D08C000C1017F
:1006A800C201C3014308FC004208FB004108FA00EC
:1006B8004008F90000300A168A11E8250A128A1142
:1006C8007C0883160317D7007B08D6007A08D50064
:1006D8007908D400831203130C13831603134708F5
:1006E800FF0046088A0045088400440E8300FE0E79
:1006F8007E0E09008312031341088039C60046089C
:10070800CB004108C6004607C7004708D100C01BF8
:100718005114510803199D2B510A031D9B2B0030BE
:10072800C1000030C0000030BF000030BE00C0175C
:10073800A52B0030C1000030C0000030BF000030E1
:10074800BE0045088039C6004608CB064508C600E5
:100758004607C7004708D000C41B501450080319A7
:10076800C22B500A031DC02B0030C5000030C40046
:100778000030C3000030C200C417CA2B0030C500C7
:100788000030C4000030C3000030C2005008031D10
:100798005108031DD82B0030C1000030C0000030C4
:1007A800BF000030BE0008003E08C6004608F00042
:1007B80044080A128A1501200A128A117108831244
:1007C8000313D7007008D6005608C600C701C80131
:1007D800C9014908CF004808CE004708CD0046089F
:1007E800CC005708C600C701C801C9014908D5008F
:1007F8004808D4004708D3004608D2003F08C6007E
:100808004608F00043080A128A1501200A128A11C4
:10081800710883120313D7007008D6005608C60063
:10082800C701C801C9014608CC07470803110318C6
:10083800013E031DCD07480803110318013E031D9F
:10084800CE07490803110318013E031DCF075708B7
:10085800C600C701C801C9014608D20747080311E5
:100868000318013E031DD307480803110318013E6E
:10087800031DD407490803110318013E031DD507BA
:100888004008C6004608F00042080A128A150120EE
:100898000A128A11710883120313D7007008D60050
:1008A8005608C600C701C801C9014608CC07470851
:1008B80003110318013E031DCD074808031103184F
:1008C800013E031DCE07490803110318013E031D0D
:1008D800CF075708C600C701C801C9014608D20793
:1008E800470803110318013E031DD30748080311E5
:1008F8000318013E031DD407490803110318013EDC
:10090800031DD5070830C6000310CC0DCD0DCE0D44
:10091800CF0DC60B882C3F08C6004608F0004208D9
:100928000A128A1501200A128A1171088312031308
:10093800D7007008D6005608C6005708C700C80177
:10094800C9014608CC07470803110318013E031DD7
:10095800CD07480803110318013E031DCE074908B7
:1009680003110318013E031DCF073E08C6004608C1
:10097800F00043080A128A1501200A128A11710828
:1009880083120313D7007008D6005608C60057080C
:10099800C700C801C9014608CC0747080311031856
:1009A800013E031DCD07480803110318013E031D2E
:1009B800CE07490803110318013E031DCF0708306D
:1009C800C6000310CC0DCD0DCE0DCF0DC60BE52CFA
:1009D8003E08C6004608F00042080A128A1501209F
:1009E8000A128A11710883120313D7007008D600FF
:1009F8005608C6005708C700C801C9014608CC07F1
:100A0800470803110318013E031DCD0748080311C9
:100A18000318013E031DCE07490803110318013EC0
:100A2800031DCF073F08C6004608F00044080A1215
:100A38008A1501200A128A11710883120313D7003C
:100A48007008D6005608C6005708C700C801C90173
:100A58004608D207470803110318013E031DD307B0
:100A6800480803110318013E031DD4074908031160
:100A78000318013E031DD5074008C6004608F000CC
:100A880043080A128A1501200A128A117108831272
:100A98000313D7007008D6005608C6005708C700C9
:100AA800C801C9014608D207470803110318013EC7
:100AB800031DD307480803110318013E031DD4077B
:100AC800490803110318013E031DD5074008C60055
:100AD8004608F00044080A128A1501200A128A11F1
:100AE800710883120313D7007008D6005608C60091
:100AF8005708C700C801C90108300310C60DC70D43
:100B0800C80DC90DFF3E031D812D4608D2074708B1
:100B180003110318013E031DD307480803110318E6
:100B2800013E031DD407490803110318013E031DA4
:100B3800D5074C08C6004D08C7004E08C8004F0826
:100B4800C90018300310C90CC80CC70CC60CFF3EEE
:100B5800031DA62D4608D207470803110318013EB6
:100B6800031DD307480803110318013E031DD407CA
:100B7800490803110318013E031DD5070830C600B4
:100B88000310CC0DCD0DCE0DCF0DC60BC42D5108C5
:100B98005007C600C701C70D4608823ED600470861
:100BA8000318013EFF3ED700D41BF52D0130C600C7
:100BB8000310D20DD30DD40DD50DC60BDC2DCF1BD4
:100BC80052140130C6000310CC0DCD0DCE0DCF0D43
:100BD800C60BE72DFF30D6070318D70AFF30D70713
:100BE800D82DD001CF1F0E2EFF304C05C600FF3088
:100BF8004D05C700FF304E05C8007F304F05C900BE
:100C08004908480447044604031952180C2E0E2EAE
:100C1800D001D00A50080319402E0130D207003005
:100C280003180130D307003003180130D40700300F
:100C380003180130D507551C402E5208C60053082A
:100C4800C7005408C8005508C9000130CA00490D3A
:100C5800C90CC80CC70CC60CCA0B2B2E4908D500EA
:100C68004808D4004708D3004608D2000130D60708
:100C78000318D70A0030D7075708803AFF0080309A
:100C88007F02031D492EFF305602031C562E7F306B
:100C980083120313D5008030D4000030D300003015
:100CA800D200862E831203135708803AFF00803043
:100CB8007F02031D612E0130560203186F2E00308B
:100CC80083120313D5000030D4000030D300003065
:100CD800D200CB01862E831203135608C60046089D
:100CE800D100FF30D205FF30D3057F30D405003066
:100CF800D5055118D4175108C6000310460CC70073
:100D08004708D5004B08C6004608D5045508C10059
:100D18005408C0005308BF005208BE0008008312E0
:100D280003136B08F3006A08F2006908F100680809
:100D3800F0000030F7000030F6000030F500003019
:100D4800F4000A168A1116240A128A110318BD2EF5
:100D5800213083160313E0000030E10000308312D5
:100D68000313EB000030EA000030E9000030E8002F
:100D78000800831203136B08F3006A08F20069087D
:100D8800F1006808F0000030F7000030F60000308D
:100D9800F5000030F4000A168A15B8270A128A11DD
:100DA800031CE72E223083160313E0000030E10015
:100DB800003083120313EB000030EA000030E90032
:100DC8000030E8000800BF3083120313AD00803004
:100DD800AC000030AB000030AA004030C100003049
:100DE800C0000030BF000030BE006D30EC006C0861
:100DF800A4006B08A3006A08A2006908A10068089B
:100E0800A0000A168A1137200A128A1183120313C6
:100E18002308C5002208C4002108C3002008C20016
:100E28000A128A117E230A128A11831203134108B7
:100E3800B1004008B0003F08AF003E08AE000A12FB
:100E48008A1509210A128A11831203132D08EB004F
:100E58002C08EA002B08E9002A08E800FF30ED0713
:100E68000318EE0AFF30EE076B08DB006A08DA00A9
:100E78006908D9006808D8000130EC006C08DC006B
:100E88000830DD000030DE000A168A11A9240A1293
:100E98008A11831203135B08EB005A08EA00590809
:100EA800E9005808E8006B08AD006A08AC0069085A
:100EB800AB006808AA003F30C1003130C000723072
:100EC800BF001830BE006D08F9006E08FA00003047
:100ED800FA1BFF30FB00FC0001300A168A11E825D6
:100EE8000A128A117C0883120313C5007B08C40008
:100EF8007A08C3007908C2000A128A117E230A12EE
:100F08008A11831203134108B1004008B0003F085A
:100F1800AF003E08AE000A128A1509218312031396
:100F28002D08EB002C08EA002B08E9002A08E80045
:100F380008000A168A1542250A128A117230831689
:100F480003179000003091000A168A157B250A12B3
:100F58008A118030831603179000003091000A161A
:100F68008A157B250A128A1103308316031790000D
:100F7800003091000A168A157B250A128A110A1672
:100F88008A1549250A128A110A168A1542250A1253
:100F98008A117230831603179000003091000A16E8
:100FA8008A157B250A128A1181308316031790004F
:100FB800003091000A168A157B250A128A11003022
:100FC80083160317900091000A168A157B250A12CA
:100FD8008A110A168A1549250A128A1105308316BC
:100FE8000317930089309200920BF82F930BF82F78
:040FF800FD2F0800C1
:10100200F800F401F5017008F200F3017208F6002D
:101012007308F700781C13287608F4070318F50AFA
:101022007708F50701300310F60DF70DFF3E031D9B
:1010320014280310F80C7808031D0B287508F1001A
:101042007408F00008000A168A1542250A128A1549
:101052007230831603179000003091000A168A1529
:101062007B250A128A158C308316031790000030F4
:1010720091000A168A157B250A128A150A168A1504
:1010820050250A128A157330831603179000003018
:1010920091000A168A157B250A128A1501308316D9
:1010A20003179000003091000A168A1592260A1240
:1010B2008A15831603171008CA004A08E200003096
:1010C200900091000A168A1592260A128A15831632
:1010D20003171008CA004A08E1000A168A154925B2
:1010E2000A128A150A168A1542250A128A157230C0
:1010F200831603179000003091000A168A157B258B
:101102000A128A158E308316031790000030910060
:101112000A168A157B250A128A150A168A1550257F
:101122000A128A157330831603179000003091005B
:101132000A168A157B250A128A15013083160317AF
:101142009000003091000A168A1592260A128A151A
:10115200831603171008CA004A08E0000030900006
:1011620091000A168A1592260A128A158316031707
:101172001008CA004A08DF000A168A1549250A1211
:101182008A15831603176108CA00CB014A08CB00EF
:10119200CA0162084A07DA000030031801304B071F
:1011A200DB005F08CA00CB014A08CB00CA01600815
:1011B2004A07D8000030031801304B07D900C60196
:1011C2005908A1005808A0005B089F005A089E0019
:1011D2000A128A1538230A128A15831603171E0863
:1011E2000A168A15AF250A128A1583160317CA0032
:1011F2004A08DE005E086A06031908005E08CA0093
:101202004A08EA005E08C03E0A168A1591250800BF
:10121200831203132D088039B2003208BA002D0858
:10122200B2003207B3003308BC00AC1B3C143C08CC
:10123200031929293C0A031D26290030AD0000307C
:10124200AC000030AB000030AA00AC17AD01312970
:101252000030AD000030AC000030AB000030AA001E
:1012620031088039B2003208BB003B083A06031D40
:101272003A173108B2003207B3003308BB00B01B83
:101282003B143B08031953293B0A031D5029003024
:10129200B1000030B0000030AF000030AE00B01737
:1012A200B1015B290030B1000030B0000030AF0066
:1012B2000030AE003C083B020318A1293A1F652901
:1012C2008030B2003208BA063C08B2003208BD00D3
:1012D2003B08B2003208BC003D08B2003208BB0035
:1012E2002A08B2003208BD002E08B2003208AA0055
:1012F2003D08B2003208AE002B08B2003208BD0031
:101302002F08B2003208AB003D08B2003208AF002D
:101312002C08B2003208BD003008B2003208AC001E
:101322003D08B2003208B0002D08B2003208BD00FC
:101332003108B2003208AD003D08B2003208B100F7
:10134200BD013B08B200B3013308B5003C083202CC
:10135200B400031CB5033508803AFF0080307F02D9
:10136200031DB5291A303402031CEE29831203131C
:101372002D082C042B042A040319C1290130C22987
:101382000030B2003208BD000030AD000030AC00C9
:101392000030AB000030AA003B08B2003208BC00AB
:1013A200F4293D1CDD293D08B2000310320C01383E
:1013B200B3003308BD00DF290310BD0C2A18BD1786
:1013C2000130B2002D0DAD0CAC0CAB0CAA0CB20B63
:1013D200E3290130B2003208BC07831203133B0831
:1013E2003C02031CD2293A1B352A3C08031D022A5F
:1013F2000030AD000030AC000030AB000030AA007D
:1014020008002E08AA072F0803110318013E031D26
:10141200AB07300803110318013E031DAC07310866
:1014220003110318013E031DAD072D1CD72A3D1CD5
:10143200232A3D08B2000310320C0138B3003308EE
:10144200BD00252A0310BD0C2A18BD170130B200B9
:101452002D0DAD0CAC0CAB0CAA0CB20B292A013031
:10146200B2003208BC07D72A2D08803AFF003108A3
:10147200803A7F02031D472A30082C02031D472AA7
:101482002F082B02031D472A2E082A0203189F2A1F
:10149200FF30B200FF30B300FF30B400FF30B500C0
:1014A2002E08B6002F08B7003008B8003108B9007E
:1014B2002A08B6022B08031C2B0F602A612AB702E6
:1014C2002C08031C2C0F662A672AB8022D08031C5D
:1014D2002D0F6C2A6D2AB9023608B2073708031895
:1014E200370F742A752AB30738080318380F7A2A77
:1014F2007B2AB40739080318390AB5073508AD0045
:101502003408AC003308AB003208AA008030B200C5
:101512003208BA06BD09BD0A3D08031DAD2A0130D5
:10152200AA07003003180130AB070030031801305E
:10153200AC07003003180130AD07AD2A2E08AA020D
:101542002F08031C2F0FAB023008031C300FAC0214
:101552003108031C310FAD022D082C042B042A0480
:10156200031DD52A3D08031DD52A0030AD000030E9
:10157200AC000030AB000030AA0008000130B2001D
:101582000310AA0DAB0DAC0DAD0DB20BC12ABD1BE4
:101592002A143D1CCE2A0314CF2A0310BD0D3C0889
:1015A2000319D52A0130BC02AC1FBF2ABB01BD1FE3
:1015B200E22A3D087F3903192A18E02AE22ABB01F0
:1015C200BB0A3B080319152B0130AA070030031888
:1015D2000130AB07003003180130AC0700300318AC
:1015E2000130AD072D1C152B2A08B2002B08B300C1
:1015F2002C08B4002D08B5000130B600350DB50C2D
:10160200B40CB30CB20CB60BFF2A3508AD0034088B
:10161200AC003308AB003208AA003C0A0319152BB0
:101622000130B2003208BC073C0A031D3C08031D0E
:10163200252B0030AD000030AC000030AB00003094
:10164200AA003C080319BA013C1C292BAC172D2B0C
:101652007F30B2003208AC053C08B2000310320CF5
:10166200B3003308AD00BA1F0800AD170800003000
:1016720083160317B9000030B8007530B700173071
:10168200B6003608A2003708A3003808A4003908BB
:10169200A50004300310A20DA30DA40DA50DFF3E5D
:1016A200031D4B2B2508B9002408B8002308B700F6
:1016B2002208B6001E0890001F08910092019301B3
:1016C20039089700380896003708950036089400C4
:1016D2000A168A1577270A128A1583160317100825
:1016E200A2001108A3001208A4001308A5000A30E2
:1016F2000310A50CA40CA30CA20CFF3E031D792B16
:101702002508C1002408C0002308BF002208BE002B
:101712002008900021089100920193013908970056
:101722003808960037089500360894000A168A157C
:1017320077270A128A15831603171008A2001108C8
:10174200A3001208A4001308A5000A300310A50C78
:10175200A40CA30CA20CFF3E031DA72B2508BD0061
:101762002408BC002308BB002208BA000030AD00E8
:101772000030AC000030AB000030AA004108400449
:101782003F043E040319F52B4108930040089200E0
:101792003F0891003E0890003A08A2003B08A300CF
:1017A2003C08A4003D08A5000A300310A20DA30DB9
:1017B200A40DA50DFF3E031DD62B25089700240876
:1017C200960023089500220894000A168A11912097
:1017D2000A128A15831603171308AD001208AC000B
:1017E2001108AB001008AA000130A2000030A300CB
:1017F2000030A4000030A5002A08A2072B08031815
:101802002B0F042C052CA3072C0803182C0F0A2CD1
:101812000B2CA4072D0803182D0AA507013003106D
:10182200A50CA40CA30CA20CFF3E031D102C250832
:10183200C5002408C4002308C3002208C2004508CA
:10184200031D372C4408031D372C4308031D372C76
:1018520041304202031D2D2C0318372CF23083161F
:101862000317B2000130B300BE30A02C8316031759
:101872004508031D522C4408031D522C4308031D26
:10188200522C81304202031D462C0318522C143074
:1018920083160317B2000230B300D130B400023015
:1018A200D82C831603174508031D6B2C4408031D0F
:1018B2006B2C4308031D6B2CC1304202031D612CAB
:1018C20003186B2C3F3083160317B2000230B300AB
:1018D2007B30842C831603174508031D872C44088C
:1018E200031D872C01304302031D7B2C0130420271
:1018F200031D7B2C0318872C703083160317B2004C
:101902000230B300FE30B4000330D82C8316031724
:101912004508031DA32C4408031DA32C01304302D8
:10192200031D972C39304202031D972C0318A32C58
:101932006F3083160317B2000130B300FC30B400DD
:101942000130D82C831603174508031DBD2C44080B
:10195200031DBD2C01304302031DB32C9B304202F8
:10196200031DB32C0318BD2CD23083160317B2000B
:101972000030B300FB30D62C831603174508031D35
:10198200DA2C4408031DDA2C02304302031DCD2C4D
:101992009B304202031DCD2C0318DA2C183083161B
:1019A2000317B2000030B3001230B4000030B500AB
:1019B200F22C831603174508031DEC2C4408031D63
:1019C200EC2C02304302031DEA2C9B304202031D21
:1019D200EA2C031CF22C83160317B201B301B401E3
:1019E200B501831603173208900033089100920163
:1019F200930141089700400896003F0895003E0871
:101A020094000A168A1577270A128A158316031775
:101A12001308C1001208C0001108BF001008BE0060
:101A22003408900035089100920193013D08970017
:101A32003C0896003B0895003A0894000A168A155D
:101A420077270A128A15831603171308BD00120896
:101A5200BC001108BB001008BA000030B100003011
:101A6200B0000030AF000030AE0041083D02031D5F
:101A7200442D40083C02031D442D3F083B02031D38
:101A8200442D3E083A0203186A2D3E08A2003F0880
:101A9200A3004008A4004108A5003A08A2023B089E
:101AA200031C3B0F552D562DA3023C08031C3C0F73
:101AB2005B2D5C2DA4023D08031C3D0F612D622DA0
:101AC200A5022508B1002408B0002308AF002208AF
:101AD200AE000030AE07203003182130AF070030CF
:101AE20003180130B007003003180130B1072E0887
:101AF200A2002F08A3003008A4003108A5000E3070
:101B02000310A50CA40CA30CA20CFF3E031D812DF7
:101B12002508A9002408A8002308A7002208A60077
:101B22002908A1002808A00027089F0026089E0077
:101B32000800831203135F088039E00060088316EF
:101B42000313A400831203135F08E0006007E1009F
:101B5200610883160313AB0083120313DE1FB42D37
:101B6200831603132B14831603132B080319CA2D90
:101B72002B0A031DC62D003083120313DF00003031
:101B8200DE000030DD000030DC008312DE17DF01F2
:101B9200D42D003083120313DF000030DE0000304A
:101BA200DD000030DC005B088039E000600883164D
:101BB2000313A406831203135B08E0006007E1002D
:101BC200610883160313AC0083120313DA1FEC2D92
:101BD200831603132C14831603132C080319022EE5
:101BE2002C0A031DFE2D003083120313DB0000308C
:101BF200DA000030D9000030D8008312DA17DB0196
:101C02000C2E003083120313DB000030DA000030A8
:101C1200D9000030D8005B085A0459045804031D47
:101C22002F2E0030DF000030DE000030DD000030FB
:101C3200DC008030DE047F30DF04831603132408C7
:101C420083120313E0006008DF045F08DB005E0814
:101C5200DA005D08D9005C08D80008008316031377
:101C62002B08031D3F2E003083120313DB000030CC
:101C7200DA000030D9000030D80008002B088312A7
:101C82000313E000E1016108E300831603132C084B
:101C9200831203136002E200031CE30362087F3E27
:101CA20083160313A5008312031363080318013E6E
:101CB200003E83160313A600831203135F088316E4
:101CC2000313A300831203135E0883160313A200F7
:101CD200831203135D0883160313A10083120313F7
:101CE2005C0883160313A000003083120313DF0085
:101CF2000030DE000030DD000030DC0000308316F2
:101D02000313AA000030A9000030A8000030A70089
:101D1200AC011A302C0203180F2F2C080319BE2E07
:101D2200013083120313E000031083160313A00D86
:101D3200A10DA20DA30D83120313E00B952E01300A
:101D4200E0000310DC0DDD0DDE0DDF0DE00BA22E39
:101D520083160313AA1FB02E831203135C140130DF
:101D62008312E000031083160313A70DA80DA90D1B
:101D7200AA0D83120313E00BB32E83125B088316A2
:101D820003132302031DDB2E831203135A08831647
:101D920003132202031DDB2E831203135908831639
:101DA20003132102031DDB2E83120313580883162B
:101DB20003132002031C062F2A1783120313580849
:101DC20083160313A002831203135908031C590F2D
:101DD200EB2EEE2E83160313A102831203135A086D
:101DE200031C5A0FF52EF82E83160313A202831238
:101DF20003135B08031C5B0FFF2E022F83160313D2
:101E0200A3028312031383160313013083120313F5
:101E1200E000600883160313AC078A2E230822040D
:101E220021042004031D271483120313DE1B402FF9
:101E32000130E0000310DC0DDD0DDE0DDF0DE00BE7
:101E42001B2F83160313AA1F292F831203135C145B
:101E520001308312E000031083160313A70DA80DAF
:101E6200A90DAA0D83120313E00B2C2FFF3083164A
:101E72000313A5070318A60AFF30A607152F83161A
:101E82000313AC01AA1F6B2FFF3027058312031324
:101E9200E000FF3083160313280583120313E100C9
:101EA200FF3083160313290583120313E2007F30E8
:101EB200831603132A0583120313E30063086204E3
:101EC2006104600403195C18672F6B2F83160313D8
:101ED200AC01AC0A831603132C080319A32F01309B
:101EE20083120313DC07003003180130DD070030D2
:101EF20003180130DE07003003180130DF075F1CD2
:101F0200A32F5C08E0005D08E1005E08E2005F08C4
:101F1200E3000130E400630DE30CE20CE10CE00CA1
:101F2200E40B8C2F6308DF006208DE006108DD002D
:101F32006008DC00013083160313A5070318A60A04
:101F42000030A607831603132608803AFF0080306C
:101F52007F02031DAE2FFF302502031CC02FFF306E
:101F620083160313A5000030A6000030831203136A
:101F7200DF000030DE000030DD000030DC008316C0
:101F820003132608803AFF0080307F02031DCB2F07
:101F9200013025020318DE2F83160313A501A601C3
:101FA200003083120313DF000030DE000030DD005A
:101FB2000030DC0083160313A401831603132508E3
:101FC20083120313E000600883160313AB002B1C7B
:101FD200EE2F83120313DE17F42F7F3083120313C5
:101FE200E0006008DE05831603132B088312031337
:0E1FF200E0000310600CE1006108DF001E2E0D
:102004008316031792001F28831603130F088F39B2
:1020140040381D28831603130F088F3950381D28A4
:1020240018287030831603138F043528831603137E
:102034000F088F3960388F003528120890009101FD
:102044001108003A0319272818281008013A03191F
:102054000628033A03190C28063A031912280C3AE5
:102064000319132818280F140800831203132308D4
:10207400F3002208F2002108F1002008F0000030EB
:10208400F7000030F6000030F5000030F4000A16C6
:102094008A15B8270A168A11031C612883120313B0
:1020A4002408840083138001840A80010030A30083
:1020B4000030A2000030A1000030A000080083120C
:1020C400031323087F39FC00FD010310FC0DFD0DF3
:1020D400240884007C0883138000840A7D0880001F
:1020E400220D220D0139FC00FD01240884007C0826
:1020F4008004840A7D0880042408840082308007D8
:10210400840F00080318000AFF00FF307F078000D7
:102114008403230880393F38A300A2130800003049
:10212400831603179C0000309B0000309A00003097
:10213400990013081204110410040319E8289D01DE
:102144009D0A931BB328013098000310900D910D44
:10215400920D930D980BA7280130980018089D073D
:10216400A328013098000310990D9A0D9B0D9C0D26
:10217400980BB52813081702031DCA281208160263
:10218400031DCA2811081502031DCA2810081402C9
:10219400031CDB28100894021108031C110F95027C
:1021A4001208031C120F96021308031C130F970244
:1021B400191401300310930C920C910C900CFF3EF7
:1021C400031DDC2801309D02031DB3281C08930065
:1021D4001B0892001A0891001908900008000A16BA
:1021E4008A1113230A168A110A128A119D270A16C4
:1021F4008A11831603176B080139D000D00DD00D56
:10220400831203130808831603175006FB3950067C
:10221400831203138800831603176B08D000D101BF
:1022240050089000510891006C08D200D301520864
:102234009200530893000A168A15DC250A168A119F
:1022440001300A168A1144250A168A1183160317C7
:1022540057089300560892005508910054089000BE
:102264000A168A11C3210A168A1183160317110844
:102274009C0010089B000A168A153E260A168A112D
:10228400831603175D0895005C0894000A168A15E6
:1022940067260A168A110A168A1144270A168A1111
:1022A4000A128A1524200A168A11FB28831603139E
:1022B4001815831603178715831603139A018316BB
:1022C40003171E08A2001F08A3002008A400210869
:1022D400A50002300310A20DA30DA40DA50DFF3E11
:1022E400031D6C29250893002408920023089100FB
:1022F400220890001E08A6001F08A7002008A800B6
:102304002108A90002300310A60DA70DA80DA90DE0
:10231400FF3E031D85294030AA004230AB000F3038
:10232400AC000030AD002608AA022708031C270FC2
:102334009C299D29AB022808031C280FA229A32944
:10234400AC022908031C290FA829A929AD022D08CC
:1023540097002C0896002B0895002A0894000A166A
:102364008A1191208316031710088316031399000A
:10237400181283120313981783160313181398164D
:102384000800031083160317120D130D940014088C
:102394009A001A08031DD7290030930000309200D8
:1023A40000309100003090000800100894001108DB
:1023B400950012089600130897001F300310970C1D
:1023C400960C950C940CFF3E031DE029140898000C
:1023D400180899009217FF309005FF309105FF30DF
:1023E40092050030930596309A029A1F0E2A1A0815
:1023F400803A973E031CCE2901300310930C920CB3
:10240400910C900CFF3E031DFF2901309400140829
:102414009A070319212AFE2920301A020318CE290B
:102424001A080319212A013094000310900D910D0C
:10243400920D930D940B172A01309A02122A19084F
:10244400031908009009910992099309900A031944
:10245400910A0319920A0319930A080083160317B1
:1024640092008316031381128316031712080319AB
:102474003F2A831603138111762A1208031D762A34
:10248400831603138115762A712A83160313010810
:10249400F83901386A2A831603130108F839023817
:1024A4006A2A831603130108F83903386A2A831643
:1024B40003130108F83904386A2A83160313010840
:1024C400F83905386A2A831603130108F8390638DF
:1024D40081009D2A07308316031381049D2AF83056
:1024E4008316031381059D2A83160317120890008F
:1024F40091011108003A0319802A712A1008003A40
:102504000319462A023A0319462A063A0319472AA6
:102514000C3A03194D2A183A0319532A303A03196D
:10252400592A603A03195F2AC03A0319652A7F3A87
:1025340003196C2A712A8B160B11080083160317D2
:102544009400BC2A3F30831203139F05DB2AB52A6B
:10255400831203131F083F398038BA2AC03083120C
:1025640003139F04DB2A831203131F083F394038E7
:102574009F00DB2A1408920093011308003A031900
:10258400C42AB52A1208003A0319A42A013A0319E5
:10259400A92A033A0319AA2A013A0319B02AB52A27
:1025A400D72A831603131F16F62A831603131F1242
:1025B400F62A831603171008920093011308003AB1
:1025C4000319E52AD72A1208003A0319D22A013A34
:1025D4000319D32AD72AF22A831603139F16082B2A
:1025E400831603139F12082B8316031711089200F6
:1025F40093011308003A0319002BF22A1208003A37
:102604000319ED2A013A0319EE2AF22A9F178312BD
:1026140003131F14831603130C17831203130C13D1
:10262400080001300A168A1102200A168A110130A4
:1026340083160317880089018316031305140512F2
:102644008312031305128316031306108312031354
:10265400061083160313861483120313861083163D
:102664000313061583120313061183160313861727
:102674008312031386138316031381138630950084
:10268400881083120313881083160313081183120E
:102694000313081183160313081383120313081377
:1026A40001300A168A1538270A168A110030831653
:1026B4000317A1000030A00025309F0080309E0049
:1026C4000A168A1158210A168A11831603179001D3
:1026D400910100300A168A11A0220A168A111030BC
:1026E4000A168A1130220A168A110A168A153C25FE
:1026F4000A168A11003083160317A1000630A000C1
:102704001A309F0080309E000A168A15C4268B1743
:102714000B178B15831603139614161596170B10A7
:1027240008000310831603132F0D300DB100310878
:1027340083120313EE006E08031DAB2B00308316C7
:102744000313B0000030AF000030AE000030AD0025
:102754000800831603132D08B1002E08B2002F08B9
:10276400B3003008B4001F300310B40CB30CB20C27
:10277400B10CFF3E031DB62B3108B500350883129A
:102784000313ED0083160313AF17FF30AD05FF30BD
:10279400AE05FF30AF050030B00596308312031349
:1027A400EE02EE1FEE2B6E08803A973E031CA02B20
:1027B4000130031083160313B00CAF0CAE0CAD0C38
:1027C400FF3E031DDB2B0130B100310883120313DC
:1027D400EE070319052CDA2B20306E020318A02B08
:1027E4006E080319052C013083160313B10003107E
:1027F400AD0DAE0DAF0DB00DB10BF92B0130831241
:102804000313EE02F22B6D08031908008316031359
:10281400AD09AE09AF09B009AD0A0319AE0A03192F
:10282400AF0A0319B00A080000307005F800003040
:102834007105F90080307205FA007F307305FB00E2
:102844007B087A0479047804031D302C0030F300EB
:102854000030F2000030F1000030F0000030740568
:10286400F80000307505F90080307605FA007F30F5
:102874007705FB007B087A0479047804031D4A2C4D
:102884000030F7000030F6000030F5000030F400AE
:10289400F31F702C0030F8000030F9000030FA000B
:1028A4008030FB007008F8027108031C710F5B2C68
:1028B4005C2CF9027208031C720F612C622CFA0260
:1028C4007308031C730F672C682CFB027B08F3004E
:1028D4007A08F2007908F1007808F000F71F962CC6
:1028E4000030F8000030F9000030FA008030FB00BE
:1028F4007408F8027508031C750F812C822CF902E8
:102904007608031C760F872C882CFA027708031CA0
:10291400770F8D2C8E2CFB027B08F7007A08F600CB
:102924007908F5007808F4008030F3068030F70663
:1029340077087302031D080076087202031D08005D
:1029440075087102031D08007408700208008312E0
:1029540003135D08DF0001300310DF0DFF3E031D8C
:10296400AE2C03105F0D5C0784000A168A15002044
:102974000A168A11E0000A168A1500200A168A111E
:10298400E1000A168A1500200A168A11E2000A16C6
:102994008A1500200A168A11E3006308E70062081A
:1029A400E6006108E5006008E4005D085E040319C0
:1029B4003B2DFF30DD070318DE0AFF30DE075D081C
:1029C400DF0001300310DF0DFF3E031DE42C031074
:1029D4005F0D5C0784000A168A1500200A168A1106
:1029E400E0000A168A1500200A168A11E1000A1668
:1029F4008A1500200A168A11E2000A168A15002098
:102A04000A168A11E3006308AD006208AC0061088D
:102A1400AB006008AA006708C1006608C00065082A
:102A2400BF006408BE005B08C5005A08C40059080A
:102A3400C3005808C2000A128A117E230A168A119A
:102A4400831203134108B1004008B0003F08AF00EF
:102A54003E08AE000A128A1509210A168A11831249
:102A640003132D08E7002C08E6002B08E5002A08CC
:102A7400D62C6708DB006608DA006508D90064080C
:102A8400D8000800831603179200D42D8312031371
:102A94009F180800C3309F05023083160317900067
:102AA400900B522D0000831203139F14080083120D
:102AB40003139F1808001F0C831603179000100CB3
:102AC4000F39003A031D6D2D831203131F08C339F8
:102AD40004389F007C2D831203131F0C83160317E5
:102AE4009000100C0F39013A031D832DC33083125B
:102AF40003139F050230831603179000900B802D5B
:102B040000000230831603179000900B872D0000FD
:102B1400831203139F140800831203139F180800E1
:102B24001F0C831603179000100C0F39003A031D75
:102B3400A22D831203131F08C33904389F00C22D2A
:102B4400831203131F0C831603179000100C0F3904
:102B5400013A031DB32D831203131F08C339083828
:102B6400A02D831203131F0C831603179000100C5F
:102B74000F39023A031DC92DC330831203139F0575
:102B84000230831603179000900BC62D000002300C
:102B9400831603179000900BCD2D000083120313AE
:102BA4009F1408001208900091011108003A0319BB
:102BB400DC2DE72D1008013A0319482D033A0319B7
:102BC400592D013A03198E2DE72D080083120313A2
:102BD400A4002408031DFC1FFF2D7909A6007A090F
:102BE400A7007B09A8007C09A900A60A0319A70A63
:102BF4000319A80A0319A90A072E7C08A9007B084F
:102C0400A8007A08A7007908A6007C087B047A0447
:102C14007904031D162E0030FC000030FB00003048
:102C2400FA000030F90008009630A0002008A50042
:102C3400FE3029050319472E0130A0002008A507FE
:102C440001300310A90CA80CA70CA60CFF3E031D11
:102C5400232E1A2E0130A0002008A5070130A60754
:102C6400003003180130A707003003180130A8070B
:102C7400003003180130A90701300310A90CA80C77
:102C8400A70CA60CFF3E031D3F2EFF302905031998
:102C94005B2E2C2E02302502031C5D2E0130A50272
:102CA4000130A0000310A60DA70DA80DA90DA00BBF
:102CB400542EA81F4C2E2518672EFF30A605FF3072
:102CC400A7057F30A805FF30A9050310A50C25082A
:102CD400A000A101A201A30118300310A00DA10DB1
:102CE400A20DA30DFF3E031D6F2E2008A60421088C
:102CF400A7042208A8042308A9042408031DFC1F10
:102D0400842EA9172908FC002808FB002708FA00CC
:102D14002608F9000800831603133C08F9003D084F
:102D2400FA000030FA1BFF30FB00FC0001300A16E9
:102D34008A11E8250A168A117C0883120313B1004C
:102D44007B08B0007A08AF007908AE00831603133D
:102D54003C083E02F9003D08031C3D0A3F02FA000C
:102D6400FB01FA1BFB037B08FC0001300A168A11E5
:102D7400E8250A168A117C0883120313DF007B08F6
:102D8400DE007A08DD007908DC00831603133808B6
:102D94003A02F9003908031C390A3B02FA00FB0124
:102DA400FC0100300A168A11E8250A168A117C08EB
:102DB40083120313DB007B08DA007A08D900790850
:102DC400D8000A128A159A250A168A118312031347
:102DD4005B08C5005A08C4005908C3005808C2005B
:102DE4008316031338083602F9003908031C390A1C
:102DF4003702FA00FB01FC0100300A168A11E825AB
:102E04000A168A117C0883120313C1007B08C000D0
:102E14007A08BF007908BE000A128A117E230A16B6
:102E24008A11831203134108AD004008AC003F0827
:102E3400AB003E08AA000A128A1509210A168A1153
:102E4400831203132D0883160313B0008312031394
:102E54002C0883160313AF00831203132B08831665
:102E64000313AE00831203132A0883160313AD0061
:102E74000A168A119323831603132E08B7002D080C
:102E8400B60008000A168A1542250A168A11D0309F
:102E9400831603179000003091000A168A157B25CB
:102EA4000A168A11003083160317900091000A163F
:102EB4008A157B250A168A110A168A1550250A16C0
:102EC4008A11D130831603179000003091000A163E
:102ED4008A157B250A168A11013083160317900080
:102EE400003091000A168A1592260A168A110130BA
:102EF400831603179000003091000A168A15922653
:102F04000A168A118316031710080A168A15C22591
:102F14000A168A1183160317CE004E08E400003007
:102F2400900091000A168A1592260A168A118316B1
:102F3400031710080A168A15C2250A168A11831661
:102F44000317CE004E08E3000A168A1549250A160F
:102F54008A118316031764086E060319BB2F6408CD
:102F6400CE004E08EE0064080A168A1591250A164A
:102F74008A118316031763086D060319CC2F63089F
:102F8400CE004E08ED006308E03E0A168A1591252E
:102F94000A168A11831603176408031DF22F0930D9
:102FA40065020318F22F0130CE004E08E507031026
:102FB40083120313081F0314031CE42F8312031347
:102FC4000817E72F8312031308130430831603171B
:102FD400CF003D30CE00CE0BED2FCF0BED2F0800F0
:102FE40064080319FC2F83120313081383160317B1
:102FF400E5010800831203130813080018308A003F
:103004000408840A82070034003400340034003495
:10301400C434FF347F343F348034EF34FF34BE345F
:103024009034E134A9343E34EC3482347634BE3402
:103034008234AD342B343E340E343C34C334BD348A
:103044008734D13413343D3441347834D334BB34ED
:103A640059344734BC343334B230831203138100E5
:103A74000B110800B2308312031381000B110800EC
:103A84000A168A155F2583160313111408000A16F3
:103A94008A155F2583160313111508000A168A1563
:103AA4005F25831603139114080064008001840ABF
:103AB4000406031900340406582D8316031314193D
:103AC4005F2D11081F39031908005F2D9634003447
:103AD400053400340834053401341E343D34831273
:103AE40003130C131E08F100831603131E08F000C1
:103AF40008000A168A155F25831603171008831217
:103B0400031393000800EB34FF3493343A34003445
:103B140040341C34463473347F347534393483165A
:103B2400031790000313981C942D83160317100891
:103B340083120313990008007E088A007F0882001C
:103B44009E250A168A158000840A04087D06031936
:103B54000034FF0A0319FE0AA22D83160317C900B5
:103B6400C801491CB92D4608C7004708C8070310F7
:103B7400C60D0310C90C4908031DB32D48080800DD
:103B840083160317CD000F304D05CA000A30CB0051
:103B94004B08C6004D08CC0004300310CC0CFF3E8B
:103BA400031DCF2D4C080A168A15AF25831603175B
:103BB4004A0708008316031710031104031DEA2D96
:103BC400120C83120313031C8810031888140800B2
:103BD40010081104031DF62D120C83120313031C89
:103BE400881003188814080083120313881008002F
:103BF400803083120313E8066C08AD006B08AC0038
:103C04006A08AB006908AA006808B1006708B00038
:103C14006608AF006508AE000A128A1509218312EE
:103C240003132D08E8002C08E7002B08E6002A08F7
:103C3400E50008008316031711089300100892008A
:103C44000310930C920C0310930C920C1208831221
:103C54000313950083160317100803399200920E7C
:103C6400831203131708831603171206CF3912069B
:103C74008312031397000800831603171C08803A65
:103C8400FF0080307F02031D492E16301B02031CE7
:103C94004F2E831203130614522E8312031306109D
:103CA4008316031767081C06031D5A2E66081B0695
:103CB400031908001C08E7001B08E6001B081F394D
:103CC400A03E0A168A1591250800831603171403CB
:103CD4001504031D6F2E5E30702E1F3090000030CF
:103CE40091000A168A151C260A168A1583160317CC
:103CF40069081506031D802E6808140603190800B8
:103D04001508E9001408E80014081504031D8C2E96
:103D140001308D2E0030803E0A168A159125080048
:103D24000A168A155F250A168A1583160313911538
:103D34000A168A155F250A168A15831203131308B7
:103D44008316031792009301120894001308950038
:103D54000A168A155F250A168A1583160317100397
:103D64001104031DB92E831603139112BC2E83165E
:103D740003139116111683160317150891001408DE
:103D84009000080028308312031394008316031351
:103D94009101831603171E08A2001F08A300200820
:103DA400A4002108A50002300310A20DA30DA40D48
:103DB400A50DFF3E031DD62E25089300240892006E
:103DC4002308910022089000003097000F309600DD
:103DD40042309500403094000A168A1191208316CF
:103DE40003171008FF3E83160313930094018715ED
:103DF40007160800F501F601700871040319332F42
:103E0400F701F70AF11B122F01300310F00DF10D29
:103E1400FF3E031D072F0130F4007408F707042F39
:103E240001300310F50DF60DFF3E031D132F71082D
:103E34007302031D1F2F70087202031C282F7008C1
:103E4400F2027108031CF303F3027514013003102A
:103E5400F10CF00CFF3E031D292F0130F702031D66
:103E6400122F7608F1007508F00008008316031776
:103E74009200542F8316031307158312031397011B
:103E84003F3097051708F0390C389700642F8316D4
:103E940003138714831203139D011D08F0390C3892
:103EA4009D00642F1208900091011108003A031933
:103EB4005C2F642F1008013A03193C2F033A0319AD
:103EC400492F642F0330831203139204FF308316A7
:103ED40003139200831203138C1012158C1C702F81
:103EE4008C10831603130711080000308316031780
:103EF4009C0000309B0000309A0000309900101C98
:103F0400972F14089907150803110318013E031D80
:103F14009A07160803110318013E031D9B0717088F
:103F240003110318013E031D9C0701309800031080
:103F3400940D950D960D970D980B992F0130031044
:103F4400930C920C910C900CFF3E031DA12F1308AF
:103F5400120411041004031D812F1C0893001B0874
:103F640092001A08910019089000080000307005AA
:103F7400F80000307105F90080307205FA007F30D6
:103F84007305FB007B087A0479047804031DD22F9F
:103F94000030F3000030F2000030F1000030F00097
:103FA40000307405F80000307505F900803076059E
:103FB400FA007F307705FB007B087A0479047804E3
:103FC400031DEC2F0030F7000030F6000030F50040
:103FD4000030F40077087306031DFA2F7608720682
:103FE400031DFA2F75087106031DFA2F7408700655
:103FF4000319FE2F0310080003140800FF3FFF3FBE
:04400400FF3FFF3F3C
:04400E00D420FF3E7D
:00000001FF
