:060000000A128A11122809
:10000800FE00030E83160313C4000408C5000A0883
:10001800C6007F08C7000A128A11472B0A128A11E4
:1000280015288317EF30FD001F30FE006F30FF00EA
:10003800E63084000A128A1504200A128A11143044
:10004800FD001030FE002A30FF00103084000A1234
:100058008A1504200A128A118313F030FD001F301C
:10006800FE008230FF00E43084000A128A15042062
:100078000A128A118317D4308400E6300A168A15CA
:1000880055270A128A118313D8308400E4300A16DF
:100098008A15552783010A168A11F42B41088039DD
:1000A800C6004608CB004108C6004607C7004708F7
:1000B800D100C01B5114510803196F28510A031DA0
:1000C8006D280030C1000030C0000030BF00003093
:1000D800BE00C01777280030C1000030C0000030D3
:1000E800BF000030BE0045088039C6004608CB0670
:1000F8004508C6004607C7004708CC00C41B4C1477
:100108004C08031994284C0A031D92280030C50096
:100118000030C4000030C3000030C200C4179C285F
:100128000030C5000030C4000030C3000030C200F9
:100138004C08031D5108031DAA280030C1000030D7
:10014800C0000030BF000030BE0008003E08C600F6
:100158004608F00044080A168A15DD270A128A1193
:100168007108D7007008D6005608C600C701C80134
:10017800C9014908D0004808CF004708CE00460802
:10018800CD005708C600C701C801C9014908D500F4
:100198004808D4004708D3004608D2003F08C600E4
:1001A8004608F00043080A168A15DD270A128A1144
:1001B8007108D7007008D6005608C600C701C801E4
:1001C800C9014608CD07470803110318013E031D5E
:1001D800CE07480803110318013E031DCF0749083D
:1001E80003110318013E031DD0075708C600C701B5
:1001F800C801C9014608D207470803110318013E80
:10020800031DD307480803110318013E031DD40733
:10021800490803110318013E031DD5074008C6000D
:100228004608F00042080A168A15DD270A128A11C4
:100238007108D7007008D6005608C600C701C80163
:10024800C9014608CD07470803110318013E031DDD
:10025800CE07480803110318013E031DCF074908BC
:1002680003110318013E031DD0075708C600C70134
:10027800C801C9014608D207470803110318013EFF
:10028800031DD307480803110318013E031DD407B3
:10029800490803110318013E031DD5070830C6009D
:1002A8000310CD0DCE0DCF0DD00DC60B54293F0830
:1002B800C6004608F00042080A168A15DD270A1209
:1002C8008A117108D7007008D6005608C60057086A
:1002D800C700C801C9014608CD074708031103181C
:1002E800013E031DCE07480803110318013E031DF4
:1002F800CF07490803110318013E031DD0073E0824
:10030800C6004608F00043080A168A15DD270A12B7
:100318008A117108D7007008D6005608C600570819
:10032800C700C801C9014608CD07470803110318CB
:10033800013E031DCE07480803110318013E031DA3
:10034800CF07490803110318013E031DD0070830E1
:10035800C6000310CD0DCE0DCF0DD00DC60BAD29A7
:100368003E08C6004608F00042080A168A15DD272E
:100378000A128A117108D7007008D6005608C600FC
:100388005708C700C801C9014608CD074708031127
:100398000318013E031DCE07480803110318013E48
:1003A800031DCF07490803110318013E031DD00799
:1003B8003F08C6004608F00044080A168A15DD27DB
:1003C8000A128A117108D7007008D6005608C600AC
:1003D8005708C700C801C9014608D20747080311D2
:1003E8000318013E031DD307480803110318013EF3
:1003F800031DD407490803110318013E031DD5073F
:100408004008C6004608F00043080A168A15DD278A
:100418000A128A117108D7007008D6005608C6005B
:100428005708C700C801C9014608D2074708031181
:100438000318013E031DD307480803110318013EA2
:10044800031DD407490803110318013E031DD507EE
:100458004008C6004608F00044080A168A15DD2739
:100468000A128A117108D7007008D6005608C6000B
:100478005708C700C801C90108300310C60DC70DC9
:10048800C80DC90DFF3E031D412A4608D20747087B
:1004980003110318013E031DD3074808031103186D
:1004A800013E031DD407490803110318013E031D2B
:1004B800D5075008C600C701C801C9014608D207B8
:1004C800470803110318013E031DD3074808031109
:1004D8000318013E031DD407490803110318013E00
:1004E800031DD5070830C6000310CD0DCE0DCF0D66
:1004F800D00DC60B782A51084C07C600C701C70D96
:100508004608823ED60047080318013EFF3ED70042
:10051800D41BA92A0130C6000310D20DD30DD40D67
:10052800D50DC60B902AD01B52140130C6000310FB
:10053800CD0DCE0DCF0DD00DC60B9B2AFF30D607A3
:100548000318D70AFF30D7078C2ACC01D01FC22A3C
:10055800FF304D05C600FF304E05C700FF304F0580
:10056800C8007F305005C9004908480447044604BC
:1005780003195218C02AC22ACC01CC0A4C08031904
:10058800F42A0130D207003003180130D3070030B5
:1005980003180130D407003003180130D507551C63
:1005A800F42A5208C6005308C7005408C800550862
:1005B800C9000130CA00490DC90CC80CC70CC60CCB
:1005C800CA0BDF2A4908D5004808D4004708D300D9
:1005D8004608D2000130D6070318D70A0030D707DB
:1005E8005708803AFF0080307F02031DFD2AFF3044
:1005F8005602031C0A2B7F3083120313D500803068
:10060800D4000030D3000030D2003A2B83120313F9
:100618005708803AFF0080307F02031D152B0130F8
:1006280056020318232B003083120313D500003021
:10063800D4000030D3000030D200CB013A2B831213
:1006480003135608C6004608D100FF30D205FF3014
:10065800D3057F30D4050030D5055118D41751087B
:10066800C6000310460CC7004708D5004B08C60053
:100678004608D5045508C1005408C0005308BF00F7
:100688005208BE0008000B1D582B03108312881C4B
:10069800031400300318013083160317EC000A1600
:1006A8008A1547270A128A110B1C872B8312861872
:1006B800642B013083160317DC000030DD006A2B41
:1006C800861C6A2B83160317DC01DD0183120313D2
:1006D8000619752B83160317EB01EB0A8312031314
:1006E8000815861B7D2B83160317EB018312031352
:1006F80008110619861F862B05308316C00040088E
:100708000317EB000B10831203130C1FAB2D1F0CE8
:100718008316C000400C0F39003A031DA82D0A1695
:100728008A154D270A128A117108B7007008B60099
:100738000030B800B9008A30BA000230BB00C930B6
:10074800BC00FF30BD007D30BE000030BF000A167F
:100758008A11C0260A128A113708E3003608E20017
:100768006B088312C10083166A088312C0008316BF
:1007780069088312BF00831668088312BE00BF3061
:10078800AD008030AC000030AB000030AA00FF3074
:10079800F2000330F30083166308F1006208F000EA
:1007A8000A168A115B210A128A117008C0007108A2
:1007B800C100C201C3014308FC004208FB00410814
:1007C800FA004008F90000300A168A115C270A125C
:1007D8008A117C08B1007B08B0007A08AF0079085C
:1007E800AE000A128A11B7250A128A112D08C5000F
:1007F8002C08C4002B08C3002A08C2000A128A1158
:1008080052200A128A1141088316DB00831240081D
:100818008316DA0083123F088316D90083123E0834
:100828008316D8005B088312EB0083165A088312DC
:10083800EA00831659088312E900831658088312C0
:10084800E8000A128A15AE220A128A116B0883166A
:10085800DF0083126A088316DE0083126908831694
:10086800DD00831268088316DC008312031713085F
:100878000313C500031712080313C4000317110854
:100888000313C300031710080313C20083165F087D
:100898008312C10083165E088312C00083165D08A8
:1008A8008312BF0083165C088312BE000A128A11E5
:1008B80052200A128A1141088316CB00831240087D
:1008C8008316CA0083123F088316C90083123E08A4
:1008D8008316C8004B088312C50083164A08831282
:1008E800C400831649088312C3008316480883127C
:1008F800C20083165F088312C10083165E08831244
:10090800C00083165D088312BF0083165C0883123B
:10091800BE000A128A1152200A128A11410883164F
:10092800CF00831240088316CE0083123F08831637
:10093800CD0083123E088316CC006F088312C500D1
:1009480083166E088312C40083166D088312C300D1
:1009580083166C088312C20083165F088312C100D5
:1009680083165E088312C00083165D088312BF00D9
:1009780083165C088312BE000A128A1152200A12DA
:100988008A114108B1004008B0003F08AF003E0896
:10099800AE00831667088312AD00831666088312BB
:1009A800AC00831665088312AB00831664088312B3
:1009B800AA000A128A11B7250A128A112D0883166D
:1009C800D30083122C088316D20083122B088316B7
:1009D800D10083122A088316D0003F308312DF002B
:1009E8008030DE000030DD000030DC008316530864
:1009F8008312B100831652088312B000831651087F
:100A08008312AF00831650088312AE0083164F0876
:100A18008312C50083164E088312C40083164D083E
:100A28008312C30083164C088312C20083165F0822
:100A38008312C10083165E088312C00083165D0806
:100A48008312BF0083165C088312BE000A128A1143
:100A580052200A128A114108AD004008AC003F0834
:100A6800AB003E08AA000A128A11B7250A128A1199
:100A78002D08DB002C08DA002B08D9002A08D8003A
:100A88000A128A15A0230A128A115B088316D70056
:100A980083125A088316D600831259088316D50084
:100AA800831258088316D40043308312EC00883030
:100AB800EB009330EA003330E900831657088312BD
:100AC800E800831656088312E70083165508831238
:100AD800E600831654088312E5000A168A159F2734
:100AE8000A128A1168088316B000831267088316F1
:100AF800AF00831266088316AE008312650883165A
:100B0800AD000A128A1511200A128A1183162D08BF
:100B1800C000C101C201C3014308FC004208FB0038
:100B28004108FA004008F90000300A168A115C27CB
:100B38000A128A117C0883160317D7007B08D6008F
:100B48007A08D5007908D400831203130C1383168E
:100B58004708FF0046088A0045088400440E8300C1
:100B6800FE0E7E0E09002D088039B2003208BA0048
:100B78002D08B2003207B3003308BC00AC1B3C148C
:100B88003C080319D52D3C0A031DD22D0030AD00B9
:100B98000030AC000030AB000030AA00AC17AD014B
:100BA800DD2D0030AD000030AC000030AB0000306F
:100BB800AA0031088039B2003208BB003B083A0667
:100BC800031D3A173108B2003207B3003308BB00DF
:100BD800B01B3B143B080319FF2D3B0A031DFC2DDA
:100BE8000030B1000030B0000030AF000030AE007F
:100BF800B017B101072E0030B1000030B00000304E
:100C0800AF000030AE003C083B0203184D2E3A1FDF
:100C1800112E8030B2003208BA063C08B200320801
:100C2800BD003B08B2003208BC003D08B2003208E3
:100C3800BB002A08B2003208BD002E08B2003208F4
:100C4800AA003D08B2003208AE002B08B2003208F4
:100C5800BD002F08B2003208AB003D08B2003208D0
:100C6800AF002C08B2003208BD003008B2003208CC
:100C7800AC003D08B2003208B0002D08B2003208BE
:100C8800BD003108B2003208AD003D08B20032089C
:100C9800B100BD013B08B200B3013308B5003C0800
:100CA8003202B400031CB5033508803AFF008030D7
:100CB8007F02031D612E1A303402031C9A2E831200
:100CC80003132D082C042B042A0403196D2E01305C
:100CD8006E2E0030B2003208BD000030AD0000308A
:100CE800AC000030AB000030AA003B08B20032086C
:100CF800BC00A02E3D1C892E3D08B2000310320C0A
:100D08000138B3003308BD008B2E0310BD0C2A1820
:100D1800BD170130B2002D0DAD0CAC0CAB0CAA0CFC
:100D2800B20B8F2E0130B2003208BC0783120313B6
:100D38003B083C02031C7E2E3A1BE12E3C08031D97
:100D4800AE2E0030AD000030AC000030AB000030FB
:100D5800AA0008002E08AA072F0803110318013E4D
:100D6800031DAB07300803110318013E031DAC0730
:100D7800310803110318013E031DAD072D1C832FF5
:100D88003D1CCF2E3D08B2000310320C0138B300D1
:100D98003308BD00D12E0310BD0C2A18BD17013031
:100DA800B2002D0DAD0CAC0CAB0CAA0CB20BD52EB1
:100DB8000130B2003208BC07832F2D08803AFF00AB
:100DC8003108803A7F02031DF32E30082C02031DE0
:100DD800F32E2F082B02031DF32E2E082A020318C8
:100DE8004B2FFF30B200FF30B300FF30B400FF30AC
:100DF800B5002E08B6002F08B7003008B800310833
:100E0800B9002A08B6022B08031C2B0F0C2F0D2F34
:100E1800B7022C08031C2C0F122F132FB8022D0811
:100E2800031C2D0F182F192FB9023608B2073708DF
:100E38000318370F202F212FB30738080318380F4E
:100E4800262F272FB40739080318390AB50735089C
:100E5800AD003408AC003308AB003208AA0080307B
:100E6800B2003208BA06BD09BD0A3D08031D592F54
:100E78000130AA07003003180130AB07003003180F
:100E88000130AC07003003180130AD07592F2E0888
:100E9800AA022F08031C2F0FAB023008031C300FC7
:100EA800AC023108031C310FAD022D082C042B04B1
:100EB8002A04031D812F3D08031D812F0030AD003A
:100EC8000030AC000030AB000030AA000800013050
:100ED800B2000310AA0DAB0DAC0DAD0DB20B6D2F0A
:100EE800BD1B2A143D1C7A2F03147B2F0310BD0D44
:100EF8003C080319812F0130BC02AC1F6B2FBB01CA
:100F0800BD1F8E2F3D087F3903192A188C2F8E2F6D
:100F1800BB01BB0A3B080319C12F0130AA070030E7
:100F280003180130AB07003003180130AC0700305C
:100F380003180130AD072D1CC12F2A08B2002B0859
:100F4800B3002C08B4002D08B5000130B600350DEB
:100F5800B50CB40CB30CB20CB60BAB2F3508AD0006
:100F68003408AC003308AB003208AA003C0A031965
:100F7800C12F0130B2003208BC073C0A031D3C08EF
:100F8800031DD12F0030AD000030AC000030AB00A5
:100F98000030AA003C080319BA013C1CD52FAC1735
:100FA800D92F7F30B2003208AC053C08B2000310DC
:100FB800320CB3003308AD00BA1F0800AD170800A3
:100FC80010031104031DF02F120C83120313031CCA
:100FD800881003188814080010081104031DFC2F3A
:100FE800120C83120313031C8810031888140800BA
:100FF80083120313881008007E088A007F08820085
:1010080000200A128A158000840A04087D06031944
:101018000034FF0A0319FE0A042803102F0D300DAF
:10102800B10031088312EE006E08031D2528003038
:101038008316B0000030AF000030AE000030AD00C5
:10104800080083162D08B1002E08B2002F08B3003F
:101058003008B4001F300310B40CB30CB20CB10C40
:10106800FF3E031D2F283108B50035088312ED0017
:101078008316AF17FF30AD05FF30AE05FF30AF0563
:101088000030B00596308312EE02EE1F62286E081B
:10109800803A973E031C1B28013003108316B00CBE
:1010A800AF0CAE0CAD0CFF3E031D51280130B10052
:1010B80031088312EE0703197728502820306E0272
:1010C80003181B286E080319772801308316B1000E
:1010D8000310AD0DAE0DAF0DB00DB10B6C28013086
:1010E8008312EE0266286D08031908008316AD09FD
:1010F800AE09AF09B009AD0A0319AE0A0319AF0A60
:101108000319B00A080083160317920017298312DF
:1011180003139F180800C3309F0502308316031776
:101128009000900B95280000831203139F14080069
:10113800831203139F1808001F0C831603179000CF
:10114800100C0F39003A031DB028831203131F082F
:10115800C33904389F00BF28831203131F0C83165A
:1011680003179000100C0F39013A031DC628C3302D
:10117800831203139F050230831603179000900B08
:10118800C32800000230831603179000900BCA286A
:101198000000831203139F140800831203139F187F
:1011A80008001F0C831603179000100C0F39003A23
:1011B800031DE528831203131F08C33904389F0051
:1011C8000529831203131F0C831603179000100CB4
:1011D8000F39013A031DF628831203131F08C33978
:1011E8000838E328831203131F0C83160317900093
:1011F800100C0F39023A031D0C29C3308312031354
:101208009F050230831603179000900B09290000F0
:101218000230831603179000900B102900008312E8
:1012280003139F1408001208900091011108003A56
:1012380003191F292A291008013A03198B28033A90
:1012480003199C28013A0319D1282A2908000A16EB
:101258008A1533270A128A15D030031790000030F8
:1012680091000A168A1566270A128A150030831615
:101278000317900091000A168A1566270A128A1524
:101288000A168A153D270A128A15D13003179000CD
:10129800003091000A168A1566270A128A1501304D
:1012A800831603179000003091000A168A119420C3
:1012B8000A128A1501309000003091000A168A112E
:1012C80094200A128A1510080A168A112E200A126A
:1012D8008A15CE004E08E4000030900091000A16EE
:1012E8008A1194200A128A1510080A168A112E20CB
:1012F8000A128A15CE004E08E3000A168A15382706
:101308000A128A15031764086E06031995296408DA
:10131800CE004E08EE0064080A168A1578270A12CD
:101328008A158316031763086D060319A62963082F
:10133800CE004E08ED006308E03E0A168A157827AD
:101348000A128A15831603176408031DCC2909306D
:1013580065020318CC290130CE004E08E5070310BA
:1013680083120313081F0314031CBE2983120313DB
:101378000817C129831203130813043083160317AF
:10138800CF003D30CE00CE0BC729CF0BC7290800B0
:1013980064080319D6298312031308138316031745
:1013A800E501080083120313081308000A168A15BA
:1013B80033270A128A157230031790000030910003
:1013C8000A168A1566270A128A158C30831603179F
:1013D8009000003091000A168A1566270A128A15AD
:1013E8000A168A153D270A128A15733003179000CA
:1013F800003091000A168A1566270A128A150130EC
:10140800831603179000003091000A168A11942061
:101418000A128A151008CA004A08E2000030900033
:1014280091000A168A1194200A128A151008CA0017
:101438004A08E1000A168A1538270A128A150A1678
:101448008A1533270A128A15723003179000003064
:1014580091000A168A1566270A128A158E30831695
:1014680003179000003091000A168A1566270A12A1
:101478008A150A168A153D270A128A15733003172A
:101488009000003091000A168A1566270A128A15FC
:101498000130831603179000003091000A168A1154
:1014A80094200A128A151008CA004A08E000003081
:1014B800900091000A168A1194200A128A151008C1
:1014C800CA004A08DF000A168A1538270A128A1540
:1014D80003176108CA00CB014A08CB00CA01620899
:1014E8004A07DA000030031801304B07DB005F08B9
:1014F800CA00CB014A08CB00CA0160084A07D800D5
:101508000030031801304B07D900C6015908A10063
:101518005808A0005B089F005A089E000A128A1506
:10152800AA250A128A151E080A168A158E270A1273
:101538008A15CA004A08DE005E086A060319080010
:101548005E08CA004A08EA005E08C03E0A168A1504
:10155800782708006B08F3006A08F2006908F100B0
:101568006808F0000030F7000030F6000030F500A1
:101578000030F4000A168A1198250A128A150318F1
:10158800D42A21308316E0000030E10000308312B5
:10159800EB000030EA000030E9000030E800080005
:1015A8006B08F3006A08F2006908F1006808F000A7
:1015B8000030F7000030F6000030F5000030F4008D
:1015C8000A168A11D6210A128A15031CFA2A223011
:1015D8008316E0000030E10000308312EB00003099
:1015E800EA000030E9000030E8000800BF30AD0034
:1015F8008030AC000030AB000030AA004030C100A1
:101608000030C0000030BF000030BE006D30EC007C
:101618006C08A4006B08A3006A08A2006908A1006E
:101628006808A0000A168A111E220A128A152308C1
:10163800C5002208C4002108C3002008C2000A12FD
:101648008A1152200A128A154108B1004008B000D8
:101658003F08AF003E08AE000A128A11B7250A12E9
:101668008A152D08EB002C08EA002B08E9002A0847
:10167800E800FF30ED070318EE0AFF30EE076B08AD
:10168800DB006A08DA006908D9006808D800013068
:10169800EC006C08DC000830DD000030DE000A16C3
:1016A8008A112B260A128A155B08EB005A08EA00F1
:1016B8005908E9005808E8006B08AD006A08AC0052
:1016C8006908AB006808AA003F30C1003130C0008B
:1016D8007230BF001830BE006D08F9006E08FA00BD
:1016E8000030FA1BFF30FB00FC0001300A168A119B
:1016F8005C270A128A157C08C5007B08C4007A0892
:10170800C3007908C2000A128A1152200A128A15E7
:101718004108B1004008B0003F08AF003E08AE00E5
:101728000A128A11B7252D08EB002C08EA002B08AD
:10173800E9002A08E80008005F088039E00060082E
:101748008316A40083125F08E0006007E1006108C7
:101758008316AB008312DE1FB32B83162B1483165C
:101768002B080319C72B2B0A031DC32B0030831228
:10177800DF000030DE000030DD000030DC008312C6
:10178800DE17DF01D02B00308312DF000030DE00CF
:101798000030DD000030DC005B088039E0006008C4
:1017A8008316A40683125B08E0006007E100610865
:1017B8008316AC008312DA1FE32B83162C148316CE
:1017C8002C080319F72B2C0A031DF32B0030831266
:1017D800DB000030DA000030D9000030D800831276
:1017E800DA17DB01002C00308312DB000030DA004E
:1017F8000030D9000030D8005B085A045904580456
:10180800031D212C0030DF000030DE000030DD0039
:101818000030DC008030DE047F30DF0483162408CB
:101828008312E0006008DF045F08DB005E08DA006E
:101838005D08D9005C08D800080083162B08031D32
:101848002F2C00308312DB000030DA000030D90082
:101858000030D80008002B088312E000E10161087D
:10186800E30083162C0883126002E200031CE303E2
:1018780062087F3E8316A500831263080318013EA1
:10188800003E8316A60083125F088316A300831206
:101898005E088316A20083125D088316A1008312D6
:1018A8005C088316A00000308312DF000030DE00E1
:1018B8000030DD000030DC0000308316AA00003064
:1018C800A9000030A8000030A700AC011A302C0293
:1018D8000318D52C2C080319972C01308312E0002B
:1018E80003108316A00DA10DA20DA30D8312E00B0A
:1018F800742C0130E0000310DC0DDD0DDE0DDF0D72
:10190800E00B7F2C8316AA1F8B2C83125C140130EA
:101918008312E00003108316A70DA80DA90DAA0DC8
:101928008312E00B8E2C83125B0883162302031D9F
:10193800AD2C83125A0883162202031DAD2C831284
:10194800590883162102031DAD2C831258088316EB
:101958002002031CCE2C2A17831258088316A002D3
:1019680083125908031C590FBA2CBC2C8316A102E8
:1019780083125A08031C5A0FC22CC42C8316A202C5
:1019880083125B08031C5B0FCA2CCC2C8316A302A2
:101998008312831601308312E00060088316AC07B7
:1019A8006A2C2308220421042004031D271483120F
:1019B800DE1B002D0130E0000310DC0DDD0DDE0D17
:1019C800DF0DE00BE02C8316AA1FEC2C83125C14AD
:1019D80001308312E00003108316A70DA80DA90D8E
:1019E800AA0D8312E00BEF2CFF308316A50703180E
:1019F800A60AFF30A607DB2C8316AC01AA1F222DEE
:101A0800FF3027058312E000FF3083162805831274
:101A1800E100FF30831629058312E2007F30831628
:101A28002A058312E3006308620461046004031951
:101A38005C181F2D222D8316AC01AC0A83162C08C6
:101A48000319572D01308312DC07003003180130C9
:101A5800DD07003003180130DE07003003180130BD
:101A6800DF075F1C572D5C08E0005D08E1005E0899
:101A7800E2005F08E3000130E400630DE30CE20CD0
:101A8800E10CE00CE40B412D6308DF006208DE0086
:101A98006108DD006008DC0001308316A507031823
:101AA800A60A0030A60783162608803AFF00803071
:101AB8007F02031D612DFF302502031C722DFF30AC
:101AC80083160313A5000030A60000308312DF0040
:101AD8000030DE000030DD000030DC008316031328
:101AE8002608803AFF0080307F02031D7D2D0130DB
:101AF800250203188E2D83160313A501A6010030B5
:101B08008312DF000030DE000030DD000030DC0032
:101B18008316A4018316031325088312E0006008C6
:101B28008316AB002B1C9B2D8312DE17A02D7F3054
:101B38008312E0006008DE0583162B088312E0009C
:101B48000310600CE1006108DF00122C0030B900BE
:101B58000030B8007530B7001730B6003608A2005C
:101B68003708A3003808A4003908A500043003107A
:101B7800A20DA30DA40DA50DFF3E031DBB2D250829
:101B8800B9002408B8002308B7002208B6001E08C8
:101B980090001F08910092019301390897003808B6
:101BA800960037089500360894000A168A1197217E
:101BB8000A128A151008A2001108A3001208A4002E
:101BC8001308A5000A300310A50CA40CA30CA20C42
:101BD800FF3E031DE72D2508C1002408C000230887
:101BE800BF002208BE002008900021089100920141
:101BF8009301390897003808960037089500360889
:101C080094000A168A1197210A128A151008A20050
:101C18001108A3001208A4001308A5000A30031035
:101C2800A50CA40CA30CA20CFF3E031D132E250823
:101C3800BD002408BC002308BB002208BA000030FD
:101C4800AD000030AC000030AB000030AA00410805
:101C580040043F043E0403195F2E410893004008E6
:101C680092003F0891003E0890003A08A2003B0805
:101C7800A3003C08A4003D08A5000A300310A20DEB
:101C8800A30DA40DA50DFF3E031D422E25089700A8
:101C98002408960023089500220894000A168A1141
:101CA80072220A128A151308AD001208AC00110836
:101CB800AB001008AA000130A2000030A3000030D9
:101CC800A4000030A5002A08A2072B0803182B0F30
:101CD8006E2E6F2EA3072C0803182C0F742E752E4A
:101CE800A4072D0803182D0AA50701300310A50C19
:101CF800A40CA30CA20CFF3E031D7A2E2508C500D8
:101D08002408C4002308C3002208C2004508031D94
:101D1800A12E4408031DA12E4308031DA12E413006
:101D28004202031D972E0318A12EF23083160317C3
:101D3800B2000130B300BE300A2F831603174508DE
:101D4800031DBC2E4408031DBC2E4308031DBC2ED6
:101D580081304202031DB02E0318BC2E14308316A6
:101D68000317B2000230B300D130B4000230422F62
:101D7800831603174508031DD52E4408031DD52EC9
:101D88004308031DD52EC1304202031DCB2E031874
:101D9800D52E3F3083160317B2000230B3007B30D4
:101DA800EE2E831603174508031DF12E4408031D64
:101DB800F12E01304302031DE52E01304202031DBE
:101DC800E52E0318F12E703083160317B200023087
:101DD800B300FE30B4000330422F831603174508C2
:101DE800031D0D2F4408031D0D2F01304302031D51
:101DF800012F39304202031D012F03180D2F6F30B8
:101E080083160317B2000130B300FC30B400013070
:101E1800422F831603174508031D272F4408031D67
:101E2800272F01304302031D1D2F9B304202031D43
:101E38001D2F0318272FD23083160317B200003046
:101E4800B300FB30402F831603174508031D442FAA
:101E58004408031D442F02304302031D372F9B30D3
:101E68004202031D372F0318442F18308316031717
:101E7800B2000030B3001230B4000030B5005C2F5F
:101E8800831603174508031D562F4408031D562FB4
:101E980002304302031D542F9B304202031D542F6E
:101EA800031C5C2F83160317B201B301B401B501FB
:101EB80083160317320890003308910092019301AA
:101EC80041089700400896003F0895003E08940096
:101ED8000A168A1197210A128A151308C1001208D6
:101EE800C0001108BF001008BE0034089000350873
:101EF8009100920193013D0897003C0896003B0829
:101F080095003A0894000A168A1197210A128A1530
:101F18001308BD001208BC001108BB001008BA0065
:101F28000030B1000030B0000030AF000030AE002B
:101F380041083D02031DAA2F40083C02031DAA2F99
:101F48003F083B02031DAA2F3E083A020318D02F70
:101F58003E08A2003F08A3004008A4004108A500CD
:101F68003A08A2023B08031C3B0FBB2FBC2FA3025D
:101F78003C08031C3C0FC12FC22FA4023D08031CC0
:101F88003D0FC72FC82FA5022508B1002408B000AF
:101F98002308AF002208AE000030AE072030031837
:101FA8002130AF07003003180130B00700300318A4
:101FB8000130B1072E08A2002F08A3003008A400A2
:101FC8003108A5000E300310A50CA40CA30CA20C1C
:101FD800FF3E031DE72F2508A9002408A8002308B1
:101FE800A7002208A6002908A1002808A0002708A1
:101FF8009F0026089E00080010308A000408840A02
:10200800820700340034003400340034C434FF3410
:102018007F343F348034EF34FF34BE349034E134BD
:10202800A9343E34EC3482347634BE348234AD3450
:102038002B343E340E343C34C334BD348734D1346D
:1020480013343D3441347834D334BB3459344734B1
:10205800BC343334CD000F304D05CA000A30CB00F4
:102068004B08C6004D08CC0004300310CC0CFF3ED2
:10207800031D39284C080A168A158E274A070800B6
:102088001C08803AFF0080307F02031D4D2816305F
:102098001B02031C532883120313061456288312A9
:1020A800031306108316031767081C06031D5E2812
:1020B80066081B06031908001C08E7001B08E60051
:1020C8001B081F39A03E0A168A1578270800140332
:1020D8001504031D71285E3072281F3090000030EF
:1020E80091000A168A15BD270A168A118316031746
:1020F80069081506031D82286808140603190800D4
:102108001508E9001408E80014081504031D8E28B2
:1021180001308F280030803E0A168A15782708007B
:102128000A168A155D270A168A1191150A168A1544
:102138005D270A168A118312130883160317920063
:10214800930112089400130895000A168A155D2752
:102158000A168A11031710031104031DB628031366
:102168009112B82803139116111603171508910038
:10217800140890000800831603179200D828031348
:102188000F088F394038D62803130F088F39503875
:10219800D628D228703003138F04EE2803130F08B3
:1021A8008F3960388F00EE281208900091011108CD
:1021B800003A0319E028D2281008013A0319C32865
:1021C800033A0319C828063A0319CD280C3A03190B
:1021D800CE28D2280F140800283083120313940045
:1021E8008316910103171E08A2001F08A3002008E8
:1021F800A4002108A50002300310A20DA30DA40D10
:10220800A50DFF3E031D0029250893002408920010
:102218002308910022089000003097000F309600A4
:1022280042309500403094000A168A117222100834
:10223800FF3E0313930094018715071608008316C1
:10224800031792003B2903130715831297013F30A8
:1022580097051708F0390C3897004B290313871492
:1022680083129D011D08F0390C389D004B29120876
:10227800900091011108003A031943294B291008CD
:10228800013A03192729033A031932294B29033044
:10229800831203139204FF308316920083128C106A
:1022A80012158C1C55298C10831607110800F5018E
:1022B800F6017008710403199229F701F70AF11B56
:1022C800712901300310F00DF10DFF3E031D662941
:1022D8000130F4007408F707632901300310F50D85
:1022E800F60DFF3E031D722971087302031D7E2936
:1022F80070087202031C87297008F2027108031C17
:10230800F303F302751401300310F10CF00CFF3ED7
:10231800031D88290130F702031D71297608F10091
:102328007508F000080000309C0000309B00003069
:102338009A0000309900101CB5291408990715084F
:1023480003110318013E031D9A0716080311031809
:10235800013E031D9B07170803110318013E031DC7
:102368009C07013098000310940D950D960D970D5C
:10237800980BB72901300310930C920C910C900C18
:10238800FF3E031DBF291308120411041004031D86
:102398009F291C0893001B0892001A08910019082D
:1023A8009000080000307005F80000307105F90051
:1023B80080307205FA007F307305FB007B087A04D1
:1023C80079047804031DF0290030F3000030F2008E
:1023D8000030F1000030F00000307405F8000030E3
:1023E8007505F90080307605FA007F307705FB0027
:1023F8007B087A0479047804031D0A2A0030F70060
:102408000030F6000030F5000030F400770873065D
:10241800031D182A76087206031D182A7508710606
:10242800031D182A7408700603191C2A03100800D3
:10243800031408002308F3002208F2002108F10021
:102448002008F0000030F7000030F6000030F500FA
:102458000030F4000A168A11D6210A168A11031CC4
:10246800442A2408840083138001840A80010030F0
:10247800A3000030A2000030A1000030A000080036
:1024880023087F39FC00FD010310FC0DFD0D240815
:1024980084007C0883138000840A7D088000220D54
:1024A800220D0139FC00FD01240884007C08800409
:1024B800840A7D0880042408840082308007840F01
:1024C80000080318000AFF00FF307F07800084031C
:1024D800230880393F38A300A213080000309C006D
:1024E80000309B0000309A00003099001308120455
:1024F800110410040319C72A9D019D0A931B922AEF
:10250800013098000310900D910D920D930D980BCA
:10251800862A0130980018089D07822A0130980001
:102528000310990D9A0D9B0D9C0D980B942A130876
:102538001702031DA92A12081602031DA92A110849
:102548001502031DA92A10081402031CBA2A100830
:1025580094021108031C110F95021208031C120F94
:1025680096021308031C130F970219140130031065
:10257800930C920C910C900CFF3E031DBB2A01306A
:102588009D02031D922A1C0893001B0892001A083A
:1025980091001908900008000A168A1533270A16B0
:1025A8008A11723003179000003091000A168A15BC
:1025B80066270A168A1180308316031790000030A8
:1025C80091000A168A1566270A168A11033083169F
:1025D80003179000003091000A168A1566270A161C
:1025E8008A110A168A1538270A168A110A168A15B0
:1025F80033270A168A1172300317900000309100B1
:102608000A168A1566270A168A1181308316031757
:102618009000003091000A168A1566270A168A115A
:10262800003083160317900091000A168A15662752
:102638000A168A110A168A1538270A168A110530C9
:1026480083160317930089309200920B292B930B62
:10265800292B2E2B080003131815031787150313AE
:102668009A0103171E08A2001F08A3002008A4004F
:102678002108A50002300310A20DA30DA40DA50D7D
:10268800FF3E031D3F2B25089300240892002308D2
:102698009100220890001E08A6001F08A700200825
:1026A800A8002108A90002300310A60DA70DA80D47
:1026B800A90DFF3E031D582B4030AA004230AB0045
:1026C8000F30AC000030AD002608AA022708031C12
:1026D800270F6F2B702BAB022808031C280F752BB4
:1026E800762BAC022908031C290F7B2B7C2BAD020F
:1026F8002D0897002C0896002B0895002A089400AE
:102708000A168A11722210080313990018128312EC
:102718009817831618139816080083160317920043
:10272800031381120317120803199D2B0313811138
:10273800CB2B1208031DCB2B03138115CB2BC72BD7
:1027480003130108F8390138C12B03130108F839BC
:102758000238C12B03130108F8390338C12B0313BE
:102768000108F8390438C12B03130108F839053872
:10277800C12B03130108F83906388100F12B073003
:1027880003138104F12BF83003138105F12B031790
:102798001208900091011108003A0319D42BC72B95
:1027A8001008003A0319A32B023A0319A32B063A7F
:1027B8000319A42B0C3A0319A92B183A0319AE2BA9
:1027C800303A0319B32B603A0319B82BC03A0319EE
:1027D800BD2B7F3A0319C32BC72B8B160B1108008F
:1027E8000A168A112D250A168A110A168A11D0226C
:1027F8000A168A11831603176B080139D000D00D09
:10280800D00D831203130808831603175006FB39EB
:102818005006831203138800831603176B08D00031
:10282800D10150089000510891006C08D200D301E2
:1028380052089200530893000A128A11E4270A16D4
:102848008A1101300A128A1587200A168A118316FE
:10285800031757089300560892005508910054082A
:1028680090000A168A11C2240A168A1111089C00BF
:1028780010089B000A168A1144200A168A1183162A
:1028880003175D0895005C0894000A168A116B20EE
:102898000A168A110A128A152B210A168A110A1297
:1028A8008A15DA210A168A11FE2B9400732C3F3000
:1028B800831203139F05902C6C2C831203131F089B
:1028C8003F398038712CC030831203139F04902C39
:1028D800831203131F083F3940389F00902C1408B7
:1028E800920093011308003A03197B2C6C2C1208F0
:1028F800003A03195B2C013A0319602C033A0319B7
:10290800612C013A0319672C6C2C8D2C03131F16AC
:10291800A92C03131F12A92C831603171008920061
:1029280093011308003A03199A2C8D2C1208003AC7
:102938000319892C013A03198A2C8D2CA62C031310
:102948009F16BA2C03139F12BA2C03171108920072
:1029580093011308003A0319B22CA62C1208003A66
:102968000319A22C013A0319A32CA62C9F17831232
:102978001F1483160C1783120C1308000310120D72
:10298800130D940014089A001A08031DD42C003063
:102998009300003092000030910000309000080051
:1029A8001008940011089500120896001308970063
:1029B8001F300310970C960C950C940CFF3E031DCA
:1029C800DD2C14089800180899009217FF3090051C
:1029D800FF309105FF3092050030930596309A023A
:1029E8009A1F0B2D1A08803A973E031CCB2C0130F6
:1029F8000310930C920C910C900CFF3E031DFC2CC1
:102A08000130940014089A0703191E2DFB2C20305E
:102A18001A020318CB2C1A0803191E2D0130940032
:102A28000310900D910D920D930D940B142D013000
:102A38009A020F2D190803190800900991099209A3
:102A48009309900A0319910A0319920A0319930A20
:102A5800080001300A168A11BF200A168A110130AF
:102A68000317880089010313051405128312051240
:102A78008316061083120610831686148312861096
:102A8800831606158312061183168617831286137A
:102A98008316811386309500881083128810831658
:102AA80008118312081183160813831208130130C2
:102AB8000A168A1123210A168A1100300317A10069
:102AC8000030A00025309F0080309E000A168A1131
:102AD8002F230A168A1103179001910100300A1654
:102AE8008A1159240A168A1110300A168A1191235C
:102AF8000A168A110A168A1542270A168A11003000
:102B080083160317A1000630A0001A309F008030FA
:102B18009E000A168A11F0208B170B178B15961436
:102B2800161596170B10080000307005F8000030D5
:102B38007105F90080307205FA007F307305FB00DB
:102B48007B087A0479047804031DB22D0030F30061
:102B58000030F2000030F1000030F0000030740561
:102B6800F80000307505F90080307605FA007F30EE
:102B78007705FB007B087A0479047804031DCC2DC3
:102B88000030F7000030F6000030F5000030F400A7
:102B9800F31FF22D0030F8000030F9000030FA0081
:102BA8008030FB007008F8027108031C710FDD2DDE
:102BB800DE2DF9027208031C720FE32DE42DFA02D0
:102BC8007308031C730FE92DEA2DFB027B08F30041
:102BD8007A08F2007908F1007808F000F71F182E3B
:102BE8000030F8000030F9000030FA008030FB00B7
:102BF8007408F8027508031C750F032E042EF902D9
:102C08007608031C760F092E0A2EFA027708031C91
:102C1800770F0F2E102EFB027B08F7007A08F600BC
:102C28007908F5007808F4008030F3068030F7065C
:102C380077087302031D080076087202031D080056
:102C480075087102031D08007408700208005D0809
:102C5800DF0001300310DF0DFF3E031D2E2E031091
:102C68005F0D5C0784000A168A1100200A168A1173
:102C7800E0000A168A1100200A168A11E1000A16D5
:102C88008A1100200A168A11E2000A168A11002009
:102C98000A168A11E3006308E7006208E600610883
:102CA800E5006008E4005D085E040319B72EFF30F4
:102CB800DD070318DE0AFF30DE075D08DF0001309C
:102CC8000310DF0DFF3E031D642E03105F0D5C072C
:102CD80084000A168A1100200A168A11E0000A16D2
:102CE8008A1100200A168A11E1000A168A110020AA
:102CF8000A168A11E2000A168A1100200A168A1199
:102D0800E3006308AD006208AC006108AB0060082E
:102D1800AA006708C1006608C0006508BF0064080B
:102D2800BE005B08C5005A08C4005908C30058080B
:102D3800C2000A128A1152200A168A114108B100EB
:102D48004008B0003F08AF003E08AE000A128A11E2
:102D5800B7250A168A112D08E7002C08E6002B086B
:102D6800E5002A08562E6708DB006608DA006508C1
:102D7800D9006408D80008003C08F9003D08FA00AA
:102D88000030FA1BFF30FB00FC0001300A168A11E4
:102D98005C270A168A117C08B1007B08B0007A0803
:102DA800AF007908AE0083163C083E02F9003D08E2
:102DB800031C3D0A3F02FA00FB01FA1BFB037B08D8
:102DC800FC0001300A168A115C270A168A117C0851
:102DD800DF007B08DE007A08DD007908DC00831656
:102DE80038083A02F9003908031C390A3B02FA008C
:102DF800FB01FC0100300A168A115C270A168A11A9
:102E08007C08DB007B08DA007A08D9007908D8004A
:102E18000A128A15A0230A168A115B08C5005A08E7
:102E2800C4005908C3005808C2008316380836027F
:102E3800F9003908031C390A3702FA00FB01FC01C2
:102E480000300A168A115C270A168A117C08C1000C
:102E58007B08C0007A08BF007908BE000A128A11F0
:102E680052200A168A114108AD004008AC003F08FC
:102E7800AB003E08AA000A128A11B7250A168A1161
:102E88002D088316B00083122C088316AF00831216
:102E98002B088316AE0083122A088316AD000A1287
:102EA8008A15112083162E08B7002D08B6000800D1
:102EB8008312A4002408031DFC1F722F7909A600A1
:102EC8007A09A7007B09A8007C09A900A60A0319AA
:102ED800A70A0319A80A0319A90A7A2F7C08A900C6
:102EE8007B08A8007A08A7007908A6007C087B045C
:102EF8007A047904031D892F0030FC000030FB00A0
:102F08000030FA000030F90008009630A0002008D0
:102F1800A500FE3029050319BA2F0130A0002008AA
:102F2800A50701300310A90CA80CA70CA60CFF3E9E
:102F3800031D962F8D2F0130A0002008A507013012
:102F4800A607003003180130A70700300318013026
:102F5800A807003003180130A90701300310A90C95
:102F6800A80CA70CA60CFF3E031DB22FFF302905A5
:102F78000319CE2F9F2F02302502031CD02F0130BA
:102F8800A5020130A0000310A60DA70DA80DA90DDC
:102F9800A00BC72FA81FBF2F2518DA2FFF30A605B3
:102FA800FF30A7057F30A805FF30A9050310A50C41
:102FB8002508A000A101A201A30118300310A00D4B
:102FC800A10DA20DA30DFF3E031DE22F2008A604AC
:102FD8002108A7042208A8042308A9042408031D1B
:102FE800FC1FF72FA9172908FC002808FB00270851
:082FF800FA002608F9000800A8
:103E66000A168A155D27111408000A168A155D2799
:103E7600111508000A168A155D2791140800B2303C
:103E8600831281000B110800B230831203138100E4
:103E96000B11080083120C131E08F10083161E086E
:103EA600F000080064008001840A04060319003447
:103EB6000406562F8316031314195D2F11081F3994
:103EC600031908005D2F0A168A155D2703171008C7
:103ED600831203139300080096340034053400342B
:103EE6000834053401341E343D3490000313981C05
:103EF600792F031710088312031399000800EB3477
:103F0600FF3493343A34003440341C34463473342A
:103F16007F3475343934C900C801491C962F4608C8
:103F2600C7004708C8070310C60D0310C90C490887
:103F3600031D902F480808008030E8066C08AD0085
:103F46006B08AC006A08AB006908AA006808B100F3
:103F56006708B0006608AF006508AE000A128A114D
:103F6600B7252D08E8002C08E7002B08E6002A08EC
:103F7600E500080011089300100892000310930C46
:103F8600920C0310930C920C1208831203139500E3
:103F960083160317100803399200920E8312031337
:103FA6001708831603171206CF3912068312031356
:103FB60097000800F800F401F5017008F200F3011B
:103FC6007208F6007308F700781CEF2F7608F407DE
:103FD6000318F50A7708F50701300310F60DF70DFB
:103FE600FF3E031DF02F0310F80C7808031DE72F82
:103FF6007508F1007408F0000800FF3FFF3FFF3F1F
:02400600FF3F7A
:04400E00D420FF3E7D
:00000001FF
